{
  "transactions": [
    {
      "hash": "0xca1005bdb51650f6d7ab0b2ef7408fd25afcb54e5aa855c9f466239ec6a91e15",
      "transactionType": "CALL",
      "contractName": null,
      "contractAddress": "0x96cfa0e76bd15d99a1230ca3955be5e677b746a6",
      "function": "listProperty(string,address,uint256,string)",
      "arguments": [
        "Taj Mahal Hotel",
        "0xe8537a3d056DA446677B9E9d6c5dB704EaAb4787",
        "30000000000000000",
        "ipfs://QmTajMahalHotelImage123"
      ],
      "transaction": {
        "from": "0x8a0d290b2ee35efde47810ca8ff057e109e4190b",
        "to": "0x96cfa0e76bd15d99a1230ca3955be5e677b746a6",
        "gas": "0x3b520",
        "value": "0x0",
        "input": "0x91df597f0000000000000000000000000000000000000000000000000000000000000080000000000000000000000000e8537a3d056da446677b9e9d6c5db704eaab4787000000000000000000000000000000000000000000000000006a94d74f43000000000000000000000000000000000000000000000000000000000000000000c0000000000000000000000000000000000000000000000000000000000000000f54616a204d6168616c20486f74656c0000000000000000000000000000000000000000000000000000000000000000000000000000000000000000000000001e697066733a2f2f516d54616a4d6168616c486f74656c496d6167653132330000",
        "nonce": "0x24",
        "chainId": "0xa4ec"
      },
      "additionalContracts": [],
      "isFixedGasLimit": false
    },
    {
      "hash": "0xcdcb67e5454536416fb21ed059381d57ead1bdb0009de2e87668e2f84664bcfc",
      "transactionType": "CALL",
      "contractName": null,
      "contractAddress": "0x96cfa0e76bd15d99a1230ca3955be5e677b746a6",
      "function": "payRent(uint256,uint256,address)",
      "arguments": [
        "6",
        "1",
        "0x765DE816845861e75A25fCA122bb6898B8B1282a"
      ],
      "transaction": {
        "from": "0x8a0d290b2ee35efde47810ca8ff057e109e4190b",
        "to": "0x96cfa0e76bd15d99a1230ca3955be5e677b746a6",
        "gas": "0xd28d7",
        "value": "0x0",
        "input": "0x24399b9e00000000000000000000000000000000000000000000000000000000000000060000000000000000000000000000000000000000000000000000000000000001000000000000000000000000765de816845861e75a25fca122bb6898b8b1282a",
        "nonce": "0x25",
        "chainId": "0xa4ec"
      },
      "additionalContracts": [],
      "isFixedGasLimit": false
    }
  ],
  "receipts": [
    {
      "status": "0x1",
      "cumulativeGasUsed": "0xc77fe",
      "logs": [
        {
          "address": "0x96cfa0e76bd15d99a1230ca3955be5e677b746a6",
          "topics": [
            "0xb18344ef8baa750d3a903211956af26a995a3b8a1ea274bdb9cdb60eaef14da9",
            "0x0000000000000000000000000000000000000000000000000000000000000006"
          ],
          "data": "0x0000000000000000000000008a0d290b2ee35efde47810ca8ff057e109e4190b0000000000000000000000000000000000000000000000000000000000000080000000000000000000000000e8537a3d056da446677b9e9d6c5db704eaab4787000000000000000000000000000000000000000000000000006a94d74f430000000000000000000000000000000000000000000000000000000000000000000f54616a204d6168616c20486f74656c0000000000000000000000000000000000",
          "blockHash": "0x063488aa3b14a84be9657ea159a699ed31be5d2e663e68482e16fcffa9211d1d",
          "blockNumber": "0x20a0ead",
          "transactionHash": "0xca1005bdb51650f6d7ab0b2ef7408fd25afcb54e5aa855c9f466239ec6a91e15",
          "transactionIndex": "0x7",
          "logIndex": "0x11",
          "removed": false
        }
      ],
      "logsBloom": "0x00000000000000000000000000000000000000000000000000000000000000000080000000000020000400000000000000000000000400000000000000000000000000000000000000000000000000000000000000000000000000000000000000000000080000000000000000000000000000000000000000000000000040000000000400000000000000000000000000000000000000000000000000000000000000000000000000000000000000000000000000000000000000080000000000000000000000000000000000000000000000000000000000000000000000000000000000000000000000000000000000000000000000008000000000000000",
      "type": "0x0",
      "transactionHash": "0xca1005bdb51650f6d7ab0b2ef7408fd25afcb54e5aa855c9f466239ec6a91e15",
      "transactionIndex": "0x7",
      "blockHash": "0x063488aa3b14a84be9657ea159a699ed31be5d2e663e68482e16fcffa9211d1d",
      "blockNumber": "0x20a0ead",
      "gasUsed": "0x288fa",
      "effectiveGasPrice": "0x5d22cfc40",
      "from": "0x8a0d290b2ee35efde47810ca8ff057e109e4190b",
      "to": "0x96cfa0e76bd15d99a1230ca3955be5e677b746a6",
      "contractAddress": null,
      "l1BaseFeeScalar": "0x0",
      "l1BlobBaseFee": "0xde7b1c5a8",
      "l1BlobBaseFeeScalar": "0x0",
      "l1Fee": "0x0",
      "l1GasPrice": "0x7d4142e8",
      "l1GasUsed": "0x90c"
    },
    {
      "status": "0x1",
      "cumulativeGasUsed": "0x15fefa",
      "logs": [
        {
          "address": "0x765de816845861e75a25fca122bb6898b8b1282a",
          "topics": [
            "0xddf252ad1be2c89b69c2b068fc378daa952ba7f163c4a11628f55a4df523b3ef",
            "0x0000000000000000000000008a0d290b2ee35efde47810ca8ff057e109e4190b",
            "0x00000000000000000000000096cfa0e76bd15d99a1230ca3955be5e677b746a6"
          ],
          "data": "0x000000000000000000000000000000000000000000000000006a94d74f430000",
          "blockHash": "0x063488aa3b14a84be9657ea159a699ed31be5d2e663e68482e16fcffa9211d1d",
          "blockNumber": "0x20a0ead",
          "transactionHash": "0xcdcb67e5454536416fb21ed059381d57ead1bdb0009de2e87668e2f84664bcfc",
          "transactionIndex": "0x8",
          "logIndex": "0x12",
          "removed": false
        },
        {
          "address": "0x765de816845861e75a25fca122bb6898b8b1282a",
          "topics": [
            "0x8c5be1e5ebec7d5bd14f71427d1e84f3dd0314c0f7b2291e5b200ac8c7c3b925",
            "0x00000000000000000000000096cfa0e76bd15d99a1230ca3955be5e677b746a6",
            "0x000000000000000000000000be729350f8cdfc19db6866e8579841188ee57f67"
          ],
          "data": "0x000000000000000000000000000000000000000000000000006a94d74f430000",
          "blockHash": "0x063488aa3b14a84be9657ea159a699ed31be5d2e663e68482e16fcffa9211d1d",
          "blockNumber": "0x20a0ead",
          "transactionHash": "0xcdcb67e5454536416fb21ed059381d57ead1bdb0009de2e87668e2f84664bcfc",
          "transactionIndex": "0x8",
          "logIndex": "0x13",
          "removed": false
        },
        {
          "address": "0x765de816845861e75a25fca122bb6898b8b1282a",
          "topics": [
            "0x8c5be1e5ebec7d5bd14f71427d1e84f3dd0314c0f7b2291e5b200ac8c7c3b925",
            "0x00000000000000000000000096cfa0e76bd15d99a1230ca3955be5e677b746a6",
            "0x000000000000000000000000be729350f8cdfc19db6866e8579841188ee57f67"
          ],
          "data": "0x0000000000000000000000000000000000000000000000000000000000000000",
          "blockHash": "0x063488aa3b14a84be9657ea159a699ed31be5d2e663e68482e16fcffa9211d1d",
          "blockNumber": "0x20a0ead",
          "transactionHash": "0xcdcb67e5454536416fb21ed059381d57ead1bdb0009de2e87668e2f84664bcfc",
          "transactionIndex": "0x8",
          "logIndex": "0x14",
          "removed": false
        },
        {
          "address": "0x765de816845861e75a25fca122bb6898b8b1282a",
          "topics": [
            "0xddf252ad1be2c89b69c2b068fc378daa952ba7f163c4a11628f55a4df523b3ef",
            "0x00000000000000000000000096cfa0e76bd15d99a1230ca3955be5e677b746a6",
            "0x000000000000000000000000be729350f8cdfc19db6866e8579841188ee57f67"
          ],
          "data": "0x000000000000000000000000000000000000000000000000006a94d74f430000",
          "blockHash": "0x063488aa3b14a84be9657ea159a699ed31be5d2e663e68482e16fcffa9211d1d",
          "blockNumber": "0x20a0ead",
          "transactionHash": "0xcdcb67e5454536416fb21ed059381d57ead1bdb0009de2e87668e2f84664bcfc",
          "transactionIndex": "0x8",
          "logIndex": "0x15",
          "removed": false
        },
        {
          "address": "0x765de816845861e75a25fca122bb6898b8b1282a",
          "topics": [
            "0x8c5be1e5ebec7d5bd14f71427d1e84f3dd0314c0f7b2291e5b200ac8c7c3b925",
            "0x000000000000000000000000be729350f8cdfc19db6866e8579841188ee57f67",
            "0x000000000000000000000000777a8255ca72412f0d706dc03c9d1987306b4cad"
          ],
          "data": "0x000000000000000000000000000000000000000000000000006a94d74f430000",
          "blockHash": "0x063488aa3b14a84be9657ea159a699ed31be5d2e663e68482e16fcffa9211d1d",
          "blockNumber": "0x20a0ead",
          "transactionHash": "0xcdcb67e5454536416fb21ed059381d57ead1bdb0009de2e87668e2f84664bcfc",
          "transactionIndex": "0x8",
          "logIndex": "0x16",
          "removed": false
        },
        {
          "address": "0x765de816845861e75a25fca122bb6898b8b1282a",
          "topics": [
            "0x8c5be1e5ebec7d5bd14f71427d1e84f3dd0314c0f7b2291e5b200ac8c7c3b925",
            "0x000000000000000000000000be729350f8cdfc19db6866e8579841188ee57f67",
            "0x000000000000000000000000777a8255ca72412f0d706dc03c9d1987306b4cad"
          ],
          "data": "0x0000000000000000000000000000000000000000000000000000000000000000",
          "blockHash": "0x063488aa3b14a84be9657ea159a699ed31be5d2e663e68482e16fcffa9211d1d",
          "blockNumber": "0x20a0ead",
          "transactionHash": "0xcdcb67e5454536416fb21ed059381d57ead1bdb0009de2e87668e2f84664bcfc",
          "transactionIndex": "0x8",
          "logIndex": "0x17",
          "removed": false
        },
        {
          "address": "0x765de816845861e75a25fca122bb6898b8b1282a",
          "topics": [
            "0xddf252ad1be2c89b69c2b068fc378daa952ba7f163c4a11628f55a4df523b3ef",
            "0x000000000000000000000000be729350f8cdfc19db6866e8579841188ee57f67",
            "0x000000000000000000000000777a8255ca72412f0d706dc03c9d1987306b4cad"
          ],
          "data": "0x000000000000000000000000000000000000000000000000006a94d74f430000",
          "blockHash": "0x063488aa3b14a84be9657ea159a699ed31be5d2e663e68482e16fcffa9211d1d",
          "blockNumber": "0x20a0ead",
          "transactionHash": "0xcdcb67e5454536416fb21ed059381d57ead1bdb0009de2e87668e2f84664bcfc",
          "transactionIndex": "0x8",
          "logIndex": "0x18",
          "removed": false
        },
        {
          "address": "0x765de816845861e75a25fca122bb6898b8b1282a",
          "topics": [
            "0xddf252ad1be2c89b69c2b068fc378daa952ba7f163c4a11628f55a4df523b3ef",
            "0x000000000000000000000000777a8255ca72412f0d706dc03c9d1987306b4cad",
            "0x0000000000000000000000000000000000000000000000000000000000000000"
          ],
          "data": "0x000000000000000000000000000000000000000000000000006a94d74f430000",
          "blockHash": "0x063488aa3b14a84be9657ea159a699ed31be5d2e663e68482e16fcffa9211d1d",
          "blockNumber": "0x20a0ead",
          "transactionHash": "0xcdcb67e5454536416fb21ed059381d57ead1bdb0009de2e87668e2f84664bcfc",
          "transactionIndex": "0x8",
          "logIndex": "0x19",
          "removed": false
        },
        {
          "address": "0xceba9300f2b948710d2653dd7b07f33a8b32118c",
          "topics": [
            "0xddf252ad1be2c89b69c2b068fc378daa952ba7f163c4a11628f55a4df523b3ef",
            "0x0000000000000000000000009380fa34fd9e4fd14c06305fd7b6199089ed4eb9",
            "0x000000000000000000000000be729350f8cdfc19db6866e8579841188ee57f67"
          ],
          "data": "0x0000000000000000000000000000000000000000000000000000000000007530",
          "blockHash": "0x063488aa3b14a84be9657ea159a699ed31be5d2e663e68482e16fcffa9211d1d",
          "blockNumber": "0x20a0ead",
          "transactionHash": "0xcdcb67e5454536416fb21ed059381d57ead1bdb0009de2e87668e2f84664bcfc",
          "transactionIndex": "0x8",
          "logIndex": "0x1a",
          "removed": false
        },
        {
          "address": "0x9380fa34fd9e4fd14c06305fd7b6199089ed4eb9",
          "topics": [
            "0xc171b15fb47a5beb3e11b1951d4518544f699edd6acd893d8695c91703922b60",
            "0x000000000000000000000000777a8255ca72412f0d706dc03c9d1987306b4cad",
            "0x000000000000000000000000be729350f8cdfc19db6866e8579841188ee57f67"
          ],
          "data": "0x0000000000000000000000000000000000000000000000000000000000007530000000000000000000000000ceba9300f2b948710d2653dd7b07f33a8b32118c",
          "blockHash": "0x063488aa3b14a84be9657ea159a699ed31be5d2e663e68482e16fcffa9211d1d",
          "blockNumber": "0x20a0ead",
          "transactionHash": "0xcdcb67e5454536416fb21ed059381d57ead1bdb0009de2e87668e2f84664bcfc",
          "transactionIndex": "0x8",
          "logIndex": "0x1b",
          "removed": false
        },
        {
          "address": "0x777a8255ca72412f0d706dc03c9d1987306b4cad",
          "topics": [
            "0xe7b046415cac9de47940c3087e06db13a0e058ccf53ac5f0edd49ebb4c2c3a6f",
            "0xacc988382b66ee5456086643dcfd9a5ca43dd8f428f6ef22503d8b8013bcffd7",
            "0x000000000000000000000000be729350f8cdfc19db6866e8579841188ee57f67",
            "0x000000000000000000000000765de816845861e75a25fca122bb6898b8b1282a"
          ],
          "data": "0x00000000000000000000000022d9db95e6ae61c104a7b6f6c78d7993b94ec901000000000000000000000000ceba9300f2b948710d2653dd7b07f33a8b32118c000000000000000000000000000000000000000000000000006a94d74f4300000000000000000000000000000000000000000000000000000000000000007530",
          "blockHash": "0x063488aa3b14a84be9657ea159a699ed31be5d2e663e68482e16fcffa9211d1d",
          "blockNumber": "0x20a0ead",
          "transactionHash": "0xcdcb67e5454536416fb21ed059381d57ead1bdb0009de2e87668e2f84664bcfc",
          "transactionIndex": "0x8",
          "logIndex": "0x1c",
          "removed": false
        },
        {
          "address": "0xceba9300f2b948710d2653dd7b07f33a8b32118c",
          "topics": [
            "0x8c5be1e5ebec7d5bd14f71427d1e84f3dd0314c0f7b2291e5b200ac8c7c3b925",
            "0x000000000000000000000000be729350f8cdfc19db6866e8579841188ee57f67",
            "0x000000000000000000000000777a8255ca72412f0d706dc03c9d1987306b4cad"
          ],
          "data": "0x0000000000000000000000000000000000000000000000000000000000007530",
          "blockHash": "0x063488aa3b14a84be9657ea159a699ed31be5d2e663e68482e16fcffa9211d1d",
          "blockNumber": "0x20a0ead",
          "transactionHash": "0xcdcb67e5454536416fb21ed059381d57ead1bdb0009de2e87668e2f84664bcfc",
          "transactionIndex": "0x8",
          "logIndex": "0x1d",
          "removed": false
        },
        {
          "address": "0x22d9db95e6ae61c104a7b6f6c78d7993b94ec901",
          "topics": [
            "0x949f5db193cbfa01f2d443b1c656bfede15497de0d86838cea089bd60c438342",
            "0xe8693b17c0f002f6a2fe839525557cef10dfeacef9e16c9bbdcb01c57933ce58"
          ],
          "data": "0x000000000000000000000000000000000000000000017d2a320dd745550000000000000000000000000000000000000000000000000042efa3f7a51fa3f86d13",
          "blockHash": "0x063488aa3b14a84be9657ea159a699ed31be5d2e663e68482e16fcffa9211d1d",
          "blockNumber": "0x20a0ead",
          "transactionHash": "0xcdcb67e5454536416fb21ed059381d57ead1bdb0009de2e87668e2f84664bcfc",
          "transactionIndex": "0x8",
          "logIndex": "0x1e",
          "removed": false
        },
        {
          "address": "0xceba9300f2b948710d2653dd7b07f33a8b32118c",
          "topics": [
            "0xddf252ad1be2c89b69c2b068fc378daa952ba7f163c4a11628f55a4df523b3ef",
            "0x000000000000000000000000be729350f8cdfc19db6866e8579841188ee57f67",
            "0x0000000000000000000000009380fa34fd9e4fd14c06305fd7b6199089ed4eb9"
          ],
          "data": "0x0000000000000000000000000000000000000000000000000000000000007530",
          "blockHash": "0x063488aa3b14a84be9657ea159a699ed31be5d2e663e68482e16fcffa9211d1d",
          "blockNumber": "0x20a0ead",
          "transactionHash": "0xcdcb67e5454536416fb21ed059381d57ead1bdb0009de2e87668e2f84664bcfc",
          "transactionIndex": "0x8",
          "logIndex": "0x1f",
          "removed": false
        },
        {
          "address": "0xe8537a3d056da446677b9e9d6c5db704eaab4787",
          "topics": [
            "0xddf252ad1be2c89b69c2b068fc378daa952ba7f163c4a11628f55a4df523b3ef",
            "0x0000000000000000000000000000000000000000000000000000000000000000",
            "0x000000000000000000000000be729350f8cdfc19db6866e8579841188ee57f67"
          ],
          "data": "0x000000000000000000000000000000000000000000000000025d67f78cb5da0a",
          "blockHash": "0x063488aa3b14a84be9657ea159a699ed31be5d2e663e68482e16fcffa9211d1d",
          "blockNumber": "0x20a0ead",
          "transactionHash": "0xcdcb67e5454536416fb21ed059381d57ead1bdb0009de2e87668e2f84664bcfc",
          "transactionIndex": "0x8",
          "logIndex": "0x20",
          "removed": false
        },
        {
          "address": "0x777a8255ca72412f0d706dc03c9d1987306b4cad",
          "topics": [
            "0xe7b046415cac9de47940c3087e06db13a0e058ccf53ac5f0edd49ebb4c2c3a6f",
            "0xe8693b17c0f002f6a2fe839525557cef10dfeacef9e16c9bbdcb01c57933ce58",
            "0x000000000000000000000000be729350f8cdfc19db6866e8579841188ee57f67",
            "0x000000000000000000000000ceba9300f2b948710d2653dd7b07f33a8b32118c"
          ],
          "data": "0x00000000000000000000000022d9db95e6ae61c104a7b6f6c78d7993b94ec901000000000000000000000000e8537a3d056da446677b9e9d6c5db704eaab47870000000000000000000000000000000000000000000000000000000000007530000000000000000000000000000000000000000000000000025d67f78cb5da0a",
          "blockHash": "0x063488aa3b14a84be9657ea159a699ed31be5d2e663e68482e16fcffa9211d1d",
          "blockNumber": "0x20a0ead",
          "transactionHash": "0xcdcb67e5454536416fb21ed059381d57ead1bdb0009de2e87668e2f84664bcfc",
          "transactionIndex": "0x8",
          "logIndex": "0x21",
          "removed": false
        },
        {
          "address": "0xe8537a3d056da446677b9e9d6c5db704eaab4787",
          "topics": [
            "0xddf252ad1be2c89b69c2b068fc378daa952ba7f163c4a11628f55a4df523b3ef",
            "0x000000000000000000000000be729350f8cdfc19db6866e8579841188ee57f67",
            "0x00000000000000000000000096cfa0e76bd15d99a1230ca3955be5e677b746a6"
          ],
          "data": "0x000000000000000000000000000000000000000000000000025d67f78cb5da0a",
          "blockHash": "0x063488aa3b14a84be9657ea159a699ed31be5d2e663e68482e16fcffa9211d1d",
          "blockNumber": "0x20a0ead",
          "transactionHash": "0xcdcb67e5454536416fb21ed059381d57ead1bdb0009de2e87668e2f84664bcfc",
          "transactionIndex": "0x8",
          "logIndex": "0x22",
          "removed": false
        },
        {
          "address": "0xe8537a3d056da446677b9e9d6c5db704eaab4787",
          "topics": [
            "0xddf252ad1be2c89b69c2b068fc378daa952ba7f163c4a11628f55a4df523b3ef",
            "0x00000000000000000000000096cfa0e76bd15d99a1230ca3955be5e677b746a6",
            "0x0000000000000000000000008a0d290b2ee35efde47810ca8ff057e109e4190b"
          ],
          "data": "0x000000000000000000000000000000000000000000000000025d67f78cb5da0a",
          "blockHash": "0x063488aa3b14a84be9657ea159a699ed31be5d2e663e68482e16fcffa9211d1d",
          "blockNumber": "0x20a0ead",
          "transactionHash": "0xcdcb67e5454536416fb21ed059381d57ead1bdb0009de2e87668e2f84664bcfc",
          "transactionIndex": "0x8",
          "logIndex": "0x23",
          "removed": false
        },
        {
          "address": "0x96cfa0e76bd15d99a1230ca3955be5e677b746a6",
          "topics": [
            "0x8369debc964748136513ed9e8988cfc4f2089cc7460071ef445ec215cedb1946",
            "0x0000000000000000000000000000000000000000000000000000000000000006"
          ],
          "data": "0x0000000000000000000000008a0d290b2ee35efde47810ca8ff057e109e4190b000000000000000000000000000000000000000000000000006a94d74f430000000000000000000000000000765de816845861e75a25fca122bb6898b8b1282a",
          "blockHash": "0x063488aa3b14a84be9657ea159a699ed31be5d2e663e68482e16fcffa9211d1d",
          "blockNumber": "0x20a0ead",
          "transactionHash": "0xcdcb67e5454536416fb21ed059381d57ead1bdb0009de2e87668e2f84664bcfc",
          "transactionIndex": "0x8",
          "logIndex": "0x24",
          "removed": false
        }
      ],
      "logsBloom": "0x00801000000000000200100000000000000000008000000000000000000000000080080000000020040480002000000000000000000400000000000000200000000000002000000000000048000000010000800000000000000000000000000000008080c20100000000000020000c00000800000000800000000410002000000008000400200010401000003000000000000000000000000800000000000000020001000000000100000000000000000010000000000000000044080004880002080002000000000000020000000000002800040400000004000000000020000010000080004010000c40000010000000000000000000100000000000400000",
      "type": "0x0",
      "transactionHash": "0xcdcb67e5454536416fb21ed059381d57ead1bdb0009de2e87668e2f84664bcfc",
      "transactionIndex": "0x8",
      "blockHash": "0x063488aa3b14a84be9657ea159a699ed31be5d2e663e68482e16fcffa9211d1d",
      "blockNumber": "0x20a0ead",
      "gasUsed": "0x986fc",
      "effectiveGasPrice": "0x5d22cfc40",
      "from": "0x8a0d290b2ee35efde47810ca8ff057e109e4190b",
      "to": "0x96cfa0e76bd15d99a1230ca3955be5e677b746a6",
      "contractAddress": null,
      "l1BaseFeeScalar": "0x0",
      "l1BlobBaseFee": "0xde7b1c5a8",
      "l1BlobBaseFeeScalar": "0x0",
      "l1Fee": "0x0",
      "l1GasPrice": "0x7d4142e8",
      "l1GasUsed": "0x640"
    }
  ],
  "libraries": [],
  "pending": [],
  "returns": {},
  "timestamp": 1746114308,
  "chain": 42220,
  "commit": "eee9e0b"
}