{
  "transactions": [
    {
      "hash": "0x45ba0d6ba882f21433442d77aa4d3e68004ed5a8eb260b6c258d91e8d55a9c49",
      "transactionType": "CALL",
      "contractName": null,
      "contractAddress": "0xcb2ff701161c9bc4a1d922077648b6d8f7f0800a",
      "function": "createEvent(string,address,uint256,string)",
      "arguments": [
        "Brazilamazontreckhotel",
        "0xe8537a3d056DA446677B9E9d6c5dB704EaAb4787",
        "30000000000000000",
        "ipfs://bafkreiaijjzijufrqbsxbgtrssvtacjzkclrzsmbysd5zxd6qqdb4rzcye"
      ],
      "transaction": {
        "from": "0x8a0d290b2ee35efde47810ca8ff057e109e4190b",
        "to": "0xcb2ff701161c9bc4a1d922077648b6d8f7f0800a",
        "gas": "0x4e9ed",
        "value": "0x0",
        "input": "0xb65d05ac0000000000000000000000000000000000000000000000000000000000000080000000000000000000000000e8537a3d056da446677b9e9d6c5db704eaab4787000000000000000000000000000000000000000000000000006a94d74f43000000000000000000000000000000000000000000000000000000000000000000c000000000000000000000000000000000000000000000000000000000000000164272617a696c616d617a6f6e747265636b686f74656c000000000000000000000000000000000000000000000000000000000000000000000000000000000042697066733a2f2f6261666b72656961696a6a7a696a75667271627378626774727373767461636a7a6b636c727a736d62797364357a7864367171646234727a637965000000000000000000000000000000000000000000000000000000000000",
        "nonce": "0x36",
        "chainId": "0xa4ec"
      },
      "additionalContracts": [],
      "isFixedGasLimit": false
    },
    {
      "hash": "0x0740dda27b13f956bceb85ebdeeea06970d2ffdfbc4ad12c533997052d0467e0",
      "transactionType": "CALL",
      "contractName": null,
      "contractAddress": "0xd8763cba276a3738e6de85b4b3bf5fded6d6ca73",
      "function": "approve(address,uint256)",
      "arguments": [
        "0xcb2fF701161c9BC4A1D922077648B6D8F7f0800A",
        "115792089237316195423570985008687907853269984665640564039457584007913129639935"
      ],
      "transaction": {
        "from": "0x8a0d290b2ee35efde47810ca8ff057e109e4190b",
        "to": "0xd8763cba276a3738e6de85b4b3bf5fded6d6ca73",
        "gas": "0x116e9",
        "value": "0x0",
        "input": "0x095ea7b3000000000000000000000000cb2ff701161c9bc4a1d922077648b6d8f7f0800affffffffffffffffffffffffffffffffffffffffffffffffffffffffffffffff",
        "nonce": "0x37",
        "chainId": "0xa4ec"
      },
      "additionalContracts": [],
      "isFixedGasLimit": false
    },
    {
      "hash": "0x20439dd229fdd439892feb16af61e6a94354342751437458836e03d63fb2a27a",
      "transactionType": "CALL",
      "contractName": null,
      "contractAddress": "0xcb2ff701161c9bc4a1d922077648b6d8f7f0800a",
      "function": "buyTicket(uint256,uint256,address)",
      "arguments": [
        "1",
        "1",
        "0xD8763CBa276a3738E6DE85b4b3bF5FDed6D6cA73"
      ],
      "transaction": {
        "from": "0x8a0d290b2ee35efde47810ca8ff057e109e4190b",
        "to": "0xcb2ff701161c9bc4a1d922077648b6d8f7f0800a",
        "gas": "0x11bb5f",
        "value": "0x0",
        "input": "0x008e686500000000000000000000000000000000000000000000000000000000000000010000000000000000000000000000000000000000000000000000000000000001000000000000000000000000d8763cba276a3738e6de85b4b3bf5fded6d6ca73",
        "nonce": "0x38",
        "chainId": "0xa4ec"
      },
      "additionalContracts": [],
      "isFixedGasLimit": false
    }
  ],
  "receipts": [
    {
      "status": "0x1",
      "cumulativeGasUsed": "0x1036d9",
      "logs": [
        {
          "address": "0xcb2ff701161c9bc4a1d922077648b6d8f7f0800a",
          "topics": [
            "0xad389ee79ceb9d0e3a1739d75d42c8727ca5946b701beaa8ef2801b04d7d7a57",
            "0x0000000000000000000000000000000000000000000000000000000000000001"
          ],
          "data": "0x00000000000000000000000000000000000000000000000000000000000000600000000000000000000000008a0d290b2ee35efde47810ca8ff057e109e4190b000000000000000000000000000000000000000000000000006a94d74f43000000000000000000000000000000000000000000000000000000000000000000164272617a696c616d617a6f6e747265636b686f74656c00000000000000000000",
          "blockHash": "0xd264cf66bdc43a79ebc5e7d45590697908f61f0b45e02346808cfb41c76104d6",
          "blockNumber": "0x20e273f",
          "transactionHash": "0x45ba0d6ba882f21433442d77aa4d3e68004ed5a8eb260b6c258d91e8d55a9c49",
          "transactionIndex": "0x6",
          "logIndex": "0x14",
          "removed": false
        }
      ],
      "logsBloom": "0x00000000000000000000000000000000000000000000000000000000000000000000000000000000000000004000000000000000000000000000000000040000010000000000000000000000000000000000000000040000000000000000000000000000000000000000100000000000000000000000000000000000000000000000000000000000000080000000000000000000000000000000000000000000000000040000000000000000000000000000000200000000000000000000000000000000000000000000000000000000000000000000000000000000000040000000000000000000000000000000000000000000000000000000000000000000",
      "type": "0x0",
      "transactionHash": "0x45ba0d6ba882f21433442d77aa4d3e68004ed5a8eb260b6c258d91e8d55a9c49",
      "transactionIndex": "0x6",
      "blockHash": "0xd264cf66bdc43a79ebc5e7d45590697908f61f0b45e02346808cfb41c76104d6",
      "blockNumber": "0x20e273f",
      "gasUsed": "0x38eb8",
      "effectiveGasPrice": "0x5d22cfc40",
      "from": "0x8a0d290b2ee35efde47810ca8ff057e109e4190b",
      "to": "0xcb2ff701161c9bc4a1d922077648b6d8f7f0800a",
      "contractAddress": null,
      "l1BaseFeeScalar": "0x0",
      "l1BlobBaseFee": "0x25749808",
      "l1BlobBaseFeeScalar": "0x0",
      "l1Fee": "0x0",
      "l1GasPrice": "0x2366f94b",
      "l1GasUsed": "0xbd1"
    },
    {
      "status": "0x1",
      "cumulativeGasUsed": "0x1343d4",
      "logs": [
        {
          "address": "0xd8763cba276a3738e6de85b4b3bf5fded6d6ca73",
          "topics": [
            "0x8c5be1e5ebec7d5bd14f71427d1e84f3dd0314c0f7b2291e5b200ac8c7c3b925",
            "0x0000000000000000000000008a0d290b2ee35efde47810ca8ff057e109e4190b",
            "0x000000000000000000000000cb2ff701161c9bc4a1d922077648b6d8f7f0800a"
          ],
          "data": "0xffffffffffffffffffffffffffffffffffffffffffffffffffffffffffffffff",
          "blockHash": "0xd264cf66bdc43a79ebc5e7d45590697908f61f0b45e02346808cfb41c76104d6",
          "blockNumber": "0x20e273f",
          "transactionHash": "0x0740dda27b13f956bceb85ebdeeea06970d2ffdfbc4ad12c533997052d0467e0",
          "transactionIndex": "0xa",
          "logIndex": "0x19",
          "removed": false
        }
      ],
      "logsBloom": "0x00000000000000000000000000000000000000000000000000000000000000000000000000000000040020000000000000000000000000000000000400200010020000000000000000000000000000000000000000000000000000000000000000000000000100000000000000000000000000000000000000000000000000000000000000000000000000000000000000000000000000000000000000000000020000000000000000000000000000000000000000000000000000000000000000000000000000000000000000000000000000000400000000000000000000000010000000000000000000000000000000000000004000400000000000000000",
      "type": "0x0",
      "transactionHash": "0x0740dda27b13f956bceb85ebdeeea06970d2ffdfbc4ad12c533997052d0467e0",
      "transactionIndex": "0xa",
      "blockHash": "0xd264cf66bdc43a79ebc5e7d45590697908f61f0b45e02346808cfb41c76104d6",
      "blockNumber": "0x20e273f",
      "gasUsed": "0xc9ee",
      "effectiveGasPrice": "0x5d22cfc40",
      "from": "0x8a0d290b2ee35efde47810ca8ff057e109e4190b",
      "to": "0xd8763cba276a3738e6de85b4b3bf5fded6d6ca73",
      "contractAddress": null,
      "l1BaseFeeScalar": "0x0",
      "l1BlobBaseFee": "0x25749808",
      "l1BlobBaseFeeScalar": "0x0",
      "l1Fee": "0x0",
      "l1GasPrice": "0x2366f94b",
      "l1GasUsed": "0x640"
    },
    {
      "status": "0x1",
      "cumulativeGasUsed": "0x201a41",
      "logs": [
        {
          "address": "0xd8763cba276a3738e6de85b4b3bf5fded6d6ca73",
          "topics": [
            "0xddf252ad1be2c89b69c2b068fc378daa952ba7f163c4a11628f55a4df523b3ef",
            "0x0000000000000000000000008a0d290b2ee35efde47810ca8ff057e109e4190b",
            "0x000000000000000000000000cb2ff701161c9bc4a1d922077648b6d8f7f0800a"
          ],
          "data": "0x000000000000000000000000000000000000000000000000006a94d74f430000",
          "blockHash": "0xd264cf66bdc43a79ebc5e7d45590697908f61f0b45e02346808cfb41c76104d6",
          "blockNumber": "0x20e273f",
          "transactionHash": "0x20439dd229fdd439892feb16af61e6a94354342751437458836e03d63fb2a27a",
          "transactionIndex": "0xb",
          "logIndex": "0x1a",
          "removed": false
        },
        {
          "address": "0xd8763cba276a3738e6de85b4b3bf5fded6d6ca73",
          "topics": [
            "0x8c5be1e5ebec7d5bd14f71427d1e84f3dd0314c0f7b2291e5b200ac8c7c3b925",
            "0x000000000000000000000000cb2ff701161c9bc4a1d922077648b6d8f7f0800a",
            "0x000000000000000000000000be729350f8cdfc19db6866e8579841188ee57f67"
          ],
          "data": "0x000000000000000000000000000000000000000000000000006a94d74f430000",
          "blockHash": "0xd264cf66bdc43a79ebc5e7d45590697908f61f0b45e02346808cfb41c76104d6",
          "blockNumber": "0x20e273f",
          "transactionHash": "0x20439dd229fdd439892feb16af61e6a94354342751437458836e03d63fb2a27a",
          "transactionIndex": "0xb",
          "logIndex": "0x1b",
          "removed": false
        },
        {
          "address": "0xd8763cba276a3738e6de85b4b3bf5fded6d6ca73",
          "topics": [
            "0x8c5be1e5ebec7d5bd14f71427d1e84f3dd0314c0f7b2291e5b200ac8c7c3b925",
            "0x000000000000000000000000cb2ff701161c9bc4a1d922077648b6d8f7f0800a",
            "0x000000000000000000000000be729350f8cdfc19db6866e8579841188ee57f67"
          ],
          "data": "0x0000000000000000000000000000000000000000000000000000000000000000",
          "blockHash": "0xd264cf66bdc43a79ebc5e7d45590697908f61f0b45e02346808cfb41c76104d6",
          "blockNumber": "0x20e273f",
          "transactionHash": "0x20439dd229fdd439892feb16af61e6a94354342751437458836e03d63fb2a27a",
          "transactionIndex": "0xb",
          "logIndex": "0x1c",
          "removed": false
        },
        {
          "address": "0xd8763cba276a3738e6de85b4b3bf5fded6d6ca73",
          "topics": [
            "0xddf252ad1be2c89b69c2b068fc378daa952ba7f163c4a11628f55a4df523b3ef",
            "0x000000000000000000000000cb2ff701161c9bc4a1d922077648b6d8f7f0800a",
            "0x000000000000000000000000be729350f8cdfc19db6866e8579841188ee57f67"
          ],
          "data": "0x000000000000000000000000000000000000000000000000006a94d74f430000",
          "blockHash": "0xd264cf66bdc43a79ebc5e7d45590697908f61f0b45e02346808cfb41c76104d6",
          "blockNumber": "0x20e273f",
          "transactionHash": "0x20439dd229fdd439892feb16af61e6a94354342751437458836e03d63fb2a27a",
          "transactionIndex": "0xb",
          "logIndex": "0x1d",
          "removed": false
        },
        {
          "address": "0xd8763cba276a3738e6de85b4b3bf5fded6d6ca73",
          "topics": [
            "0x8c5be1e5ebec7d5bd14f71427d1e84f3dd0314c0f7b2291e5b200ac8c7c3b925",
            "0x000000000000000000000000be729350f8cdfc19db6866e8579841188ee57f67",
            "0x000000000000000000000000777a8255ca72412f0d706dc03c9d1987306b4cad"
          ],
          "data": "0x000000000000000000000000000000000000000000000000006a94d74f430000",
          "blockHash": "0xd264cf66bdc43a79ebc5e7d45590697908f61f0b45e02346808cfb41c76104d6",
          "blockNumber": "0x20e273f",
          "transactionHash": "0x20439dd229fdd439892feb16af61e6a94354342751437458836e03d63fb2a27a",
          "transactionIndex": "0xb",
          "logIndex": "0x1e",
          "removed": false
        },
        {
          "address": "0x22d9db95e6ae61c104a7b6f6c78d7993b94ec901",
          "topics": [
            "0x949f5db193cbfa01f2d443b1c656bfede15497de0d86838cea089bd60c438342",
            "0x99be8b8341ba00914600cda701568ab27eea9aca7a32fa48c26e07b86841020c"
          ],
          "data": "0x000000000000000000000000000000000000000000017d2a320dd7455500000000000000000000000000000000000000000000000001ae6b5fcd23c7c375b393",
          "blockHash": "0xd264cf66bdc43a79ebc5e7d45590697908f61f0b45e02346808cfb41c76104d6",
          "blockNumber": "0x20e273f",
          "transactionHash": "0x20439dd229fdd439892feb16af61e6a94354342751437458836e03d63fb2a27a",
          "transactionIndex": "0xb",
          "logIndex": "0x1f",
          "removed": false
        },
        {
          "address": "0xd8763cba276a3738e6de85b4b3bf5fded6d6ca73",
          "topics": [
            "0x8c5be1e5ebec7d5bd14f71427d1e84f3dd0314c0f7b2291e5b200ac8c7c3b925",
            "0x000000000000000000000000be729350f8cdfc19db6866e8579841188ee57f67",
            "0x000000000000000000000000777a8255ca72412f0d706dc03c9d1987306b4cad"
          ],
          "data": "0x0000000000000000000000000000000000000000000000000000000000000000",
          "blockHash": "0xd264cf66bdc43a79ebc5e7d45590697908f61f0b45e02346808cfb41c76104d6",
          "blockNumber": "0x20e273f",
          "transactionHash": "0x20439dd229fdd439892feb16af61e6a94354342751437458836e03d63fb2a27a",
          "transactionIndex": "0xb",
          "logIndex": "0x20",
          "removed": false
        },
        {
          "address": "0xd8763cba276a3738e6de85b4b3bf5fded6d6ca73",
          "topics": [
            "0xddf252ad1be2c89b69c2b068fc378daa952ba7f163c4a11628f55a4df523b3ef",
            "0x000000000000000000000000be729350f8cdfc19db6866e8579841188ee57f67",
            "0x000000000000000000000000777a8255ca72412f0d706dc03c9d1987306b4cad"
          ],
          "data": "0x000000000000000000000000000000000000000000000000006a94d74f430000",
          "blockHash": "0xd264cf66bdc43a79ebc5e7d45590697908f61f0b45e02346808cfb41c76104d6",
          "blockNumber": "0x20e273f",
          "transactionHash": "0x20439dd229fdd439892feb16af61e6a94354342751437458836e03d63fb2a27a",
          "transactionIndex": "0xb",
          "logIndex": "0x21",
          "removed": false
        },
        {
          "address": "0xd8763cba276a3738e6de85b4b3bf5fded6d6ca73",
          "topics": [
            "0xddf252ad1be2c89b69c2b068fc378daa952ba7f163c4a11628f55a4df523b3ef",
            "0x000000000000000000000000777a8255ca72412f0d706dc03c9d1987306b4cad",
            "0x0000000000000000000000000000000000000000000000000000000000000000"
          ],
          "data": "0x000000000000000000000000000000000000000000000000006a94d74f430000",
          "blockHash": "0xd264cf66bdc43a79ebc5e7d45590697908f61f0b45e02346808cfb41c76104d6",
          "blockNumber": "0x20e273f",
          "transactionHash": "0x20439dd229fdd439892feb16af61e6a94354342751437458836e03d63fb2a27a",
          "transactionIndex": "0xb",
          "logIndex": "0x22",
          "removed": false
        },
        {
          "address": "0xceba9300f2b948710d2653dd7b07f33a8b32118c",
          "topics": [
            "0xddf252ad1be2c89b69c2b068fc378daa952ba7f163c4a11628f55a4df523b3ef",
            "0x0000000000000000000000009380fa34fd9e4fd14c06305fd7b6199089ed4eb9",
            "0x000000000000000000000000be729350f8cdfc19db6866e8579841188ee57f67"
          ],
          "data": "0x00000000000000000000000000000000000000000000000000000000000083ff",
          "blockHash": "0xd264cf66bdc43a79ebc5e7d45590697908f61f0b45e02346808cfb41c76104d6",
          "blockNumber": "0x20e273f",
          "transactionHash": "0x20439dd229fdd439892feb16af61e6a94354342751437458836e03d63fb2a27a",
          "transactionIndex": "0xb",
          "logIndex": "0x23",
          "removed": false
        },
        {
          "address": "0x9380fa34fd9e4fd14c06305fd7b6199089ed4eb9",
          "topics": [
            "0xc171b15fb47a5beb3e11b1951d4518544f699edd6acd893d8695c91703922b60",
            "0x000000000000000000000000777a8255ca72412f0d706dc03c9d1987306b4cad",
            "0x000000000000000000000000be729350f8cdfc19db6866e8579841188ee57f67"
          ],
          "data": "0x00000000000000000000000000000000000000000000000000000000000083ff000000000000000000000000ceba9300f2b948710d2653dd7b07f33a8b32118c",
          "blockHash": "0xd264cf66bdc43a79ebc5e7d45590697908f61f0b45e02346808cfb41c76104d6",
          "blockNumber": "0x20e273f",
          "transactionHash": "0x20439dd229fdd439892feb16af61e6a94354342751437458836e03d63fb2a27a",
          "transactionIndex": "0xb",
          "logIndex": "0x24",
          "removed": false
        },
        {
          "address": "0x777a8255ca72412f0d706dc03c9d1987306b4cad",
          "topics": [
            "0xe7b046415cac9de47940c3087e06db13a0e058ccf53ac5f0edd49ebb4c2c3a6f",
            "0x99be8b8341ba00914600cda701568ab27eea9aca7a32fa48c26e07b86841020c",
            "0x000000000000000000000000be729350f8cdfc19db6866e8579841188ee57f67",
            "0x000000000000000000000000d8763cba276a3738e6de85b4b3bf5fded6d6ca73"
          ],
          "data": "0x00000000000000000000000022d9db95e6ae61c104a7b6f6c78d7993b94ec901000000000000000000000000ceba9300f2b948710d2653dd7b07f33a8b32118c000000000000000000000000000000000000000000000000006a94d74f43000000000000000000000000000000000000000000000000000000000000000083ff",
          "blockHash": "0xd264cf66bdc43a79ebc5e7d45590697908f61f0b45e02346808cfb41c76104d6",
          "blockNumber": "0x20e273f",
          "transactionHash": "0x20439dd229fdd439892feb16af61e6a94354342751437458836e03d63fb2a27a",
          "transactionIndex": "0xb",
          "logIndex": "0x25",
          "removed": false
        },
        {
          "address": "0xceba9300f2b948710d2653dd7b07f33a8b32118c",
          "topics": [
            "0x8c5be1e5ebec7d5bd14f71427d1e84f3dd0314c0f7b2291e5b200ac8c7c3b925",
            "0x000000000000000000000000be729350f8cdfc19db6866e8579841188ee57f67",
            "0x000000000000000000000000777a8255ca72412f0d706dc03c9d1987306b4cad"
          ],
          "data": "0x00000000000000000000000000000000000000000000000000000000000083ff",
          "blockHash": "0xd264cf66bdc43a79ebc5e7d45590697908f61f0b45e02346808cfb41c76104d6",
          "blockNumber": "0x20e273f",
          "transactionHash": "0x20439dd229fdd439892feb16af61e6a94354342751437458836e03d63fb2a27a",
          "transactionIndex": "0xb",
          "logIndex": "0x26",
          "removed": false
        },
        {
          "address": "0x22d9db95e6ae61c104a7b6f6c78d7993b94ec901",
          "topics": [
            "0x949f5db193cbfa01f2d443b1c656bfede15497de0d86838cea089bd60c438342",
            "0xe8693b17c0f002f6a2fe839525557cef10dfeacef9e16c9bbdcb01c57933ce58"
          ],
          "data": "0x000000000000000000000000000000000000000000017d2a320dd745550000000000000000000000000000000000000000000000000042e456a3da9a876107ed",
          "blockHash": "0xd264cf66bdc43a79ebc5e7d45590697908f61f0b45e02346808cfb41c76104d6",
          "blockNumber": "0x20e273f",
          "transactionHash": "0x20439dd229fdd439892feb16af61e6a94354342751437458836e03d63fb2a27a",
          "transactionIndex": "0xb",
          "logIndex": "0x27",
          "removed": false
        },
        {
          "address": "0xceba9300f2b948710d2653dd7b07f33a8b32118c",
          "topics": [
            "0xddf252ad1be2c89b69c2b068fc378daa952ba7f163c4a11628f55a4df523b3ef",
            "0x000000000000000000000000be729350f8cdfc19db6866e8579841188ee57f67",
            "0x0000000000000000000000009380fa34fd9e4fd14c06305fd7b6199089ed4eb9"
          ],
          "data": "0x00000000000000000000000000000000000000000000000000000000000083ff",
          "blockHash": "0xd264cf66bdc43a79ebc5e7d45590697908f61f0b45e02346808cfb41c76104d6",
          "blockNumber": "0x20e273f",
          "transactionHash": "0x20439dd229fdd439892feb16af61e6a94354342751437458836e03d63fb2a27a",
          "transactionIndex": "0xb",
          "logIndex": "0x28",
          "removed": false
        },
        {
          "address": "0xe8537a3d056da446677b9e9d6c5db704eaab4787",
          "topics": [
            "0xddf252ad1be2c89b69c2b068fc378daa952ba7f163c4a11628f55a4df523b3ef",
            "0x0000000000000000000000000000000000000000000000000000000000000000",
            "0x000000000000000000000000be729350f8cdfc19db6866e8579841188ee57f67"
          ],
          "data": "0x00000000000000000000000000000000000000000000000002aa5bfd591acc86",
          "blockHash": "0xd264cf66bdc43a79ebc5e7d45590697908f61f0b45e02346808cfb41c76104d6",
          "blockNumber": "0x20e273f",
          "transactionHash": "0x20439dd229fdd439892feb16af61e6a94354342751437458836e03d63fb2a27a",
          "transactionIndex": "0xb",
          "logIndex": "0x29",
          "removed": false
        },
        {
          "address": "0x777a8255ca72412f0d706dc03c9d1987306b4cad",
          "topics": [
            "0xe7b046415cac9de47940c3087e06db13a0e058ccf53ac5f0edd49ebb4c2c3a6f",
            "0xe8693b17c0f002f6a2fe839525557cef10dfeacef9e16c9bbdcb01c57933ce58",
            "0x000000000000000000000000be729350f8cdfc19db6866e8579841188ee57f67",
            "0x000000000000000000000000ceba9300f2b948710d2653dd7b07f33a8b32118c"
          ],
          "data": "0x00000000000000000000000022d9db95e6ae61c104a7b6f6c78d7993b94ec901000000000000000000000000e8537a3d056da446677b9e9d6c5db704eaab478700000000000000000000000000000000000000000000000000000000000083ff00000000000000000000000000000000000000000000000002aa5bfd591acc86",
          "blockHash": "0xd264cf66bdc43a79ebc5e7d45590697908f61f0b45e02346808cfb41c76104d6",
          "blockNumber": "0x20e273f",
          "transactionHash": "0x20439dd229fdd439892feb16af61e6a94354342751437458836e03d63fb2a27a",
          "transactionIndex": "0xb",
          "logIndex": "0x2a",
          "removed": false
        },
        {
          "address": "0xe8537a3d056da446677b9e9d6c5db704eaab4787",
          "topics": [
            "0xddf252ad1be2c89b69c2b068fc378daa952ba7f163c4a11628f55a4df523b3ef",
            "0x000000000000000000000000be729350f8cdfc19db6866e8579841188ee57f67",
            "0x000000000000000000000000cb2ff701161c9bc4a1d922077648b6d8f7f0800a"
          ],
          "data": "0x00000000000000000000000000000000000000000000000002aa5bfd591acc86",
          "blockHash": "0xd264cf66bdc43a79ebc5e7d45590697908f61f0b45e02346808cfb41c76104d6",
          "blockNumber": "0x20e273f",
          "transactionHash": "0x20439dd229fdd439892feb16af61e6a94354342751437458836e03d63fb2a27a",
          "transactionIndex": "0xb",
          "logIndex": "0x2b",
          "removed": false
        },
        {
          "address": "0xe8537a3d056da446677b9e9d6c5db704eaab4787",
          "topics": [
            "0xddf252ad1be2c89b69c2b068fc378daa952ba7f163c4a11628f55a4df523b3ef",
            "0x000000000000000000000000cb2ff701161c9bc4a1d922077648b6d8f7f0800a",
            "0x0000000000000000000000008a0d290b2ee35efde47810ca8ff057e109e4190b"
          ],
          "data": "0x00000000000000000000000000000000000000000000000002aa5bfd591acc86",
          "blockHash": "0xd264cf66bdc43a79ebc5e7d45590697908f61f0b45e02346808cfb41c76104d6",
          "blockNumber": "0x20e273f",
          "transactionHash": "0x20439dd229fdd439892feb16af61e6a94354342751437458836e03d63fb2a27a",
          "transactionIndex": "0xb",
          "logIndex": "0x2c",
          "removed": false
        },
        {
          "address": "0x51e08ddbec19a26bb374a5807a6b09e6770a7a27",
          "topics": [
            "0xddf252ad1be2c89b69c2b068fc378daa952ba7f163c4a11628f55a4df523b3ef",
            "0x0000000000000000000000000000000000000000000000000000000000000000",
            "0x0000000000000000000000008a0d290b2ee35efde47810ca8ff057e109e4190b",
            "0x0000000000000000000000000000000000000000000000000000000000000001"
          ],
          "data": "0x",
          "blockHash": "0xd264cf66bdc43a79ebc5e7d45590697908f61f0b45e02346808cfb41c76104d6",
          "blockNumber": "0x20e273f",
          "transactionHash": "0x20439dd229fdd439892feb16af61e6a94354342751437458836e03d63fb2a27a",
          "transactionIndex": "0xb",
          "logIndex": "0x2d",
          "removed": false
        },
        {
          "address": "0xcb2ff701161c9bc4a1d922077648b6d8f7f0800a",
          "topics": [
            "0xbf31e73e9419da4a56fe1ca5fde1fe85191f5280d387ea1f10c794c77305bcec",
            "0x0000000000000000000000000000000000000000000000000000000000000001"
          ],
          "data": "0x0000000000000000000000008a0d290b2ee35efde47810ca8ff057e109e4190b0000000000000000000000000000000000000000000000000000000000000001000000000000000000000000d8763cba276a3738e6de85b4b3bf5fded6d6ca73",
          "blockHash": "0xd264cf66bdc43a79ebc5e7d45590697908f61f0b45e02346808cfb41c76104d6",
          "blockNumber": "0x20e273f",
          "transactionHash": "0x20439dd229fdd439892feb16af61e6a94354342751437458836e03d63fb2a27a",
          "transactionIndex": "0xb",
          "logIndex": "0x2e",
          "removed": false
        }
      ],
      "logsBloom": "0x008010000000000002001000000400000000000080000000000000000000000000000000000000000400a0000000000000000000020000000000000400240010030000002000000000000048000000010040802000440000000000000004000000008080020100000000000020000800000800000000000000000010002000000408000000200010400080001000000000000000000000000000000000004000020001000000000000000000000000000000000200000000000044000024880002080002000000000000020000002000000000040400000004000000000060000010000080004010000c00020810000000000000004000500000000000400000",
      "type": "0x0",
      "transactionHash": "0x20439dd229fdd439892feb16af61e6a94354342751437458836e03d63fb2a27a",
      "transactionIndex": "0xb",
      "blockHash": "0xd264cf66bdc43a79ebc5e7d45590697908f61f0b45e02346808cfb41c76104d6",
      "blockNumber": "0x20e273f",
      "gasUsed": "0xcd66d",
      "effectiveGasPrice": "0x5d22cfc40",
      "from": "0x8a0d290b2ee35efde47810ca8ff057e109e4190b",
      "to": "0xcb2ff701161c9bc4a1d922077648b6d8f7f0800a",
      "contractAddress": null,
      "l1BaseFeeScalar": "0x0",
      "l1BlobBaseFee": "0x25749808",
      "l1BlobBaseFeeScalar": "0x0",
      "l1Fee": "0x0",
      "l1GasPrice": "0x2366f94b",
      "l1GasUsed": "0x640"
    }
  ],
  "libraries": [],
  "pending": [],
  "returns": {},
  "timestamp": 1746382741,
  "chain": 42220,
  "commit": "d22355c"
}