{
  "transactions": [
    {
      "hash": "0xf6bbb2338c9eae0bfab8f9a408a0a3180aeeab2b1d204634ed44e588b9583077",
      "transactionType": "CALL",
      "contractName": null,
      "contractAddress": "0xe9980a142d5d3610a4a32693d4325b563dfe6404",
      "function": "listProperty(string,address,uint256,string)",
      "arguments": [
        "Taj Mahal Hotel",
        "0xD8763CBa276a3738E6DE85b4b3bF5FDed6D6cA73",
        "30000000000000000",
        "ipfs://QmTajMahalHotelImage123"
      ],
      "transaction": {
        "from": "0x8a0d290b2ee35efde47810ca8ff057e109e4190b",
        "to": "0xe9980a142d5d3610a4a32693d4325b563dfe6404",
        "gas": "0x380a2",
        "value": "0x0",
        "input": "0x91df597f0000000000000000000000000000000000000000000000000000000000000080000000000000000000000000d8763cba276a3738e6de85b4b3bf5fded6d6ca73000000000000000000000000000000000000000000000000006a94d74f43000000000000000000000000000000000000000000000000000000000000000000c0000000000000000000000000000000000000000000000000000000000000000f54616a204d6168616c20486f74656c0000000000000000000000000000000000000000000000000000000000000000000000000000000000000000000000001e697066733a2f2f516d54616a4d6168616c486f74656c496d6167653132330000",
        "nonce": "0x29",
        "chainId": "0xa4ec"
      },
      "additionalContracts": [],
      "isFixedGasLimit": false
    },
    {
      "hash": "0x40aba036cc266fa8e3d2e272079ede76b64f6cce89153be3bd7780982ee070bc",
      "transactionType": "CALL",
      "contractName": null,
      "contractAddress": "0xe8537a3d056da446677b9e9d6c5db704eaab4787",
      "function": "approve(address,uint256)",
      "arguments": [
        "0xe9980A142D5D3610a4a32693d4325b563DFe6404",
        "115792089237316195423570985008687907853269984665640564039457584007913129639935"
      ],
      "transaction": {
        "from": "0x8a0d290b2ee35efde47810ca8ff057e109e4190b",
        "to": "0xe8537a3d056da446677b9e9d6c5db704eaab4787",
        "gas": "0x116e9",
        "value": "0x0",
        "input": "0x095ea7b3000000000000000000000000e9980a142d5d3610a4a32693d4325b563dfe6404ffffffffffffffffffffffffffffffffffffffffffffffffffffffffffffffff",
        "nonce": "0x2a",
        "chainId": "0xa4ec"
      },
      "additionalContracts": [],
      "isFixedGasLimit": false
    },
    {
      "hash": "0x710299d9f0182bf0e5e73711c708382adfcada4722d49f4131b146d9ed94a9d1",
      "transactionType": "CALL",
      "contractName": null,
      "contractAddress": "0xe9980a142d5d3610a4a32693d4325b563dfe6404",
      "function": "payRent(uint256,uint256,address)",
      "arguments": [
        "1",
        "1",
        "0xe8537a3d056DA446677B9E9d6c5dB704EaAb4787"
      ],
      "transaction": {
        "from": "0x8a0d290b2ee35efde47810ca8ff057e109e4190b",
        "to": "0xe9980a142d5d3610a4a32693d4325b563dfe6404",
        "gas": "0xdbc00",
        "value": "0x0",
        "input": "0x24399b9e00000000000000000000000000000000000000000000000000000000000000010000000000000000000000000000000000000000000000000000000000000001000000000000000000000000e8537a3d056da446677b9e9d6c5db704eaab4787",
        "nonce": "0x2b",
        "chainId": "0xa4ec"
      },
      "additionalContracts": [],
      "isFixedGasLimit": false
    }
  ],
  "receipts": [
    {
      "status": "0x1",
      "cumulativeGasUsed": "0xbef31",
      "logs": [
        {
          "address": "0xe9980a142d5d3610a4a32693d4325b563dfe6404",
          "topics": [
            "0xb18344ef8baa750d3a903211956af26a995a3b8a1ea274bdb9cdb60eaef14da9",
            "0x0000000000000000000000000000000000000000000000000000000000000001"
          ],
          "data": "0x0000000000000000000000008a0d290b2ee35efde47810ca8ff057e109e4190b0000000000000000000000000000000000000000000000000000000000000080000000000000000000000000d8763cba276a3738e6de85b4b3bf5fded6d6ca73000000000000000000000000000000000000000000000000006a94d74f430000000000000000000000000000000000000000000000000000000000000000000f54616a204d6168616c20486f74656c0000000000000000000000000000000000",
          "blockHash": "0x888e8e458f9122937317476ec493a9e863551ff976e31ae12035f3779d55a37f",
          "blockNumber": "0x20a29fc",
          "transactionHash": "0xf6bbb2338c9eae0bfab8f9a408a0a3180aeeab2b1d204634ed44e588b9583077",
          "transactionIndex": "0x5",
          "logIndex": "0xd",
          "removed": false
        }
      ],
      "logsBloom": "0x00000000000000000000000000000000000000000000000000000000000000000000000000000000000000000000000000000000000000000000000000040000000000000000000000000000000000000000000000040000000000000000000000000000080000000000000000000000000000000000000000000000000040000000000000000000000000000000000000000000000000000000000000000000000000000000000000000000000000000000000000000000000000000000000000080000000000000400000000000000000000000000000000000000000040000000000000000000000000000000000000000080000000008000000000000000",
      "type": "0x0",
      "transactionHash": "0xf6bbb2338c9eae0bfab8f9a408a0a3180aeeab2b1d204634ed44e588b9583077",
      "transactionIndex": "0x5",
      "blockHash": "0x888e8e458f9122937317476ec493a9e863551ff976e31ae12035f3779d55a37f",
      "blockNumber": "0x20a29fc",
      "gasUsed": "0x28926",
      "effectiveGasPrice": "0x5d22cfc40",
      "from": "0x8a0d290b2ee35efde47810ca8ff057e109e4190b",
      "to": "0xe9980a142d5d3610a4a32693d4325b563dfe6404",
      "contractAddress": null,
      "l1BaseFeeScalar": "0x0",
      "l1BlobBaseFee": "0x207e6e46b",
      "l1BlobBaseFeeScalar": "0x0",
      "l1Fee": "0x0",
      "l1GasPrice": "0x4eee4f9b",
      "l1GasUsed": "0x90c"
    },
    {
      "status": "0x1",
      "cumulativeGasUsed": "0xcb91f",
      "logs": [
        {
          "address": "0xe8537a3d056da446677b9e9d6c5db704eaab4787",
          "topics": [
            "0x8c5be1e5ebec7d5bd14f71427d1e84f3dd0314c0f7b2291e5b200ac8c7c3b925",
            "0x0000000000000000000000008a0d290b2ee35efde47810ca8ff057e109e4190b",
            "0x000000000000000000000000e9980a142d5d3610a4a32693d4325b563dfe6404"
          ],
          "data": "0xffffffffffffffffffffffffffffffffffffffffffffffffffffffffffffffff",
          "blockHash": "0x888e8e458f9122937317476ec493a9e863551ff976e31ae12035f3779d55a37f",
          "blockNumber": "0x20a29fc",
          "transactionHash": "0x40aba036cc266fa8e3d2e272079ede76b64f6cce89153be3bd7780982ee070bc",
          "transactionIndex": "0x6",
          "logIndex": "0xe",
          "removed": false
        }
      ],
      "logsBloom": "0x00000000000000000000000000000000000000000000000000000000000000000000000000000000040080000000000000000000000000000000000000200000000000000000000000000000000000000000000000000000000000000000000000000000000100010000000000000000000000000000000000000000000000000000000000000000000000000000000000000000000000000000000000000000020000000000000000000000000000000000000000000000000000000000000000000000000000000000000000000000000000000400000000000000001000000010000000000000000000000010000000000010000000000000000000400000",
      "type": "0x0",
      "transactionHash": "0x40aba036cc266fa8e3d2e272079ede76b64f6cce89153be3bd7780982ee070bc",
      "transactionIndex": "0x6",
      "blockHash": "0x888e8e458f9122937317476ec493a9e863551ff976e31ae12035f3779d55a37f",
      "blockNumber": "0x20a29fc",
      "gasUsed": "0xc9ee",
      "effectiveGasPrice": "0x5d22cfc40",
      "from": "0x8a0d290b2ee35efde47810ca8ff057e109e4190b",
      "to": "0xe8537a3d056da446677b9e9d6c5db704eaab4787",
      "contractAddress": null,
      "l1BaseFeeScalar": "0x0",
      "l1BlobBaseFee": "0x207e6e46b",
      "l1BlobBaseFeeScalar": "0x0",
      "l1Fee": "0x0",
      "l1GasPrice": "0x4eee4f9b",
      "l1GasUsed": "0x640"
    },
    {
      "status": "0x1",
      "cumulativeGasUsed": "0x16aaa5",
      "logs": [
        {
          "address": "0xe8537a3d056da446677b9e9d6c5db704eaab4787",
          "topics": [
            "0xddf252ad1be2c89b69c2b068fc378daa952ba7f163c4a11628f55a4df523b3ef",
            "0x0000000000000000000000008a0d290b2ee35efde47810ca8ff057e109e4190b",
            "0x000000000000000000000000e9980a142d5d3610a4a32693d4325b563dfe6404"
          ],
          "data": "0x000000000000000000000000000000000000000000000000006a94d74f430000",
          "blockHash": "0x888e8e458f9122937317476ec493a9e863551ff976e31ae12035f3779d55a37f",
          "blockNumber": "0x20a29fc",
          "transactionHash": "0x710299d9f0182bf0e5e73711c708382adfcada4722d49f4131b146d9ed94a9d1",
          "transactionIndex": "0x7",
          "logIndex": "0xf",
          "removed": false
        },
        {
          "address": "0xe8537a3d056da446677b9e9d6c5db704eaab4787",
          "topics": [
            "0x8c5be1e5ebec7d5bd14f71427d1e84f3dd0314c0f7b2291e5b200ac8c7c3b925",
            "0x000000000000000000000000e9980a142d5d3610a4a32693d4325b563dfe6404",
            "0x000000000000000000000000be729350f8cdfc19db6866e8579841188ee57f67"
          ],
          "data": "0x000000000000000000000000000000000000000000000000006a94d74f430000",
          "blockHash": "0x888e8e458f9122937317476ec493a9e863551ff976e31ae12035f3779d55a37f",
          "blockNumber": "0x20a29fc",
          "transactionHash": "0x710299d9f0182bf0e5e73711c708382adfcada4722d49f4131b146d9ed94a9d1",
          "transactionIndex": "0x7",
          "logIndex": "0x10",
          "removed": false
        },
        {
          "address": "0xe8537a3d056da446677b9e9d6c5db704eaab4787",
          "topics": [
            "0x8c5be1e5ebec7d5bd14f71427d1e84f3dd0314c0f7b2291e5b200ac8c7c3b925",
            "0x000000000000000000000000e9980a142d5d3610a4a32693d4325b563dfe6404",
            "0x000000000000000000000000be729350f8cdfc19db6866e8579841188ee57f67"
          ],
          "data": "0x0000000000000000000000000000000000000000000000000000000000000000",
          "blockHash": "0x888e8e458f9122937317476ec493a9e863551ff976e31ae12035f3779d55a37f",
          "blockNumber": "0x20a29fc",
          "transactionHash": "0x710299d9f0182bf0e5e73711c708382adfcada4722d49f4131b146d9ed94a9d1",
          "transactionIndex": "0x7",
          "logIndex": "0x11",
          "removed": false
        },
        {
          "address": "0xe8537a3d056da446677b9e9d6c5db704eaab4787",
          "topics": [
            "0xddf252ad1be2c89b69c2b068fc378daa952ba7f163c4a11628f55a4df523b3ef",
            "0x000000000000000000000000e9980a142d5d3610a4a32693d4325b563dfe6404",
            "0x000000000000000000000000be729350f8cdfc19db6866e8579841188ee57f67"
          ],
          "data": "0x000000000000000000000000000000000000000000000000006a94d74f430000",
          "blockHash": "0x888e8e458f9122937317476ec493a9e863551ff976e31ae12035f3779d55a37f",
          "blockNumber": "0x20a29fc",
          "transactionHash": "0x710299d9f0182bf0e5e73711c708382adfcada4722d49f4131b146d9ed94a9d1",
          "transactionIndex": "0x7",
          "logIndex": "0x12",
          "removed": false
        },
        {
          "address": "0xe8537a3d056da446677b9e9d6c5db704eaab4787",
          "topics": [
            "0x8c5be1e5ebec7d5bd14f71427d1e84f3dd0314c0f7b2291e5b200ac8c7c3b925",
            "0x000000000000000000000000be729350f8cdfc19db6866e8579841188ee57f67",
            "0x000000000000000000000000777a8255ca72412f0d706dc03c9d1987306b4cad"
          ],
          "data": "0x000000000000000000000000000000000000000000000000006a94d74f430000",
          "blockHash": "0x888e8e458f9122937317476ec493a9e863551ff976e31ae12035f3779d55a37f",
          "blockNumber": "0x20a29fc",
          "transactionHash": "0x710299d9f0182bf0e5e73711c708382adfcada4722d49f4131b146d9ed94a9d1",
          "transactionIndex": "0x7",
          "logIndex": "0x13",
          "removed": false
        },
        {
          "address": "0x22d9db95e6ae61c104a7b6f6c78d7993b94ec901",
          "topics": [
            "0x949f5db193cbfa01f2d443b1c656bfede15497de0d86838cea089bd60c438342",
            "0xe8693b17c0f002f6a2fe839525557cef10dfeacef9e16c9bbdcb01c57933ce58"
          ],
          "data": "0x000000000000000000000000000000000000000000017d2a320dd745550000000000000000000000000000000000000000000000000042dbb9f4d47c4e12cbc8",
          "blockHash": "0x888e8e458f9122937317476ec493a9e863551ff976e31ae12035f3779d55a37f",
          "blockNumber": "0x20a29fc",
          "transactionHash": "0x710299d9f0182bf0e5e73711c708382adfcada4722d49f4131b146d9ed94a9d1",
          "transactionIndex": "0x7",
          "logIndex": "0x14",
          "removed": false
        },
        {
          "address": "0xe8537a3d056da446677b9e9d6c5db704eaab4787",
          "topics": [
            "0x8c5be1e5ebec7d5bd14f71427d1e84f3dd0314c0f7b2291e5b200ac8c7c3b925",
            "0x000000000000000000000000be729350f8cdfc19db6866e8579841188ee57f67",
            "0x000000000000000000000000777a8255ca72412f0d706dc03c9d1987306b4cad"
          ],
          "data": "0x0000000000000000000000000000000000000000000000000000000000000000",
          "blockHash": "0x888e8e458f9122937317476ec493a9e863551ff976e31ae12035f3779d55a37f",
          "blockNumber": "0x20a29fc",
          "transactionHash": "0x710299d9f0182bf0e5e73711c708382adfcada4722d49f4131b146d9ed94a9d1",
          "transactionIndex": "0x7",
          "logIndex": "0x15",
          "removed": false
        },
        {
          "address": "0xe8537a3d056da446677b9e9d6c5db704eaab4787",
          "topics": [
            "0xddf252ad1be2c89b69c2b068fc378daa952ba7f163c4a11628f55a4df523b3ef",
            "0x000000000000000000000000be729350f8cdfc19db6866e8579841188ee57f67",
            "0x000000000000000000000000777a8255ca72412f0d706dc03c9d1987306b4cad"
          ],
          "data": "0x000000000000000000000000000000000000000000000000006a94d74f430000",
          "blockHash": "0x888e8e458f9122937317476ec493a9e863551ff976e31ae12035f3779d55a37f",
          "blockNumber": "0x20a29fc",
          "transactionHash": "0x710299d9f0182bf0e5e73711c708382adfcada4722d49f4131b146d9ed94a9d1",
          "transactionIndex": "0x7",
          "logIndex": "0x16",
          "removed": false
        },
        {
          "address": "0xe8537a3d056da446677b9e9d6c5db704eaab4787",
          "topics": [
            "0xddf252ad1be2c89b69c2b068fc378daa952ba7f163c4a11628f55a4df523b3ef",
            "0x000000000000000000000000777a8255ca72412f0d706dc03c9d1987306b4cad",
            "0x0000000000000000000000000000000000000000000000000000000000000000"
          ],
          "data": "0x000000000000000000000000000000000000000000000000006a94d74f430000",
          "blockHash": "0x888e8e458f9122937317476ec493a9e863551ff976e31ae12035f3779d55a37f",
          "blockNumber": "0x20a29fc",
          "transactionHash": "0x710299d9f0182bf0e5e73711c708382adfcada4722d49f4131b146d9ed94a9d1",
          "transactionIndex": "0x7",
          "logIndex": "0x17",
          "removed": false
        },
        {
          "address": "0xceba9300f2b948710d2653dd7b07f33a8b32118c",
          "topics": [
            "0xddf252ad1be2c89b69c2b068fc378daa952ba7f163c4a11628f55a4df523b3ef",
            "0x0000000000000000000000009380fa34fd9e4fd14c06305fd7b6199089ed4eb9",
            "0x000000000000000000000000be729350f8cdfc19db6866e8579841188ee57f67"
          ],
          "data": "0x0000000000000000000000000000000000000000000000000000000000001481",
          "blockHash": "0x888e8e458f9122937317476ec493a9e863551ff976e31ae12035f3779d55a37f",
          "blockNumber": "0x20a29fc",
          "transactionHash": "0x710299d9f0182bf0e5e73711c708382adfcada4722d49f4131b146d9ed94a9d1",
          "transactionIndex": "0x7",
          "logIndex": "0x18",
          "removed": false
        },
        {
          "address": "0x9380fa34fd9e4fd14c06305fd7b6199089ed4eb9",
          "topics": [
            "0xc171b15fb47a5beb3e11b1951d4518544f699edd6acd893d8695c91703922b60",
            "0x000000000000000000000000777a8255ca72412f0d706dc03c9d1987306b4cad",
            "0x000000000000000000000000be729350f8cdfc19db6866e8579841188ee57f67"
          ],
          "data": "0x0000000000000000000000000000000000000000000000000000000000001481000000000000000000000000ceba9300f2b948710d2653dd7b07f33a8b32118c",
          "blockHash": "0x888e8e458f9122937317476ec493a9e863551ff976e31ae12035f3779d55a37f",
          "blockNumber": "0x20a29fc",
          "transactionHash": "0x710299d9f0182bf0e5e73711c708382adfcada4722d49f4131b146d9ed94a9d1",
          "transactionIndex": "0x7",
          "logIndex": "0x19",
          "removed": false
        },
        {
          "address": "0x777a8255ca72412f0d706dc03c9d1987306b4cad",
          "topics": [
            "0xe7b046415cac9de47940c3087e06db13a0e058ccf53ac5f0edd49ebb4c2c3a6f",
            "0xe8693b17c0f002f6a2fe839525557cef10dfeacef9e16c9bbdcb01c57933ce58",
            "0x000000000000000000000000be729350f8cdfc19db6866e8579841188ee57f67",
            "0x000000000000000000000000e8537a3d056da446677b9e9d6c5db704eaab4787"
          ],
          "data": "0x00000000000000000000000022d9db95e6ae61c104a7b6f6c78d7993b94ec901000000000000000000000000ceba9300f2b948710d2653dd7b07f33a8b32118c000000000000000000000000000000000000000000000000006a94d74f4300000000000000000000000000000000000000000000000000000000000000001481",
          "blockHash": "0x888e8e458f9122937317476ec493a9e863551ff976e31ae12035f3779d55a37f",
          "blockNumber": "0x20a29fc",
          "transactionHash": "0x710299d9f0182bf0e5e73711c708382adfcada4722d49f4131b146d9ed94a9d1",
          "transactionIndex": "0x7",
          "logIndex": "0x1a",
          "removed": false
        },
        {
          "address": "0xceba9300f2b948710d2653dd7b07f33a8b32118c",
          "topics": [
            "0x8c5be1e5ebec7d5bd14f71427d1e84f3dd0314c0f7b2291e5b200ac8c7c3b925",
            "0x000000000000000000000000be729350f8cdfc19db6866e8579841188ee57f67",
            "0x000000000000000000000000777a8255ca72412f0d706dc03c9d1987306b4cad"
          ],
          "data": "0x0000000000000000000000000000000000000000000000000000000000001481",
          "blockHash": "0x888e8e458f9122937317476ec493a9e863551ff976e31ae12035f3779d55a37f",
          "blockNumber": "0x20a29fc",
          "transactionHash": "0x710299d9f0182bf0e5e73711c708382adfcada4722d49f4131b146d9ed94a9d1",
          "transactionIndex": "0x7",
          "logIndex": "0x1b",
          "removed": false
        },
        {
          "address": "0x22d9db95e6ae61c104a7b6f6c78d7993b94ec901",
          "topics": [
            "0x949f5db193cbfa01f2d443b1c656bfede15497de0d86838cea089bd60c438342",
            "0x99be8b8341ba00914600cda701568ab27eea9aca7a32fa48c26e07b86841020c"
          ],
          "data": "0x000000000000000000000000000000000000000000017d2a320dd7455500000000000000000000000000000000000000000000000001ae00e07a3c15e2213de3",
          "blockHash": "0x888e8e458f9122937317476ec493a9e863551ff976e31ae12035f3779d55a37f",
          "blockNumber": "0x20a29fc",
          "transactionHash": "0x710299d9f0182bf0e5e73711c708382adfcada4722d49f4131b146d9ed94a9d1",
          "transactionIndex": "0x7",
          "logIndex": "0x1c",
          "removed": false
        },
        {
          "address": "0xceba9300f2b948710d2653dd7b07f33a8b32118c",
          "topics": [
            "0xddf252ad1be2c89b69c2b068fc378daa952ba7f163c4a11628f55a4df523b3ef",
            "0x000000000000000000000000be729350f8cdfc19db6866e8579841188ee57f67",
            "0x0000000000000000000000009380fa34fd9e4fd14c06305fd7b6199089ed4eb9"
          ],
          "data": "0x0000000000000000000000000000000000000000000000000000000000001481",
          "blockHash": "0x888e8e458f9122937317476ec493a9e863551ff976e31ae12035f3779d55a37f",
          "blockNumber": "0x20a29fc",
          "transactionHash": "0x710299d9f0182bf0e5e73711c708382adfcada4722d49f4131b146d9ed94a9d1",
          "transactionIndex": "0x7",
          "logIndex": "0x1d",
          "removed": false
        },
        {
          "address": "0xd8763cba276a3738e6de85b4b3bf5fded6d6ca73",
          "topics": [
            "0xddf252ad1be2c89b69c2b068fc378daa952ba7f163c4a11628f55a4df523b3ef",
            "0x0000000000000000000000000000000000000000000000000000000000000000",
            "0x000000000000000000000000be729350f8cdfc19db6866e8579841188ee57f67"
          ],
          "data": "0x00000000000000000000000000000000000000000000000000107d25d25e6504",
          "blockHash": "0x888e8e458f9122937317476ec493a9e863551ff976e31ae12035f3779d55a37f",
          "blockNumber": "0x20a29fc",
          "transactionHash": "0x710299d9f0182bf0e5e73711c708382adfcada4722d49f4131b146d9ed94a9d1",
          "transactionIndex": "0x7",
          "logIndex": "0x1e",
          "removed": false
        },
        {
          "address": "0x777a8255ca72412f0d706dc03c9d1987306b4cad",
          "topics": [
            "0xe7b046415cac9de47940c3087e06db13a0e058ccf53ac5f0edd49ebb4c2c3a6f",
            "0x99be8b8341ba00914600cda701568ab27eea9aca7a32fa48c26e07b86841020c",
            "0x000000000000000000000000be729350f8cdfc19db6866e8579841188ee57f67",
            "0x000000000000000000000000ceba9300f2b948710d2653dd7b07f33a8b32118c"
          ],
          "data": "0x00000000000000000000000022d9db95e6ae61c104a7b6f6c78d7993b94ec901000000000000000000000000d8763cba276a3738e6de85b4b3bf5fded6d6ca73000000000000000000000000000000000000000000000000000000000000148100000000000000000000000000000000000000000000000000107d25d25e6504",
          "blockHash": "0x888e8e458f9122937317476ec493a9e863551ff976e31ae12035f3779d55a37f",
          "blockNumber": "0x20a29fc",
          "transactionHash": "0x710299d9f0182bf0e5e73711c708382adfcada4722d49f4131b146d9ed94a9d1",
          "transactionIndex": "0x7",
          "logIndex": "0x1f",
          "removed": false
        },
        {
          "address": "0xd8763cba276a3738e6de85b4b3bf5fded6d6ca73",
          "topics": [
            "0xddf252ad1be2c89b69c2b068fc378daa952ba7f163c4a11628f55a4df523b3ef",
            "0x000000000000000000000000be729350f8cdfc19db6866e8579841188ee57f67",
            "0x000000000000000000000000e9980a142d5d3610a4a32693d4325b563dfe6404"
          ],
          "data": "0x00000000000000000000000000000000000000000000000000107d25d25e6504",
          "blockHash": "0x888e8e458f9122937317476ec493a9e863551ff976e31ae12035f3779d55a37f",
          "blockNumber": "0x20a29fc",
          "transactionHash": "0x710299d9f0182bf0e5e73711c708382adfcada4722d49f4131b146d9ed94a9d1",
          "transactionIndex": "0x7",
          "logIndex": "0x20",
          "removed": false
        },
        {
          "address": "0xd8763cba276a3738e6de85b4b3bf5fded6d6ca73",
          "topics": [
            "0xddf252ad1be2c89b69c2b068fc378daa952ba7f163c4a11628f55a4df523b3ef",
            "0x000000000000000000000000e9980a142d5d3610a4a32693d4325b563dfe6404",
            "0x0000000000000000000000008a0d290b2ee35efde47810ca8ff057e109e4190b"
          ],
          "data": "0x00000000000000000000000000000000000000000000000000107d25d25e6504",
          "blockHash": "0x888e8e458f9122937317476ec493a9e863551ff976e31ae12035f3779d55a37f",
          "blockNumber": "0x20a29fc",
          "transactionHash": "0x710299d9f0182bf0e5e73711c708382adfcada4722d49f4131b146d9ed94a9d1",
          "transactionIndex": "0x7",
          "logIndex": "0x21",
          "removed": false
        },
        {
          "address": "0xe9980a142d5d3610a4a32693d4325b563dfe6404",
          "topics": [
            "0x8369debc964748136513ed9e8988cfc4f2089cc7460071ef445ec215cedb1946",
            "0x0000000000000000000000000000000000000000000000000000000000000001"
          ],
          "data": "0x0000000000000000000000008a0d290b2ee35efde47810ca8ff057e109e4190b000000000000000000000000000000000000000000000000006a94d74f430000000000000000000000000000e8537a3d056da446677b9e9d6c5db704eaab4787",
          "blockHash": "0x888e8e458f9122937317476ec493a9e863551ff976e31ae12035f3779d55a37f",
          "blockNumber": "0x20a29fc",
          "transactionHash": "0x710299d9f0182bf0e5e73711c708382adfcada4722d49f4131b146d9ed94a9d1",
          "transactionIndex": "0x7",
          "logIndex": "0x22",
          "removed": false
        }
      ],
      "logsBloom": "0x008010000000000002001000000000000000000080000000000000000000000000000000000000000400a0000000000000000000000000000000000000240010020000002000000000000048000000010000800000040000000000000000000000008080c20100010000000020000800000800000000000000010010002000000008000000200010400000001000000000000000000000800000000000004000020001000000000000000000000000000010000000000000000044000024880002080002000000000400020000000000000000040400000004000000001060000010000080004010000c00020810000000000090000000100000000000400000",
      "type": "0x0",
      "transactionHash": "0x710299d9f0182bf0e5e73711c708382adfcada4722d49f4131b146d9ed94a9d1",
      "transactionIndex": "0x7",
      "blockHash": "0x888e8e458f9122937317476ec493a9e863551ff976e31ae12035f3779d55a37f",
      "blockNumber": "0x20a29fc",
      "gasUsed": "0x9f186",
      "effectiveGasPrice": "0x5d22cfc40",
      "from": "0x8a0d290b2ee35efde47810ca8ff057e109e4190b",
      "to": "0xe9980a142d5d3610a4a32693d4325b563dfe6404",
      "contractAddress": null,
      "l1BaseFeeScalar": "0x0",
      "l1BlobBaseFee": "0x207e6e46b",
      "l1BlobBaseFeeScalar": "0x0",
      "l1Fee": "0x0",
      "l1GasPrice": "0x4eee4f9b",
      "l1GasUsed": "0x640"
    }
  ],
  "libraries": [],
  "pending": [],
  "returns": {},
  "timestamp": 1746121299,
  "chain": 42220,
  "commit": "eee9e0b"
}