{
  "transactions": [
    {
      "hash": "0xc8dfd0f72c7587b335baaa2a7a18425f7360e97a50aa72eea37f2c8be3b0ba19",
      "transactionType": "CALL",
      "contractName": null,
      "contractAddress": "0x96cfa0e76bd15d99a1230ca3955be5e677b746a6",
      "function": "listProperty(string,address,uint256,string)",
      "arguments": [
        "Taj Mahal Hotel",
        "0xcebA9300f2b948710d2653dD7B07f33A8B32118C",
        "50000000000000000",
        "ipfs://QmTajMahalHotelImage123"
      ],
      "transaction": {
        "from": "0x8a0d290b2ee35efde47810ca8ff057e109e4190b",
        "to": "0x96cfa0e76bd15d99a1230ca3955be5e677b746a6",
        "gas": "0x38054",
        "value": "0x0",
        "input": "0x91df597f0000000000000000000000000000000000000000000000000000000000000080000000000000000000000000ceba9300f2b948710d2653dd7b07f33a8b32118c00000000000000000000000000000000000000000000000000b1a2bc2ec5000000000000000000000000000000000000000000000000000000000000000000c0000000000000000000000000000000000000000000000000000000000000000f54616a204d6168616c20486f74656c0000000000000000000000000000000000000000000000000000000000000000000000000000000000000000000000001e697066733a2f2f516d54616a4d6168616c486f74656c496d6167653132330000",
        "nonce": "0x1a",
        "chainId": "0xa4ec"
      },
      "additionalContracts": [],
      "isFixedGasLimit": false
    },
    {
      "hash": "0x906d4822194ed94de3c849d385e07134029ae367249a0d819a31ae377498abd1",
      "transactionType": "CALL",
      "contractName": null,
      "contractAddress": "0x765de816845861e75a25fca122bb6898b8b1282a",
      "function": "approve(address,uint256)",
      "arguments": [
        "0x96CFA0E76Bd15d99A1230CA3955be5E677B746a6",
        "115792089237316195423570985008687907853269984665640564039457584007913129639935"
      ],
      "transaction": {
        "from": "0x8a0d290b2ee35efde47810ca8ff057e109e4190b",
        "to": "0x765de816845861e75a25fca122bb6898b8b1282a",
        "gas": "0xb5a2",
        "value": "0x0",
        "input": "0x095ea7b300000000000000000000000096cfa0e76bd15d99a1230ca3955be5e677b746a6ffffffffffffffffffffffffffffffffffffffffffffffffffffffffffffffff",
        "nonce": "0x1b",
        "chainId": "0xa4ec"
      },
      "additionalContracts": [],
      "isFixedGasLimit": false
    },
    {
      "hash": "0xeef2bdc7de2d233289f2830481c2ae831ad7df1f0e6709db0df62d4076e1946b",
      "transactionType": "CALL",
      "contractName": null,
      "contractAddress": "0x96cfa0e76bd15d99a1230ca3955be5e677b746a6",
      "function": "payRent(uint256,uint256,address)",
      "arguments": [
        "1",
        "1",
        "0x765DE816845861e75A25fCA122bb6898B8B1282a"
      ],
      "transaction": {
        "from": "0x8a0d290b2ee35efde47810ca8ff057e109e4190b",
        "to": "0x96cfa0e76bd15d99a1230ca3955be5e677b746a6",
        "gas": "0x66505",
        "value": "0x0",
        "input": "0x24399b9e00000000000000000000000000000000000000000000000000000000000000010000000000000000000000000000000000000000000000000000000000000001000000000000000000000000765de816845861e75a25fca122bb6898b8b1282a",
        "nonce": "0x1c",
        "chainId": "0xa4ec"
      },
      "additionalContracts": [],
      "isFixedGasLimit": false
    }
  ],
  "receipts": [
    {
      "status": "0x1",
      "cumulativeGasUsed": "0x14c349",
      "logs": [
        {
          "address": "0x96cfa0e76bd15d99a1230ca3955be5e677b746a6",
          "topics": [
            "0xb18344ef8baa750d3a903211956af26a995a3b8a1ea274bdb9cdb60eaef14da9",
            "0x0000000000000000000000000000000000000000000000000000000000000003"
          ],
          "data": "0x0000000000000000000000008a0d290b2ee35efde47810ca8ff057e109e4190b0000000000000000000000000000000000000000000000000000000000000080000000000000000000000000ceba9300f2b948710d2653dd7b07f33a8b32118c00000000000000000000000000000000000000000000000000b1a2bc2ec50000000000000000000000000000000000000000000000000000000000000000000f54616a204d6168616c20486f74656c0000000000000000000000000000000000",
          "blockHash": "0x9ce882e1ad917dab0217e910120c430f7a16e56574338c63a72f708dd0ef3561",
          "blockNumber": "0x20a0374",
          "transactionHash": "0xc8dfd0f72c7587b335baaa2a7a18425f7360e97a50aa72eea37f2c8be3b0ba19",
          "transactionIndex": "0xc",
          "logIndex": "0x28",
          "removed": false
        }
      ],
      "logsBloom": "0x00000000000000000000000000000000000000000000000000000000000000000080000000000020000400000000000000000000020000000000000000000000000000000000000000000000000000000000000000000000000000000000000000000000080000000000000000000000000000000000000000000000000040000000000000000000000000000000000000000000000000000000000000000000000000000000000000000000000000000000000000800000000000000000400000000000000000000000000000000000000000000000000000000000000000000000000000000000000000000000000000000000000000008000000000000000",
      "type": "0x0",
      "transactionHash": "0xc8dfd0f72c7587b335baaa2a7a18425f7360e97a50aa72eea37f2c8be3b0ba19",
      "transactionIndex": "0xc",
      "blockHash": "0x9ce882e1ad917dab0217e910120c430f7a16e56574338c63a72f708dd0ef3561",
      "blockNumber": "0x20a0374",
      "gasUsed": "0x288ee",
      "effectiveGasPrice": "0x5d22cfc40",
      "from": "0x8a0d290b2ee35efde47810ca8ff057e109e4190b",
      "to": "0x96cfa0e76bd15d99a1230ca3955be5e677b746a6",
      "contractAddress": null,
      "l1BaseFeeScalar": "0x0",
      "l1BlobBaseFee": "0x404ab3bea1",
      "l1BlobBaseFeeScalar": "0x0",
      "l1Fee": "0x0",
      "l1GasPrice": "0x392c2257",
      "l1GasUsed": "0x90c"
    },
    {
      "status": "0x1",
      "cumulativeGasUsed": "0x153f7b",
      "logs": [
        {
          "address": "0x765de816845861e75a25fca122bb6898b8b1282a",
          "topics": [
            "0x8c5be1e5ebec7d5bd14f71427d1e84f3dd0314c0f7b2291e5b200ac8c7c3b925",
            "0x0000000000000000000000008a0d290b2ee35efde47810ca8ff057e109e4190b",
            "0x00000000000000000000000096cfa0e76bd15d99a1230ca3955be5e677b746a6"
          ],
          "data": "0xffffffffffffffffffffffffffffffffffffffffffffffffffffffffffffffff",
          "blockHash": "0x9ce882e1ad917dab0217e910120c430f7a16e56574338c63a72f708dd0ef3561",
          "blockNumber": "0x20a0374",
          "transactionHash": "0x906d4822194ed94de3c849d385e07134029ae367249a0d819a31ae377498abd1",
          "transactionIndex": "0xd",
          "logIndex": "0x29",
          "removed": false
        }
      ],
      "logsBloom": "0x00000000000000000000000000000000000000000000000000000000000000000000080000000000040000002000000000000000000000000000000000200000000000000000000000000000000000000000000000000000000000000000000000000000000100000000000000000000000000000000800000000400000000000000000000000000000000002000000000000000000000000000000000000000020000000000000000000000000000000000000000000000000000000000000000000000000000000000000000000000000800000400000000000000000000000010000000000000000000000000000000000000000000000000000000000000",
      "type": "0x0",
      "transactionHash": "0x906d4822194ed94de3c849d385e07134029ae367249a0d819a31ae377498abd1",
      "transactionIndex": "0xd",
      "blockHash": "0x9ce882e1ad917dab0217e910120c430f7a16e56574338c63a72f708dd0ef3561",
      "blockNumber": "0x20a0374",
      "gasUsed": "0x7c32",
      "effectiveGasPrice": "0x5d22cfc40",
      "from": "0x8a0d290b2ee35efde47810ca8ff057e109e4190b",
      "to": "0x765de816845861e75a25fca122bb6898b8b1282a",
      "contractAddress": null,
      "l1BaseFeeScalar": "0x0",
      "l1BlobBaseFee": "0x404ab3bea1",
      "l1BlobBaseFeeScalar": "0x0",
      "l1Fee": "0x0",
      "l1GasPrice": "0x392c2257",
      "l1GasUsed": "0x640"
    },
    {
      "status": "0x1",
      "cumulativeGasUsed": "0x19e0a8",
      "logs": [
        {
          "address": "0x765de816845861e75a25fca122bb6898b8b1282a",
          "topics": [
            "0xddf252ad1be2c89b69c2b068fc378daa952ba7f163c4a11628f55a4df523b3ef",
            "0x0000000000000000000000008a0d290b2ee35efde47810ca8ff057e109e4190b",
            "0x00000000000000000000000096cfa0e76bd15d99a1230ca3955be5e677b746a6"
          ],
          "data": "0x00000000000000000000000000000000000000000000000000000000000f4240",
          "blockHash": "0x9ce882e1ad917dab0217e910120c430f7a16e56574338c63a72f708dd0ef3561",
          "blockNumber": "0x20a0374",
          "transactionHash": "0xeef2bdc7de2d233289f2830481c2ae831ad7df1f0e6709db0df62d4076e1946b",
          "transactionIndex": "0xe",
          "logIndex": "0x2a",
          "removed": false
        },
        {
          "address": "0x765de816845861e75a25fca122bb6898b8b1282a",
          "topics": [
            "0x8c5be1e5ebec7d5bd14f71427d1e84f3dd0314c0f7b2291e5b200ac8c7c3b925",
            "0x00000000000000000000000096cfa0e76bd15d99a1230ca3955be5e677b746a6",
            "0x000000000000000000000000777a8255ca72412f0d706dc03c9d1987306b4cad"
          ],
          "data": "0x00000000000000000000000000000000000000000000000000000000000f4240",
          "blockHash": "0x9ce882e1ad917dab0217e910120c430f7a16e56574338c63a72f708dd0ef3561",
          "blockNumber": "0x20a0374",
          "transactionHash": "0xeef2bdc7de2d233289f2830481c2ae831ad7df1f0e6709db0df62d4076e1946b",
          "transactionIndex": "0xe",
          "logIndex": "0x2b",
          "removed": false
        },
        {
          "address": "0x765de816845861e75a25fca122bb6898b8b1282a",
          "topics": [
            "0x8c5be1e5ebec7d5bd14f71427d1e84f3dd0314c0f7b2291e5b200ac8c7c3b925",
            "0x00000000000000000000000096cfa0e76bd15d99a1230ca3955be5e677b746a6",
            "0x000000000000000000000000777a8255ca72412f0d706dc03c9d1987306b4cad"
          ],
          "data": "0x0000000000000000000000000000000000000000000000000000000000000000",
          "blockHash": "0x9ce882e1ad917dab0217e910120c430f7a16e56574338c63a72f708dd0ef3561",
          "blockNumber": "0x20a0374",
          "transactionHash": "0xeef2bdc7de2d233289f2830481c2ae831ad7df1f0e6709db0df62d4076e1946b",
          "transactionIndex": "0xe",
          "logIndex": "0x2c",
          "removed": false
        },
        {
          "address": "0x765de816845861e75a25fca122bb6898b8b1282a",
          "topics": [
            "0xddf252ad1be2c89b69c2b068fc378daa952ba7f163c4a11628f55a4df523b3ef",
            "0x00000000000000000000000096cfa0e76bd15d99a1230ca3955be5e677b746a6",
            "0x000000000000000000000000777a8255ca72412f0d706dc03c9d1987306b4cad"
          ],
          "data": "0x00000000000000000000000000000000000000000000000000000000000f4240",
          "blockHash": "0x9ce882e1ad917dab0217e910120c430f7a16e56574338c63a72f708dd0ef3561",
          "blockNumber": "0x20a0374",
          "transactionHash": "0xeef2bdc7de2d233289f2830481c2ae831ad7df1f0e6709db0df62d4076e1946b",
          "transactionIndex": "0xe",
          "logIndex": "0x2d",
          "removed": false
        },
        {
          "address": "0x765de816845861e75a25fca122bb6898b8b1282a",
          "topics": [
            "0xddf252ad1be2c89b69c2b068fc378daa952ba7f163c4a11628f55a4df523b3ef",
            "0x000000000000000000000000777a8255ca72412f0d706dc03c9d1987306b4cad",
            "0x0000000000000000000000000000000000000000000000000000000000000000"
          ],
          "data": "0x00000000000000000000000000000000000000000000000000000000000f4240",
          "blockHash": "0x9ce882e1ad917dab0217e910120c430f7a16e56574338c63a72f708dd0ef3561",
          "blockNumber": "0x20a0374",
          "transactionHash": "0xeef2bdc7de2d233289f2830481c2ae831ad7df1f0e6709db0df62d4076e1946b",
          "transactionIndex": "0xe",
          "logIndex": "0x2e",
          "removed": false
        },
        {
          "address": "0xceba9300f2b948710d2653dd7b07f33a8b32118c",
          "topics": [
            "0xddf252ad1be2c89b69c2b068fc378daa952ba7f163c4a11628f55a4df523b3ef",
            "0x0000000000000000000000009380fa34fd9e4fd14c06305fd7b6199089ed4eb9",
            "0x00000000000000000000000096cfa0e76bd15d99a1230ca3955be5e677b746a6"
          ],
          "data": "0x0000000000000000000000000000000000000000000000000000000000000000",
          "blockHash": "0x9ce882e1ad917dab0217e910120c430f7a16e56574338c63a72f708dd0ef3561",
          "blockNumber": "0x20a0374",
          "transactionHash": "0xeef2bdc7de2d233289f2830481c2ae831ad7df1f0e6709db0df62d4076e1946b",
          "transactionIndex": "0xe",
          "logIndex": "0x2f",
          "removed": false
        },
        {
          "address": "0x9380fa34fd9e4fd14c06305fd7b6199089ed4eb9",
          "topics": [
            "0xc171b15fb47a5beb3e11b1951d4518544f699edd6acd893d8695c91703922b60",
            "0x000000000000000000000000777a8255ca72412f0d706dc03c9d1987306b4cad",
            "0x00000000000000000000000096cfa0e76bd15d99a1230ca3955be5e677b746a6"
          ],
          "data": "0x0000000000000000000000000000000000000000000000000000000000000000000000000000000000000000ceba9300f2b948710d2653dd7b07f33a8b32118c",
          "blockHash": "0x9ce882e1ad917dab0217e910120c430f7a16e56574338c63a72f708dd0ef3561",
          "blockNumber": "0x20a0374",
          "transactionHash": "0xeef2bdc7de2d233289f2830481c2ae831ad7df1f0e6709db0df62d4076e1946b",
          "transactionIndex": "0xe",
          "logIndex": "0x30",
          "removed": false
        },
        {
          "address": "0x777a8255ca72412f0d706dc03c9d1987306b4cad",
          "topics": [
            "0xe7b046415cac9de47940c3087e06db13a0e058ccf53ac5f0edd49ebb4c2c3a6f",
            "0xacc988382b66ee5456086643dcfd9a5ca43dd8f428f6ef22503d8b8013bcffd7",
            "0x00000000000000000000000096cfa0e76bd15d99a1230ca3955be5e677b746a6",
            "0x000000000000000000000000765de816845861e75a25fca122bb6898b8b1282a"
          ],
          "data": "0x00000000000000000000000022d9db95e6ae61c104a7b6f6c78d7993b94ec901000000000000000000000000ceba9300f2b948710d2653dd7b07f33a8b32118c00000000000000000000000000000000000000000000000000000000000f42400000000000000000000000000000000000000000000000000000000000000000",
          "blockHash": "0x9ce882e1ad917dab0217e910120c430f7a16e56574338c63a72f708dd0ef3561",
          "blockNumber": "0x20a0374",
          "transactionHash": "0xeef2bdc7de2d233289f2830481c2ae831ad7df1f0e6709db0df62d4076e1946b",
          "transactionIndex": "0xe",
          "logIndex": "0x31",
          "removed": false
        },
        {
          "address": "0xceba9300f2b948710d2653dd7b07f33a8b32118c",
          "topics": [
            "0xddf252ad1be2c89b69c2b068fc378daa952ba7f163c4a11628f55a4df523b3ef",
            "0x00000000000000000000000096cfa0e76bd15d99a1230ca3955be5e677b746a6",
            "0x0000000000000000000000008a0d290b2ee35efde47810ca8ff057e109e4190b"
          ],
          "data": "0x0000000000000000000000000000000000000000000000000000000000000000",
          "blockHash": "0x9ce882e1ad917dab0217e910120c430f7a16e56574338c63a72f708dd0ef3561",
          "blockNumber": "0x20a0374",
          "transactionHash": "0xeef2bdc7de2d233289f2830481c2ae831ad7df1f0e6709db0df62d4076e1946b",
          "transactionIndex": "0xe",
          "logIndex": "0x32",
          "removed": false
        },
        {
          "address": "0x96cfa0e76bd15d99a1230ca3955be5e677b746a6",
          "topics": [
            "0x8369debc964748136513ed9e8988cfc4f2089cc7460071ef445ec215cedb1946",
            "0x0000000000000000000000000000000000000000000000000000000000000001"
          ],
          "data": "0x0000000000000000000000008a0d290b2ee35efde47810ca8ff057e109e4190b00000000000000000000000000000000000000000000000000000000000f4240000000000000000000000000765de816845861e75a25fca122bb6898b8b1282a",
          "blockHash": "0x9ce882e1ad917dab0217e910120c430f7a16e56574338c63a72f708dd0ef3561",
          "blockNumber": "0x20a0374",
          "transactionHash": "0xeef2bdc7de2d233289f2830481c2ae831ad7df1f0e6709db0df62d4076e1946b",
          "transactionIndex": "0xe",
          "logIndex": "0x33",
          "removed": false
        }
      ],
      "logsBloom": "0x00800000000000000200100000000000000000008000000000000000000000000080080000000020040400002000000000000000000000000000000000240000000000002000000000000048000000010000800000040000000000000000000000008080c20100000000000000000c00000800000000800000000410002000000008000000200000001000003000000000000000000000000800000000000000020000000000000100000000000000000010000000000000000040000004000000000002000000000000020000000000002800000400000000000000000060000010000000000000000c40000000000000000000000000100000000000000000",
      "type": "0x0",
      "transactionHash": "0xeef2bdc7de2d233289f2830481c2ae831ad7df1f0e6709db0df62d4076e1946b",
      "transactionIndex": "0xe",
      "blockHash": "0x9ce882e1ad917dab0217e910120c430f7a16e56574338c63a72f708dd0ef3561",
      "blockNumber": "0x20a0374",
      "gasUsed": "0x4a12d",
      "effectiveGasPrice": "0x5d22cfc40",
      "from": "0x8a0d290b2ee35efde47810ca8ff057e109e4190b",
      "to": "0x96cfa0e76bd15d99a1230ca3955be5e677b746a6",
      "contractAddress": null,
      "l1BaseFeeScalar": "0x0",
      "l1BlobBaseFee": "0x404ab3bea1",
      "l1BlobBaseFeeScalar": "0x0",
      "l1Fee": "0x0",
      "l1GasPrice": "0x392c2257",
      "l1GasUsed": "0x640"
    }
  ],
  "libraries": [],
  "pending": [],
  "returns": {},
  "timestamp": 1746111434,
  "chain": 42220,
  "commit": "eee9e0b"
}