{
  "transactions": [
    {
      "hash": "0xb0c7444a798a9acd5ea25616a91ea005ce9ca78e28648c879c98aaa26a964478",
      "transactionType": "CALL",
      "contractName": null,
      "contractAddress": "0xf78c5ea359734be41bd50635a36d3655d50600e2",
      "function": "createEvent(string,string,address,uint256,string)",
      "arguments": [
        "NeymarBrazilFC",
        "ipfs://bafkreihv536dl4wjsrekyo3baclqyls75kozgc3jposl5x5yr3zyem5guq",
        "0xe8537a3d056DA446677B9E9d6c5dB704EaAb4787",
        "2000000000000000",
        "ipfs://bafkreiaijjzijufrqbsxbgtrssvtacjzkclrzsmbysd5zxd6qqdb4rzcye"
      ],
      "transaction": {
        "from": "0x8a0d290b2ee35efde47810ca8ff057e109e4190b",
        "to": "0xf78c5ea359734be41bd50635a36d3655d50600e2",
        "gas": "0x6d40c",
        "value": "0x0",
        "input": "0x1445235e00000000000000000000000000000000000000000000000000000000000000a000000000000000000000000000000000000000000000000000000000000000e0000000000000000000000000e8537a3d056da446677b9e9d6c5db704eaab478700000000000000000000000000000000000000000000000000071afd498d00000000000000000000000000000000000000000000000000000000000000000160000000000000000000000000000000000000000000000000000000000000000e4e65796d61724272617a696c46430000000000000000000000000000000000000000000000000000000000000000000000000000000000000000000000000042697066733a2f2f6261666b7265696876353336646c34776a7372656b796f336261636c71796c7337356b6f7a6763336a706f736c3578357972337a79656d356775710000000000000000000000000000000000000000000000000000000000000000000000000000000000000000000000000000000000000000000000000042697066733a2f2f6261666b72656961696a6a7a696a75667271627378626774727373767461636a7a6b636c727a736d62797364357a7864367171646234727a637965000000000000000000000000000000000000000000000000000000000000",
        "nonce": "0x3a",
        "chainId": "0xa4ec"
      },
      "additionalContracts": [],
      "isFixedGasLimit": false
    },
    {
      "hash": "0xcc38677147c60f86999d1eccc99ac221e68cfa38fa4991995910501d3bec5909",
      "transactionType": "CALL",
      "contractName": null,
      "contractAddress": "0xd8763cba276a3738e6de85b4b3bf5fded6d6ca73",
      "function": "approve(address,uint256)",
      "arguments": [
        "0xF78c5eA359734BE41bd50635a36D3655d50600e2",
        "115792089237316195423570985008687907853269984665640564039457584007913129639935"
      ],
      "transaction": {
        "from": "0x8a0d290b2ee35efde47810ca8ff057e109e4190b",
        "to": "0xd8763cba276a3738e6de85b4b3bf5fded6d6ca73",
        "gas": "0x12740",
        "value": "0x0",
        "input": "0x095ea7b3000000000000000000000000f78c5ea359734be41bd50635a36d3655d50600e2ffffffffffffffffffffffffffffffffffffffffffffffffffffffffffffffff",
        "nonce": "0x3b",
        "chainId": "0xa4ec"
      },
      "additionalContracts": [],
      "isFixedGasLimit": false
    },
    {
      "hash": "0x0d5d99ae15485cf08465006bcf6b968aca3283efe9ab12d7808f76b80775657a",
      "transactionType": "CALL",
      "contractName": null,
      "contractAddress": "0xf78c5ea359734be41bd50635a36d3655d50600e2",
      "function": "buyTicket(uint256,uint256,address)",
      "arguments": [
        "1",
        "2",
        "0xD8763CBa276a3738E6DE85b4b3bF5FDed6D6cA73"
      ],
      "transaction": {
        "from": "0x8a0d290b2ee35efde47810ca8ff057e109e4190b",
        "to": "0xf78c5ea359734be41bd50635a36d3655d50600e2",
        "gas": "0x1784e4",
        "value": "0x0",
        "input": "0x008e686500000000000000000000000000000000000000000000000000000000000000010000000000000000000000000000000000000000000000000000000000000002000000000000000000000000d8763cba276a3738e6de85b4b3bf5fded6d6ca73",
        "nonce": "0x3c",
        "chainId": "0xa4ec"
      },
      "additionalContracts": [],
      "isFixedGasLimit": false
    }
  ],
  "receipts": [
    {
      "status": "0x1",
      "cumulativeGasUsed": "0xcf93c",
      "logs": [
        {
          "address": "0xf78c5ea359734be41bd50635a36d3655d50600e2",
          "topics": [
            "0xad389ee79ceb9d0e3a1739d75d42c8727ca5946b701beaa8ef2801b04d7d7a57",
            "0x0000000000000000000000000000000000000000000000000000000000000001"
          ],
          "data": "0x00000000000000000000000000000000000000000000000000000000000000600000000000000000000000008a0d290b2ee35efde47810ca8ff057e109e4190b00000000000000000000000000000000000000000000000000071afd498d0000000000000000000000000000000000000000000000000000000000000000000e4e65796d61724272617a696c4643000000000000000000000000000000000000",
          "blockHash": "0x4d3772d05501d04dc6065826a3910a8685a754585ca9cd90ce4673fee88e02f8",
          "blockNumber": "0x20e2f43",
          "transactionHash": "0xb0c7444a798a9acd5ea25616a91ea005ce9ca78e28648c879c98aaa26a964478",
          "transactionIndex": "0x4",
          "logIndex": "0x5",
          "removed": false
        }
      ],
      "logsBloom": "0x00000000000000000000000000000000000000000000000000000000000000000000000000000000000000004000200000000000000000000000000000040000000000000000000000000000000000000000000000040000000000000000000000000000000000000000100000000000000000000000000000000000000000000000000000000000000000000000000000000000000000000000000000000000000008040000000000000000000000000000000000000000000000000000000000000000000000000000000000000000000000000000000000000000000040000000000000000000000000000000000000000000020000000000000000000000",
      "type": "0x0",
      "transactionHash": "0xb0c7444a798a9acd5ea25616a91ea005ce9ca78e28648c879c98aaa26a964478",
      "transactionIndex": "0x4",
      "blockHash": "0x4d3772d05501d04dc6065826a3910a8685a754585ca9cd90ce4673fee88e02f8",
      "blockNumber": "0x20e2f43",
      "gasUsed": "0x4f18f",
      "effectiveGasPrice": "0x5d22cfc40",
      "from": "0x8a0d290b2ee35efde47810ca8ff057e109e4190b",
      "to": "0xf78c5ea359734be41bd50635a36d3655d50600e2",
      "contractAddress": null,
      "l1BaseFeeScalar": "0x0",
      "l1BlobBaseFee": "0x6a83078",
      "l1BlobBaseFeeScalar": "0x0",
      "l1Fee": "0x0",
      "l1GasPrice": "0xa26a0128",
      "l1GasUsed": "0xf45"
    },
    {
      "status": "0x1",
      "cumulativeGasUsed": "0xdc31e",
      "logs": [
        {
          "address": "0xd8763cba276a3738e6de85b4b3bf5fded6d6ca73",
          "topics": [
            "0x8c5be1e5ebec7d5bd14f71427d1e84f3dd0314c0f7b2291e5b200ac8c7c3b925",
            "0x0000000000000000000000008a0d290b2ee35efde47810ca8ff057e109e4190b",
            "0x000000000000000000000000f78c5ea359734be41bd50635a36d3655d50600e2"
          ],
          "data": "0xffffffffffffffffffffffffffffffffffffffffffffffffffffffffffffffff",
          "blockHash": "0x4d3772d05501d04dc6065826a3910a8685a754585ca9cd90ce4673fee88e02f8",
          "blockNumber": "0x20e2f43",
          "transactionHash": "0xcc38677147c60f86999d1eccc99ac221e68cfa38fa4991995910501d3bec5909",
          "transactionIndex": "0x5",
          "logIndex": "0x6",
          "removed": false
        }
      ],
      "logsBloom": "0x00000000000010000000000000000000000000000000000000000000000000000000000000000008040020000000000000000000000000000000000000200010020000000000000000000000000000000000000000000000000000000000000000000000000100000000000000000000000000000000000000000000000000000000000000000000000000000000000000000000000000000000000000000000020000000000000000000000000000000000000000000000000000000000000000000000000000000000000000000000000000000400000000000000000000000010000000000000000000000000000000000000000000000001000000000000",
      "type": "0x0",
      "transactionHash": "0xcc38677147c60f86999d1eccc99ac221e68cfa38fa4991995910501d3bec5909",
      "transactionIndex": "0x5",
      "blockHash": "0x4d3772d05501d04dc6065826a3910a8685a754585ca9cd90ce4673fee88e02f8",
      "blockNumber": "0x20e2f43",
      "gasUsed": "0xc9e2",
      "effectiveGasPrice": "0x5d22cfc40",
      "from": "0x8a0d290b2ee35efde47810ca8ff057e109e4190b",
      "to": "0xd8763cba276a3738e6de85b4b3bf5fded6d6ca73",
      "contractAddress": null,
      "l1BaseFeeScalar": "0x0",
      "l1BlobBaseFee": "0x6a83078",
      "l1BlobBaseFeeScalar": "0x0",
      "l1Fee": "0x0",
      "l1GasPrice": "0xa26a0128",
      "l1GasUsed": "0x640"
    },
    {
      "status": "0x1",
      "cumulativeGasUsed": "0x1dd7f8",
      "logs": [
        {
          "address": "0xd8763cba276a3738e6de85b4b3bf5fded6d6ca73",
          "topics": [
            "0xddf252ad1be2c89b69c2b068fc378daa952ba7f163c4a11628f55a4df523b3ef",
            "0x0000000000000000000000008a0d290b2ee35efde47810ca8ff057e109e4190b",
            "0x000000000000000000000000f78c5ea359734be41bd50635a36d3655d50600e2"
          ],
          "data": "0x000000000000000000000000000000000000000000000000000e35fa931a0000",
          "blockHash": "0x4d3772d05501d04dc6065826a3910a8685a754585ca9cd90ce4673fee88e02f8",
          "blockNumber": "0x20e2f43",
          "transactionHash": "0x0d5d99ae15485cf08465006bcf6b968aca3283efe9ab12d7808f76b80775657a",
          "transactionIndex": "0x6",
          "logIndex": "0x7",
          "removed": false
        },
        {
          "address": "0xd8763cba276a3738e6de85b4b3bf5fded6d6ca73",
          "topics": [
            "0x8c5be1e5ebec7d5bd14f71427d1e84f3dd0314c0f7b2291e5b200ac8c7c3b925",
            "0x000000000000000000000000f78c5ea359734be41bd50635a36d3655d50600e2",
            "0x000000000000000000000000be729350f8cdfc19db6866e8579841188ee57f67"
          ],
          "data": "0x000000000000000000000000000000000000000000000000000e35fa931a0000",
          "blockHash": "0x4d3772d05501d04dc6065826a3910a8685a754585ca9cd90ce4673fee88e02f8",
          "blockNumber": "0x20e2f43",
          "transactionHash": "0x0d5d99ae15485cf08465006bcf6b968aca3283efe9ab12d7808f76b80775657a",
          "transactionIndex": "0x6",
          "logIndex": "0x8",
          "removed": false
        },
        {
          "address": "0xd8763cba276a3738e6de85b4b3bf5fded6d6ca73",
          "topics": [
            "0x8c5be1e5ebec7d5bd14f71427d1e84f3dd0314c0f7b2291e5b200ac8c7c3b925",
            "0x000000000000000000000000f78c5ea359734be41bd50635a36d3655d50600e2",
            "0x000000000000000000000000be729350f8cdfc19db6866e8579841188ee57f67"
          ],
          "data": "0x0000000000000000000000000000000000000000000000000000000000000000",
          "blockHash": "0x4d3772d05501d04dc6065826a3910a8685a754585ca9cd90ce4673fee88e02f8",
          "blockNumber": "0x20e2f43",
          "transactionHash": "0x0d5d99ae15485cf08465006bcf6b968aca3283efe9ab12d7808f76b80775657a",
          "transactionIndex": "0x6",
          "logIndex": "0x9",
          "removed": false
        },
        {
          "address": "0xd8763cba276a3738e6de85b4b3bf5fded6d6ca73",
          "topics": [
            "0xddf252ad1be2c89b69c2b068fc378daa952ba7f163c4a11628f55a4df523b3ef",
            "0x000000000000000000000000f78c5ea359734be41bd50635a36d3655d50600e2",
            "0x000000000000000000000000be729350f8cdfc19db6866e8579841188ee57f67"
          ],
          "data": "0x000000000000000000000000000000000000000000000000000e35fa931a0000",
          "blockHash": "0x4d3772d05501d04dc6065826a3910a8685a754585ca9cd90ce4673fee88e02f8",
          "blockNumber": "0x20e2f43",
          "transactionHash": "0x0d5d99ae15485cf08465006bcf6b968aca3283efe9ab12d7808f76b80775657a",
          "transactionIndex": "0x6",
          "logIndex": "0xa",
          "removed": false
        },
        {
          "address": "0xd8763cba276a3738e6de85b4b3bf5fded6d6ca73",
          "topics": [
            "0x8c5be1e5ebec7d5bd14f71427d1e84f3dd0314c0f7b2291e5b200ac8c7c3b925",
            "0x000000000000000000000000be729350f8cdfc19db6866e8579841188ee57f67",
            "0x000000000000000000000000777a8255ca72412f0d706dc03c9d1987306b4cad"
          ],
          "data": "0x000000000000000000000000000000000000000000000000000e35fa931a0000",
          "blockHash": "0x4d3772d05501d04dc6065826a3910a8685a754585ca9cd90ce4673fee88e02f8",
          "blockNumber": "0x20e2f43",
          "transactionHash": "0x0d5d99ae15485cf08465006bcf6b968aca3283efe9ab12d7808f76b80775657a",
          "transactionIndex": "0x6",
          "logIndex": "0xb",
          "removed": false
        },
        {
          "address": "0x22d9db95e6ae61c104a7b6f6c78d7993b94ec901",
          "topics": [
            "0x949f5db193cbfa01f2d443b1c656bfede15497de0d86838cea089bd60c438342",
            "0x99be8b8341ba00914600cda701568ab27eea9aca7a32fa48c26e07b86841020c"
          ],
          "data": "0x000000000000000000000000000000000000000000017d2a320dd7455500000000000000000000000000000000000000000000000001ae6c3070c0c8bb0014fb",
          "blockHash": "0x4d3772d05501d04dc6065826a3910a8685a754585ca9cd90ce4673fee88e02f8",
          "blockNumber": "0x20e2f43",
          "transactionHash": "0x0d5d99ae15485cf08465006bcf6b968aca3283efe9ab12d7808f76b80775657a",
          "transactionIndex": "0x6",
          "logIndex": "0xc",
          "removed": false
        },
        {
          "address": "0xd8763cba276a3738e6de85b4b3bf5fded6d6ca73",
          "topics": [
            "0x8c5be1e5ebec7d5bd14f71427d1e84f3dd0314c0f7b2291e5b200ac8c7c3b925",
            "0x000000000000000000000000be729350f8cdfc19db6866e8579841188ee57f67",
            "0x000000000000000000000000777a8255ca72412f0d706dc03c9d1987306b4cad"
          ],
          "data": "0x0000000000000000000000000000000000000000000000000000000000000000",
          "blockHash": "0x4d3772d05501d04dc6065826a3910a8685a754585ca9cd90ce4673fee88e02f8",
          "blockNumber": "0x20e2f43",
          "transactionHash": "0x0d5d99ae15485cf08465006bcf6b968aca3283efe9ab12d7808f76b80775657a",
          "transactionIndex": "0x6",
          "logIndex": "0xd",
          "removed": false
        },
        {
          "address": "0xd8763cba276a3738e6de85b4b3bf5fded6d6ca73",
          "topics": [
            "0xddf252ad1be2c89b69c2b068fc378daa952ba7f163c4a11628f55a4df523b3ef",
            "0x000000000000000000000000be729350f8cdfc19db6866e8579841188ee57f67",
            "0x000000000000000000000000777a8255ca72412f0d706dc03c9d1987306b4cad"
          ],
          "data": "0x000000000000000000000000000000000000000000000000000e35fa931a0000",
          "blockHash": "0x4d3772d05501d04dc6065826a3910a8685a754585ca9cd90ce4673fee88e02f8",
          "blockNumber": "0x20e2f43",
          "transactionHash": "0x0d5d99ae15485cf08465006bcf6b968aca3283efe9ab12d7808f76b80775657a",
          "transactionIndex": "0x6",
          "logIndex": "0xe",
          "removed": false
        },
        {
          "address": "0xd8763cba276a3738e6de85b4b3bf5fded6d6ca73",
          "topics": [
            "0xddf252ad1be2c89b69c2b068fc378daa952ba7f163c4a11628f55a4df523b3ef",
            "0x000000000000000000000000777a8255ca72412f0d706dc03c9d1987306b4cad",
            "0x0000000000000000000000000000000000000000000000000000000000000000"
          ],
          "data": "0x000000000000000000000000000000000000000000000000000e35fa931a0000",
          "blockHash": "0x4d3772d05501d04dc6065826a3910a8685a754585ca9cd90ce4673fee88e02f8",
          "blockNumber": "0x20e2f43",
          "transactionHash": "0x0d5d99ae15485cf08465006bcf6b968aca3283efe9ab12d7808f76b80775657a",
          "transactionIndex": "0x6",
          "logIndex": "0xf",
          "removed": false
        },
        {
          "address": "0xceba9300f2b948710d2653dd7b07f33a8b32118c",
          "topics": [
            "0xddf252ad1be2c89b69c2b068fc378daa952ba7f163c4a11628f55a4df523b3ef",
            "0x0000000000000000000000009380fa34fd9e4fd14c06305fd7b6199089ed4eb9",
            "0x000000000000000000000000be729350f8cdfc19db6866e8579841188ee57f67"
          ],
          "data": "0x0000000000000000000000000000000000000000000000000000000000001199",
          "blockHash": "0x4d3772d05501d04dc6065826a3910a8685a754585ca9cd90ce4673fee88e02f8",
          "blockNumber": "0x20e2f43",
          "transactionHash": "0x0d5d99ae15485cf08465006bcf6b968aca3283efe9ab12d7808f76b80775657a",
          "transactionIndex": "0x6",
          "logIndex": "0x10",
          "removed": false
        },
        {
          "address": "0x9380fa34fd9e4fd14c06305fd7b6199089ed4eb9",
          "topics": [
            "0xc171b15fb47a5beb3e11b1951d4518544f699edd6acd893d8695c91703922b60",
            "0x000000000000000000000000777a8255ca72412f0d706dc03c9d1987306b4cad",
            "0x000000000000000000000000be729350f8cdfc19db6866e8579841188ee57f67"
          ],
          "data": "0x0000000000000000000000000000000000000000000000000000000000001199000000000000000000000000ceba9300f2b948710d2653dd7b07f33a8b32118c",
          "blockHash": "0x4d3772d05501d04dc6065826a3910a8685a754585ca9cd90ce4673fee88e02f8",
          "blockNumber": "0x20e2f43",
          "transactionHash": "0x0d5d99ae15485cf08465006bcf6b968aca3283efe9ab12d7808f76b80775657a",
          "transactionIndex": "0x6",
          "logIndex": "0x11",
          "removed": false
        },
        {
          "address": "0x777a8255ca72412f0d706dc03c9d1987306b4cad",
          "topics": [
            "0xe7b046415cac9de47940c3087e06db13a0e058ccf53ac5f0edd49ebb4c2c3a6f",
            "0x99be8b8341ba00914600cda701568ab27eea9aca7a32fa48c26e07b86841020c",
            "0x000000000000000000000000be729350f8cdfc19db6866e8579841188ee57f67",
            "0x000000000000000000000000d8763cba276a3738e6de85b4b3bf5fded6d6ca73"
          ],
          "data": "0x00000000000000000000000022d9db95e6ae61c104a7b6f6c78d7993b94ec901000000000000000000000000ceba9300f2b948710d2653dd7b07f33a8b32118c000000000000000000000000000000000000000000000000000e35fa931a00000000000000000000000000000000000000000000000000000000000000001199",
          "blockHash": "0x4d3772d05501d04dc6065826a3910a8685a754585ca9cd90ce4673fee88e02f8",
          "blockNumber": "0x20e2f43",
          "transactionHash": "0x0d5d99ae15485cf08465006bcf6b968aca3283efe9ab12d7808f76b80775657a",
          "transactionIndex": "0x6",
          "logIndex": "0x12",
          "removed": false
        },
        {
          "address": "0xceba9300f2b948710d2653dd7b07f33a8b32118c",
          "topics": [
            "0x8c5be1e5ebec7d5bd14f71427d1e84f3dd0314c0f7b2291e5b200ac8c7c3b925",
            "0x000000000000000000000000be729350f8cdfc19db6866e8579841188ee57f67",
            "0x000000000000000000000000777a8255ca72412f0d706dc03c9d1987306b4cad"
          ],
          "data": "0x0000000000000000000000000000000000000000000000000000000000001199",
          "blockHash": "0x4d3772d05501d04dc6065826a3910a8685a754585ca9cd90ce4673fee88e02f8",
          "blockNumber": "0x20e2f43",
          "transactionHash": "0x0d5d99ae15485cf08465006bcf6b968aca3283efe9ab12d7808f76b80775657a",
          "transactionIndex": "0x6",
          "logIndex": "0x13",
          "removed": false
        },
        {
          "address": "0x22d9db95e6ae61c104a7b6f6c78d7993b94ec901",
          "topics": [
            "0x949f5db193cbfa01f2d443b1c656bfede15497de0d86838cea089bd60c438342",
            "0xe8693b17c0f002f6a2fe839525557cef10dfeacef9e16c9bbdcb01c57933ce58"
          ],
          "data": "0x000000000000000000000000000000000000000000017d2a320dd745550000000000000000000000000000000000000000000000000042f61a26fc176e893128",
          "blockHash": "0x4d3772d05501d04dc6065826a3910a8685a754585ca9cd90ce4673fee88e02f8",
          "blockNumber": "0x20e2f43",
          "transactionHash": "0x0d5d99ae15485cf08465006bcf6b968aca3283efe9ab12d7808f76b80775657a",
          "transactionIndex": "0x6",
          "logIndex": "0x14",
          "removed": false
        },
        {
          "address": "0xceba9300f2b948710d2653dd7b07f33a8b32118c",
          "topics": [
            "0xddf252ad1be2c89b69c2b068fc378daa952ba7f163c4a11628f55a4df523b3ef",
            "0x000000000000000000000000be729350f8cdfc19db6866e8579841188ee57f67",
            "0x0000000000000000000000009380fa34fd9e4fd14c06305fd7b6199089ed4eb9"
          ],
          "data": "0x0000000000000000000000000000000000000000000000000000000000001199",
          "blockHash": "0x4d3772d05501d04dc6065826a3910a8685a754585ca9cd90ce4673fee88e02f8",
          "blockNumber": "0x20e2f43",
          "transactionHash": "0x0d5d99ae15485cf08465006bcf6b968aca3283efe9ab12d7808f76b80775657a",
          "transactionIndex": "0x6",
          "logIndex": "0x15",
          "removed": false
        },
        {
          "address": "0xe8537a3d056da446677b9e9d6c5db704eaab4787",
          "topics": [
            "0xddf252ad1be2c89b69c2b068fc378daa952ba7f163c4a11628f55a4df523b3ef",
            "0x0000000000000000000000000000000000000000000000000000000000000000",
            "0x000000000000000000000000be729350f8cdfc19db6866e8579841188ee57f67"
          ],
          "data": "0x000000000000000000000000000000000000000000000000005ae0a7225168e8",
          "blockHash": "0x4d3772d05501d04dc6065826a3910a8685a754585ca9cd90ce4673fee88e02f8",
          "blockNumber": "0x20e2f43",
          "transactionHash": "0x0d5d99ae15485cf08465006bcf6b968aca3283efe9ab12d7808f76b80775657a",
          "transactionIndex": "0x6",
          "logIndex": "0x16",
          "removed": false
        },
        {
          "address": "0x777a8255ca72412f0d706dc03c9d1987306b4cad",
          "topics": [
            "0xe7b046415cac9de47940c3087e06db13a0e058ccf53ac5f0edd49ebb4c2c3a6f",
            "0xe8693b17c0f002f6a2fe839525557cef10dfeacef9e16c9bbdcb01c57933ce58",
            "0x000000000000000000000000be729350f8cdfc19db6866e8579841188ee57f67",
            "0x000000000000000000000000ceba9300f2b948710d2653dd7b07f33a8b32118c"
          ],
          "data": "0x00000000000000000000000022d9db95e6ae61c104a7b6f6c78d7993b94ec901000000000000000000000000e8537a3d056da446677b9e9d6c5db704eaab47870000000000000000000000000000000000000000000000000000000000001199000000000000000000000000000000000000000000000000005ae0a7225168e8",
          "blockHash": "0x4d3772d05501d04dc6065826a3910a8685a754585ca9cd90ce4673fee88e02f8",
          "blockNumber": "0x20e2f43",
          "transactionHash": "0x0d5d99ae15485cf08465006bcf6b968aca3283efe9ab12d7808f76b80775657a",
          "transactionIndex": "0x6",
          "logIndex": "0x17",
          "removed": false
        },
        {
          "address": "0xe8537a3d056da446677b9e9d6c5db704eaab4787",
          "topics": [
            "0xddf252ad1be2c89b69c2b068fc378daa952ba7f163c4a11628f55a4df523b3ef",
            "0x000000000000000000000000be729350f8cdfc19db6866e8579841188ee57f67",
            "0x000000000000000000000000f78c5ea359734be41bd50635a36d3655d50600e2"
          ],
          "data": "0x000000000000000000000000000000000000000000000000005ae0a7225168e8",
          "blockHash": "0x4d3772d05501d04dc6065826a3910a8685a754585ca9cd90ce4673fee88e02f8",
          "blockNumber": "0x20e2f43",
          "transactionHash": "0x0d5d99ae15485cf08465006bcf6b968aca3283efe9ab12d7808f76b80775657a",
          "transactionIndex": "0x6",
          "logIndex": "0x18",
          "removed": false
        },
        {
          "address": "0xe8537a3d056da446677b9e9d6c5db704eaab4787",
          "topics": [
            "0xddf252ad1be2c89b69c2b068fc378daa952ba7f163c4a11628f55a4df523b3ef",
            "0x000000000000000000000000f78c5ea359734be41bd50635a36d3655d50600e2",
            "0x0000000000000000000000008a0d290b2ee35efde47810ca8ff057e109e4190b"
          ],
          "data": "0x000000000000000000000000000000000000000000000000005ae0a7225168e8",
          "blockHash": "0x4d3772d05501d04dc6065826a3910a8685a754585ca9cd90ce4673fee88e02f8",
          "blockNumber": "0x20e2f43",
          "transactionHash": "0x0d5d99ae15485cf08465006bcf6b968aca3283efe9ab12d7808f76b80775657a",
          "transactionIndex": "0x6",
          "logIndex": "0x19",
          "removed": false
        },
        {
          "address": "0x5076ac406b8d65951204a3fc36ed4d81ebfea3c4",
          "topics": [
            "0xddf252ad1be2c89b69c2b068fc378daa952ba7f163c4a11628f55a4df523b3ef",
            "0x0000000000000000000000000000000000000000000000000000000000000000",
            "0x0000000000000000000000008a0d290b2ee35efde47810ca8ff057e109e4190b",
            "0x0000000000000000000000000000000000000000000000000000000000000001"
          ],
          "data": "0x",
          "blockHash": "0x4d3772d05501d04dc6065826a3910a8685a754585ca9cd90ce4673fee88e02f8",
          "blockNumber": "0x20e2f43",
          "transactionHash": "0x0d5d99ae15485cf08465006bcf6b968aca3283efe9ab12d7808f76b80775657a",
          "transactionIndex": "0x6",
          "logIndex": "0x1a",
          "removed": false
        },
        {
          "address": "0x5076ac406b8d65951204a3fc36ed4d81ebfea3c4",
          "topics": [
            "0xddf252ad1be2c89b69c2b068fc378daa952ba7f163c4a11628f55a4df523b3ef",
            "0x0000000000000000000000000000000000000000000000000000000000000000",
            "0x0000000000000000000000008a0d290b2ee35efde47810ca8ff057e109e4190b",
            "0x0000000000000000000000000000000000000000000000000000000000000002"
          ],
          "data": "0x",
          "blockHash": "0x4d3772d05501d04dc6065826a3910a8685a754585ca9cd90ce4673fee88e02f8",
          "blockNumber": "0x20e2f43",
          "transactionHash": "0x0d5d99ae15485cf08465006bcf6b968aca3283efe9ab12d7808f76b80775657a",
          "transactionIndex": "0x6",
          "logIndex": "0x1b",
          "removed": false
        },
        {
          "address": "0xf78c5ea359734be41bd50635a36d3655d50600e2",
          "topics": [
            "0xbf31e73e9419da4a56fe1ca5fde1fe85191f5280d387ea1f10c794c77305bcec",
            "0x0000000000000000000000000000000000000000000000000000000000000001"
          ],
          "data": "0x0000000000000000000000008a0d290b2ee35efde47810ca8ff057e109e4190b0000000000000000000000000000000000000000000000000000000000000002000000000000000000000000d8763cba276a3738e6de85b4b3bf5fded6d6ca73",
          "blockHash": "0x4d3772d05501d04dc6065826a3910a8685a754585ca9cd90ce4673fee88e02f8",
          "blockNumber": "0x20e2f43",
          "transactionHash": "0x0d5d99ae15485cf08465006bcf6b968aca3283efe9ab12d7808f76b80775657a",
          "transactionIndex": "0x6",
          "logIndex": "0x1c",
          "removed": false
        }
      ],
      "logsBloom": "0x048010000000100002001000000000000000000080000000000000000000000000000000000000080400a0000000200000000000000000000000000000240010020000002008000000000048000000010040802000440000000000000004000000008080020100000000000020000800000800000000000000000010002000000408000000200010400000001000000000000000800000000000000400004000020009000000000000000100000000000000000000000000000044000024880002080002000000000000020000002000000000040400000004000000000060000010000080004010000c00000810000000000000028000100001000000400000",
      "type": "0x0",
      "transactionHash": "0x0d5d99ae15485cf08465006bcf6b968aca3283efe9ab12d7808f76b80775657a",
      "transactionIndex": "0x6",
      "blockHash": "0x4d3772d05501d04dc6065826a3910a8685a754585ca9cd90ce4673fee88e02f8",
      "blockNumber": "0x20e2f43",
      "gasUsed": "0x1014da",
      "effectiveGasPrice": "0x5d22cfc40",
      "from": "0x8a0d290b2ee35efde47810ca8ff057e109e4190b",
      "to": "0xf78c5ea359734be41bd50635a36d3655d50600e2",
      "contractAddress": null,
      "l1BaseFeeScalar": "0x0",
      "l1BlobBaseFee": "0x6a83078",
      "l1BlobBaseFeeScalar": "0x0",
      "l1Fee": "0x0",
      "l1GasPrice": "0xa26a0128",
      "l1GasUsed": "0x640"
    }
  ],
  "libraries": [],
  "pending": [],
  "returns": {},
  "timestamp": 1746384795,
  "chain": 42220,
  "commit": "d22355c"
}