{
  "transactions": [
    {
      "hash": "0x80b6b92a69569f8db7bf82bced7258ac47589f7e436e4e920ebc13047d136e46",
      "transactionType": "CALL",
      "contractName": null,
      "contractAddress": "0x96cfa0e76bd15d99a1230ca3955be5e677b746a6",
      "function": "listProperty(string,address,uint256,string)",
      "arguments": [
        "Taj Mahal Hotel",
        "0xcebA9300f2b948710d2653dD7B07f33A8B32118C",
        "10000000000000000",
        "ipfs://QmTajMahalHotelImage123"
      ],
      "transaction": {
        "from": "0x8a0d290b2ee35efde47810ca8ff057e109e4190b",
        "to": "0x96cfa0e76bd15d99a1230ca3955be5e677b746a6",
        "gas": "0x38054",
        "value": "0x0",
        "input": "0x91df597f0000000000000000000000000000000000000000000000000000000000000080000000000000000000000000ceba9300f2b948710d2653dd7b07f33a8b32118c000000000000000000000000000000000000000000000000002386f26fc1000000000000000000000000000000000000000000000000000000000000000000c0000000000000000000000000000000000000000000000000000000000000000f54616a204d6168616c20486f74656c0000000000000000000000000000000000000000000000000000000000000000000000000000000000000000000000001e697066733a2f2f516d54616a4d6168616c486f74656c496d6167653132330000",
        "nonce": "0x17",
        "chainId": "0xa4ec"
      },
      "additionalContracts": [],
      "isFixedGasLimit": false
    },
    {
      "hash": "0x2e498b44b53f3a9f614807cc4a873d77f1d5f9947ed3c710dc82c92763d873ca",
      "transactionType": "CALL",
      "contractName": null,
      "contractAddress": "0x765de816845861e75a25fca122bb6898b8b1282a",
      "function": "approve(address,uint256)",
      "arguments": [
        "0x96CFA0E76Bd15d99A1230CA3955be5E677B746a6",
        "115792089237316195423570985008687907853269984665640564039457584007913129639935"
      ],
      "transaction": {
        "from": "0x8a0d290b2ee35efde47810ca8ff057e109e4190b",
        "to": "0x765de816845861e75a25fca122bb6898b8b1282a",
        "gas": "0xb5a2",
        "value": "0x0",
        "input": "0x095ea7b300000000000000000000000096cfa0e76bd15d99a1230ca3955be5e677b746a6ffffffffffffffffffffffffffffffffffffffffffffffffffffffffffffffff",
        "nonce": "0x18",
        "chainId": "0xa4ec"
      },
      "additionalContracts": [],
      "isFixedGasLimit": false
    },
    {
      "hash": "0x633adf385ad39a09a5debc98b4f4b2189adb553f13389e2b489614c4e64bfd37",
      "transactionType": "CALL",
      "contractName": null,
      "contractAddress": "0x96cfa0e76bd15d99a1230ca3955be5e677b746a6",
      "function": "payRent(uint256,uint256,address)",
      "arguments": [
        "1",
        "1",
        "0x765DE816845861e75A25fCA122bb6898B8B1282a"
      ],
      "transaction": {
        "from": "0x8a0d290b2ee35efde47810ca8ff057e109e4190b",
        "to": "0x96cfa0e76bd15d99a1230ca3955be5e677b746a6",
        "gas": "0x66505",
        "value": "0x0",
        "input": "0x24399b9e00000000000000000000000000000000000000000000000000000000000000010000000000000000000000000000000000000000000000000000000000000001000000000000000000000000765de816845861e75a25fca122bb6898b8b1282a",
        "nonce": "0x19",
        "chainId": "0xa4ec"
      },
      "additionalContracts": [],
      "isFixedGasLimit": false
    }
  ],
  "receipts": [
    {
      "status": "0x1",
      "cumulativeGasUsed": "0x1a7d8a",
      "logs": [
        {
          "address": "0x96cfa0e76bd15d99a1230ca3955be5e677b746a6",
          "topics": [
            "0xb18344ef8baa750d3a903211956af26a995a3b8a1ea274bdb9cdb60eaef14da9",
            "0x0000000000000000000000000000000000000000000000000000000000000002"
          ],
          "data": "0x0000000000000000000000008a0d290b2ee35efde47810ca8ff057e109e4190b0000000000000000000000000000000000000000000000000000000000000080000000000000000000000000ceba9300f2b948710d2653dd7b07f33a8b32118c000000000000000000000000000000000000000000000000002386f26fc10000000000000000000000000000000000000000000000000000000000000000000f54616a204d6168616c20486f74656c0000000000000000000000000000000000",
          "blockHash": "0x1217e0563fd84f87fbbf4e7bac46e5c5c013b9191d6eea241a6f585a88017655",
          "blockNumber": "0x20a023e",
          "transactionHash": "0x80b6b92a69569f8db7bf82bced7258ac47589f7e436e4e920ebc13047d136e46",
          "transactionIndex": "0xa",
          "logIndex": "0x25",
          "removed": false
        }
      ],
      "logsBloom": "0x04000000000000000000000000000000000000000000000000000000000000000080000000000020000400000000000000000000000000000000000000000000000000000000000000000000000000000000000000000000000000000000000000000000080000000000000000000000000000000000000000000000000040000000000000000000000000000000000000000000000000000000000000000000000000000000000000000100000000000000000000000000000000000000000000000000000000000000000000000000000000000000000000000000000000000000000000000000000000000000000000000000008000008000000000000000",
      "type": "0x0",
      "transactionHash": "0x80b6b92a69569f8db7bf82bced7258ac47589f7e436e4e920ebc13047d136e46",
      "transactionIndex": "0xa",
      "blockHash": "0x1217e0563fd84f87fbbf4e7bac46e5c5c013b9191d6eea241a6f585a88017655",
      "blockNumber": "0x20a023e",
      "gasUsed": "0x288ee",
      "effectiveGasPrice": "0x5d22cfc40",
      "from": "0x8a0d290b2ee35efde47810ca8ff057e109e4190b",
      "to": "0x96cfa0e76bd15d99a1230ca3955be5e677b746a6",
      "contractAddress": null,
      "l1BaseFeeScalar": "0x0",
      "l1BlobBaseFee": "0xf0a79d117",
      "l1BlobBaseFeeScalar": "0x0",
      "l1Fee": "0x0",
      "l1GasPrice": "0x37bd08b7",
      "l1GasUsed": "0x90c"
    },
    {
      "status": "0x1",
      "cumulativeGasUsed": "0xd0efd",
      "logs": [
        {
          "address": "0x765de816845861e75a25fca122bb6898b8b1282a",
          "topics": [
            "0x8c5be1e5ebec7d5bd14f71427d1e84f3dd0314c0f7b2291e5b200ac8c7c3b925",
            "0x0000000000000000000000008a0d290b2ee35efde47810ca8ff057e109e4190b",
            "0x00000000000000000000000096cfa0e76bd15d99a1230ca3955be5e677b746a6"
          ],
          "data": "0xffffffffffffffffffffffffffffffffffffffffffffffffffffffffffffffff",
          "blockHash": "0x17ef37b3214cd672fc99ead6dbd97b36a979a1b2cc9c326d7cb5a381f28c6c44",
          "blockNumber": "0x20a023f",
          "transactionHash": "0x2e498b44b53f3a9f614807cc4a873d77f1d5f9947ed3c710dc82c92763d873ca",
          "transactionIndex": "0x6",
          "logIndex": "0x12",
          "removed": false
        }
      ],
      "logsBloom": "0x00000000000000000000000000000000000000000000000000000000000000000000080000000000040000002000000000000000000000000000000000200000000000000000000000000000000000000000000000000000000000000000000000000000000100000000000000000000000000000000800000000400000000000000000000000000000000002000000000000000000000000000000000000000020000000000000000000000000000000000000000000000000000000000000000000000000000000000000000000000000800000400000000000000000000000010000000000000000000000000000000000000000000000000000000000000",
      "type": "0x0",
      "transactionHash": "0x2e498b44b53f3a9f614807cc4a873d77f1d5f9947ed3c710dc82c92763d873ca",
      "transactionIndex": "0x6",
      "blockHash": "0x17ef37b3214cd672fc99ead6dbd97b36a979a1b2cc9c326d7cb5a381f28c6c44",
      "blockNumber": "0x20a023f",
      "gasUsed": "0x7c32",
      "effectiveGasPrice": "0x5d22cfc40",
      "from": "0x8a0d290b2ee35efde47810ca8ff057e109e4190b",
      "to": "0x765de816845861e75a25fca122bb6898b8b1282a",
      "contractAddress": null,
      "l1BaseFeeScalar": "0x0",
      "l1BlobBaseFee": "0xf0a79d117",
      "l1BlobBaseFeeScalar": "0x0",
      "l1Fee": "0x0",
      "l1GasPrice": "0x37bd08b7",
      "l1GasUsed": "0x640"
    },
    {
      "status": "0x1",
      "cumulativeGasUsed": "0x11b02a",
      "logs": [
        {
          "address": "0x765de816845861e75a25fca122bb6898b8b1282a",
          "topics": [
            "0xddf252ad1be2c89b69c2b068fc378daa952ba7f163c4a11628f55a4df523b3ef",
            "0x0000000000000000000000008a0d290b2ee35efde47810ca8ff057e109e4190b",
            "0x00000000000000000000000096cfa0e76bd15d99a1230ca3955be5e677b746a6"
          ],
          "data": "0x00000000000000000000000000000000000000000000000000000000000f4240",
          "blockHash": "0x17ef37b3214cd672fc99ead6dbd97b36a979a1b2cc9c326d7cb5a381f28c6c44",
          "blockNumber": "0x20a023f",
          "transactionHash": "0x633adf385ad39a09a5debc98b4f4b2189adb553f13389e2b489614c4e64bfd37",
          "transactionIndex": "0x7",
          "logIndex": "0x13",
          "removed": false
        },
        {
          "address": "0x765de816845861e75a25fca122bb6898b8b1282a",
          "topics": [
            "0x8c5be1e5ebec7d5bd14f71427d1e84f3dd0314c0f7b2291e5b200ac8c7c3b925",
            "0x00000000000000000000000096cfa0e76bd15d99a1230ca3955be5e677b746a6",
            "0x000000000000000000000000777a8255ca72412f0d706dc03c9d1987306b4cad"
          ],
          "data": "0x00000000000000000000000000000000000000000000000000000000000f4240",
          "blockHash": "0x17ef37b3214cd672fc99ead6dbd97b36a979a1b2cc9c326d7cb5a381f28c6c44",
          "blockNumber": "0x20a023f",
          "transactionHash": "0x633adf385ad39a09a5debc98b4f4b2189adb553f13389e2b489614c4e64bfd37",
          "transactionIndex": "0x7",
          "logIndex": "0x14",
          "removed": false
        },
        {
          "address": "0x765de816845861e75a25fca122bb6898b8b1282a",
          "topics": [
            "0x8c5be1e5ebec7d5bd14f71427d1e84f3dd0314c0f7b2291e5b200ac8c7c3b925",
            "0x00000000000000000000000096cfa0e76bd15d99a1230ca3955be5e677b746a6",
            "0x000000000000000000000000777a8255ca72412f0d706dc03c9d1987306b4cad"
          ],
          "data": "0x0000000000000000000000000000000000000000000000000000000000000000",
          "blockHash": "0x17ef37b3214cd672fc99ead6dbd97b36a979a1b2cc9c326d7cb5a381f28c6c44",
          "blockNumber": "0x20a023f",
          "transactionHash": "0x633adf385ad39a09a5debc98b4f4b2189adb553f13389e2b489614c4e64bfd37",
          "transactionIndex": "0x7",
          "logIndex": "0x15",
          "removed": false
        },
        {
          "address": "0x765de816845861e75a25fca122bb6898b8b1282a",
          "topics": [
            "0xddf252ad1be2c89b69c2b068fc378daa952ba7f163c4a11628f55a4df523b3ef",
            "0x00000000000000000000000096cfa0e76bd15d99a1230ca3955be5e677b746a6",
            "0x000000000000000000000000777a8255ca72412f0d706dc03c9d1987306b4cad"
          ],
          "data": "0x00000000000000000000000000000000000000000000000000000000000f4240",
          "blockHash": "0x17ef37b3214cd672fc99ead6dbd97b36a979a1b2cc9c326d7cb5a381f28c6c44",
          "blockNumber": "0x20a023f",
          "transactionHash": "0x633adf385ad39a09a5debc98b4f4b2189adb553f13389e2b489614c4e64bfd37",
          "transactionIndex": "0x7",
          "logIndex": "0x16",
          "removed": false
        },
        {
          "address": "0x765de816845861e75a25fca122bb6898b8b1282a",
          "topics": [
            "0xddf252ad1be2c89b69c2b068fc378daa952ba7f163c4a11628f55a4df523b3ef",
            "0x000000000000000000000000777a8255ca72412f0d706dc03c9d1987306b4cad",
            "0x0000000000000000000000000000000000000000000000000000000000000000"
          ],
          "data": "0x00000000000000000000000000000000000000000000000000000000000f4240",
          "blockHash": "0x17ef37b3214cd672fc99ead6dbd97b36a979a1b2cc9c326d7cb5a381f28c6c44",
          "blockNumber": "0x20a023f",
          "transactionHash": "0x633adf385ad39a09a5debc98b4f4b2189adb553f13389e2b489614c4e64bfd37",
          "transactionIndex": "0x7",
          "logIndex": "0x17",
          "removed": false
        },
        {
          "address": "0xceba9300f2b948710d2653dd7b07f33a8b32118c",
          "topics": [
            "0xddf252ad1be2c89b69c2b068fc378daa952ba7f163c4a11628f55a4df523b3ef",
            "0x0000000000000000000000009380fa34fd9e4fd14c06305fd7b6199089ed4eb9",
            "0x00000000000000000000000096cfa0e76bd15d99a1230ca3955be5e677b746a6"
          ],
          "data": "0x0000000000000000000000000000000000000000000000000000000000000000",
          "blockHash": "0x17ef37b3214cd672fc99ead6dbd97b36a979a1b2cc9c326d7cb5a381f28c6c44",
          "blockNumber": "0x20a023f",
          "transactionHash": "0x633adf385ad39a09a5debc98b4f4b2189adb553f13389e2b489614c4e64bfd37",
          "transactionIndex": "0x7",
          "logIndex": "0x18",
          "removed": false
        },
        {
          "address": "0x9380fa34fd9e4fd14c06305fd7b6199089ed4eb9",
          "topics": [
            "0xc171b15fb47a5beb3e11b1951d4518544f699edd6acd893d8695c91703922b60",
            "0x000000000000000000000000777a8255ca72412f0d706dc03c9d1987306b4cad",
            "0x00000000000000000000000096cfa0e76bd15d99a1230ca3955be5e677b746a6"
          ],
          "data": "0x0000000000000000000000000000000000000000000000000000000000000000000000000000000000000000ceba9300f2b948710d2653dd7b07f33a8b32118c",
          "blockHash": "0x17ef37b3214cd672fc99ead6dbd97b36a979a1b2cc9c326d7cb5a381f28c6c44",
          "blockNumber": "0x20a023f",
          "transactionHash": "0x633adf385ad39a09a5debc98b4f4b2189adb553f13389e2b489614c4e64bfd37",
          "transactionIndex": "0x7",
          "logIndex": "0x19",
          "removed": false
        },
        {
          "address": "0x777a8255ca72412f0d706dc03c9d1987306b4cad",
          "topics": [
            "0xe7b046415cac9de47940c3087e06db13a0e058ccf53ac5f0edd49ebb4c2c3a6f",
            "0xacc988382b66ee5456086643dcfd9a5ca43dd8f428f6ef22503d8b8013bcffd7",
            "0x00000000000000000000000096cfa0e76bd15d99a1230ca3955be5e677b746a6",
            "0x000000000000000000000000765de816845861e75a25fca122bb6898b8b1282a"
          ],
          "data": "0x00000000000000000000000022d9db95e6ae61c104a7b6f6c78d7993b94ec901000000000000000000000000ceba9300f2b948710d2653dd7b07f33a8b32118c00000000000000000000000000000000000000000000000000000000000f42400000000000000000000000000000000000000000000000000000000000000000",
          "blockHash": "0x17ef37b3214cd672fc99ead6dbd97b36a979a1b2cc9c326d7cb5a381f28c6c44",
          "blockNumber": "0x20a023f",
          "transactionHash": "0x633adf385ad39a09a5debc98b4f4b2189adb553f13389e2b489614c4e64bfd37",
          "transactionIndex": "0x7",
          "logIndex": "0x1a",
          "removed": false
        },
        {
          "address": "0xceba9300f2b948710d2653dd7b07f33a8b32118c",
          "topics": [
            "0xddf252ad1be2c89b69c2b068fc378daa952ba7f163c4a11628f55a4df523b3ef",
            "0x00000000000000000000000096cfa0e76bd15d99a1230ca3955be5e677b746a6",
            "0x0000000000000000000000008a0d290b2ee35efde47810ca8ff057e109e4190b"
          ],
          "data": "0x0000000000000000000000000000000000000000000000000000000000000000",
          "blockHash": "0x17ef37b3214cd672fc99ead6dbd97b36a979a1b2cc9c326d7cb5a381f28c6c44",
          "blockNumber": "0x20a023f",
          "transactionHash": "0x633adf385ad39a09a5debc98b4f4b2189adb553f13389e2b489614c4e64bfd37",
          "transactionIndex": "0x7",
          "logIndex": "0x1b",
          "removed": false
        },
        {
          "address": "0x96cfa0e76bd15d99a1230ca3955be5e677b746a6",
          "topics": [
            "0x8369debc964748136513ed9e8988cfc4f2089cc7460071ef445ec215cedb1946",
            "0x0000000000000000000000000000000000000000000000000000000000000001"
          ],
          "data": "0x0000000000000000000000008a0d290b2ee35efde47810ca8ff057e109e4190b00000000000000000000000000000000000000000000000000000000000f4240000000000000000000000000765de816845861e75a25fca122bb6898b8b1282a",
          "blockHash": "0x17ef37b3214cd672fc99ead6dbd97b36a979a1b2cc9c326d7cb5a381f28c6c44",
          "blockNumber": "0x20a023f",
          "transactionHash": "0x633adf385ad39a09a5debc98b4f4b2189adb553f13389e2b489614c4e64bfd37",
          "transactionIndex": "0x7",
          "logIndex": "0x1c",
          "removed": false
        }
      ],
      "logsBloom": "0x00800000000000000200100000000000000000008000000000000000000000000080080000000020040400002000000000000000000000000000000000240000000000002000000000000048000000010000800000040000000000000000000000008080c20100000000000000000c00000800000000800000000410002000000008000000200000001000003000000000000000000000000800000000000000020000000000000100000000000000000010000000000000000040000004000000000002000000000000020000000000002800000400000000000000000060000010000000000000000c40000000000000000000000000100000000000000000",
      "type": "0x0",
      "transactionHash": "0x633adf385ad39a09a5debc98b4f4b2189adb553f13389e2b489614c4e64bfd37",
      "transactionIndex": "0x7",
      "blockHash": "0x17ef37b3214cd672fc99ead6dbd97b36a979a1b2cc9c326d7cb5a381f28c6c44",
      "blockNumber": "0x20a023f",
      "gasUsed": "0x4a12d",
      "effectiveGasPrice": "0x5d22cfc40",
      "from": "0x8a0d290b2ee35efde47810ca8ff057e109e4190b",
      "to": "0x96cfa0e76bd15d99a1230ca3955be5e677b746a6",
      "contractAddress": null,
      "l1BaseFeeScalar": "0x0",
      "l1BlobBaseFee": "0xf0a79d117",
      "l1BlobBaseFeeScalar": "0x0",
      "l1Fee": "0x0",
      "l1GasPrice": "0x37bd08b7",
      "l1GasUsed": "0x640"
    }
  ],
  "libraries": [],
  "pending": [],
  "returns": {},
  "timestamp": 1746111125,
  "chain": 42220,
  "commit": "eee9e0b"
}