{
  "transactions": [
    {
      "hash": "0x2f39d998a363fa029d4c7005a8846910024caa614d73135f17d3db8fdeb1c592",
      "transactionType": "CALL",
      "contractName": null,
      "contractAddress": "0xe9980a142d5d3610a4a32693d4325b563dfe6404",
      "function": "listProperty(string,address,uint256,string)",
      "arguments": [
        "Hotel California",
        "0x765DE816845861e75A25fCA122bb6898B8B1282a",
        "3000000000000000",
        "ipfs://bafkreiaijjzijufrqbsxbgtrssvtacjzkclrzsmbysd5zxd6qqdb4rzcye"
      ],
      "transaction": {
        "from": "0x8a0d290b2ee35efde47810ca8ff057e109e4190b",
        "to": "0xe9980a142d5d3610a4a32693d4325b563dfe6404",
        "gas": "0x4ebd8",
        "value": "0x0",
        "input": "0x91df597f0000000000000000000000000000000000000000000000000000000000000080000000000000000000000000765de816845861e75a25fca122bb6898b8b1282a000000000000000000000000000000000000000000000000000aa87bee53800000000000000000000000000000000000000000000000000000000000000000c00000000000000000000000000000000000000000000000000000000000000010486f74656c2043616c69666f726e6961000000000000000000000000000000000000000000000000000000000000000000000000000000000000000000000042697066733a2f2f6261666b72656961696a6a7a696a75667271627378626774727373767461636a7a6b636c727a736d62797364357a7864367171646234727a637965000000000000000000000000000000000000000000000000000000000000",
        "nonce": "0x30",
        "chainId": "0xa4ec"
      },
      "additionalContracts": [],
      "isFixedGasLimit": false
    },
    {
      "hash": "0x364eaf048f40b0670b9030051158e6c687279639596b358b70ff1e889d9843aa",
      "transactionType": "CALL",
      "contractName": null,
      "contractAddress": "0xe9980a142d5d3610a4a32693d4325b563dfe6404",
      "function": "listProperty(string,address,uint256,string)",
      "arguments": [
        "Grand Budapest",
        "0xe8537a3d056DA446677B9E9d6c5dB704EaAb4787",
        "3000000000000000",
        "ipfs://bafkreiagckt7dp2dt6rvzwkhi7tv5vblamb7ybrmudocsmqd6mnwm27p5y"
      ],
      "transaction": {
        "from": "0x8a0d290b2ee35efde47810ca8ff057e109e4190b",
        "to": "0xe9980a142d5d3610a4a32693d4325b563dfe6404",
        "gas": "0x4ebb8",
        "value": "0x0",
        "input": "0x91df597f0000000000000000000000000000000000000000000000000000000000000080000000000000000000000000e8537a3d056da446677b9e9d6c5db704eaab4787000000000000000000000000000000000000000000000000000aa87bee53800000000000000000000000000000000000000000000000000000000000000000c0000000000000000000000000000000000000000000000000000000000000000e4772616e642042756461706573740000000000000000000000000000000000000000000000000000000000000000000000000000000000000000000000000042697066733a2f2f6261666b7265696167636b743764703264743672767a776b68693774763576626c616d62377962726d75646f63736d7164366d6e776d3237703579000000000000000000000000000000000000000000000000000000000000",
        "nonce": "0x31",
        "chainId": "0xa4ec"
      },
      "additionalContracts": [],
      "isFixedGasLimit": false
    },
    {
      "hash": "0xdaeb3d5f66a7cd4da474f179bfbd733a00bd1cfb23bebd62aaed5a41602ae13e",
      "transactionType": "CALL",
      "contractName": null,
      "contractAddress": "0xe9980a142d5d3610a4a32693d4325b563dfe6404",
      "function": "listProperty(string,address,uint256,string)",
      "arguments": [
        "The Overlook",
        "0xD8763CBa276a3738E6DE85b4b3bF5FDed6D6cA73",
        "3000000000000000",
        "ipfs://bafkreie6t6dskxvh5f5ch35csuinw66lchbkm7pcb4fu7zqiaty65q66ei"
      ],
      "transaction": {
        "from": "0x8a0d290b2ee35efde47810ca8ff057e109e4190b",
        "to": "0xe9980a142d5d3610a4a32693d4325b563dfe6404",
        "gas": "0x4eb96",
        "value": "0x0",
        "input": "0x91df597f0000000000000000000000000000000000000000000000000000000000000080000000000000000000000000d8763cba276a3738e6de85b4b3bf5fded6d6ca73000000000000000000000000000000000000000000000000000aa87bee53800000000000000000000000000000000000000000000000000000000000000000c0000000000000000000000000000000000000000000000000000000000000000c546865204f7665726c6f6f6b00000000000000000000000000000000000000000000000000000000000000000000000000000000000000000000000000000042697066733a2f2f6261666b7265696536743664736b78766835663563683335637375696e7736366c6368626b6d37706362346675377a716961747936357136366569000000000000000000000000000000000000000000000000000000000000",
        "nonce": "0x32",
        "chainId": "0xa4ec"
      },
      "additionalContracts": [],
      "isFixedGasLimit": false
    }
  ],
  "receipts": [
    {
      "status": "0x1",
      "cumulativeGasUsed": "0x1939fb",
      "logs": [
        {
          "address": "0xe9980a142d5d3610a4a32693d4325b563dfe6404",
          "topics": [
            "0xb18344ef8baa750d3a903211956af26a995a3b8a1ea274bdb9cdb60eaef14da9",
            "0x0000000000000000000000000000000000000000000000000000000000000002"
          ],
          "data": "0x0000000000000000000000008a0d290b2ee35efde47810ca8ff057e109e4190b0000000000000000000000000000000000000000000000000000000000000080000000000000000000000000765de816845861e75a25fca122bb6898b8b1282a000000000000000000000000000000000000000000000000000aa87bee5380000000000000000000000000000000000000000000000000000000000000000010486f74656c2043616c69666f726e696100000000000000000000000000000000",
          "blockHash": "0x419c49a436bef372dfbbb61f6561701bb34fe588c1b4a765f804d589b731ad0a",
          "blockNumber": "0x20a33e3",
          "transactionHash": "0x2f39d998a363fa029d4c7005a8846910024caa614d73135f17d3db8fdeb1c592",
          "transactionIndex": "0xc",
          "logIndex": "0x2d",
          "removed": false
        }
      ],
      "logsBloom": "0x04000000000000000000000000000000000000000000000000000000000000000000000000000000000000000000000000000000000000000000000000000000000000000000000000000000000000000000000000000000000000000000000000000000080000000000000000000000000000000000000000000000000040000000000000000000000000000000000000000000000000000000000000000000000000000000000000000100000000000000000000000000000000000000000000080000000000000400000000000000000000000000000000000000000000000000000000000000000000000000000000000080008000008000000000000000",
      "type": "0x0",
      "transactionHash": "0x2f39d998a363fa029d4c7005a8846910024caa614d73135f17d3db8fdeb1c592",
      "transactionIndex": "0xc",
      "blockHash": "0x419c49a436bef372dfbbb61f6561701bb34fe588c1b4a765f804d589b731ad0a",
      "blockNumber": "0x20a33e3",
      "gasUsed": "0x3901c",
      "effectiveGasPrice": "0x5d22cfc40",
      "from": "0x8a0d290b2ee35efde47810ca8ff057e109e4190b",
      "to": "0xe9980a142d5d3610a4a32693d4325b563dfe6404",
      "contractAddress": null,
      "l1BaseFeeScalar": "0x0",
      "l1BlobBaseFee": "0xed15d41e",
      "l1BlobBaseFeeScalar": "0x0",
      "l1Fee": "0x0",
      "l1GasPrice": "0x73a71485",
      "l1GasUsed": "0xb81"
    },
    {
      "status": "0x1",
      "cumulativeGasUsed": "0x1db5da",
      "logs": [
        {
          "address": "0xe9980a142d5d3610a4a32693d4325b563dfe6404",
          "topics": [
            "0xb18344ef8baa750d3a903211956af26a995a3b8a1ea274bdb9cdb60eaef14da9",
            "0x0000000000000000000000000000000000000000000000000000000000000003"
          ],
          "data": "0x0000000000000000000000008a0d290b2ee35efde47810ca8ff057e109e4190b0000000000000000000000000000000000000000000000000000000000000080000000000000000000000000e8537a3d056da446677b9e9d6c5db704eaab4787000000000000000000000000000000000000000000000000000aa87bee538000000000000000000000000000000000000000000000000000000000000000000e4772616e64204275646170657374000000000000000000000000000000000000",
          "blockHash": "0x419c49a436bef372dfbbb61f6561701bb34fe588c1b4a765f804d589b731ad0a",
          "blockNumber": "0x20a33e3",
          "transactionHash": "0x364eaf048f40b0670b9030051158e6c687279639596b358b70ff1e889d9843aa",
          "transactionIndex": "0xe",
          "logIndex": "0x30",
          "removed": false
        }
      ],
      "logsBloom": "0x00000000000000000000000000000000000000000000000000000000000000000000000000000000000000000000000000000000020000000000000000000000000000000000000000000000000000000000000000000000000000000000000000000000080000000000000000000000000000000000000000000000000040000000000000000000000000000000000000000000000000000000000000000000000000000000000000000000000000000000000000800000000000000000400000080000000000000400000000000000000000000000000000000000000000000000000000000000000000000000000000000080000000008000000000000000",
      "type": "0x0",
      "transactionHash": "0x364eaf048f40b0670b9030051158e6c687279639596b358b70ff1e889d9843aa",
      "transactionIndex": "0xe",
      "blockHash": "0x419c49a436bef372dfbbb61f6561701bb34fe588c1b4a765f804d589b731ad0a",
      "blockNumber": "0x20a33e3",
      "gasUsed": "0x39004",
      "effectiveGasPrice": "0x5d22cfc40",
      "from": "0x8a0d290b2ee35efde47810ca8ff057e109e4190b",
      "to": "0xe9980a142d5d3610a4a32693d4325b563dfe6404",
      "contractAddress": null,
      "l1BaseFeeScalar": "0x0",
      "l1BlobBaseFee": "0xed15d41e",
      "l1BlobBaseFeeScalar": "0x0",
      "l1Fee": "0x0",
      "l1GasPrice": "0x73a71485",
      "l1GasUsed": "0xb66"
    },
    {
      "status": "0x1",
      "cumulativeGasUsed": "0x2145c6",
      "logs": [
        {
          "address": "0xe9980a142d5d3610a4a32693d4325b563dfe6404",
          "topics": [
            "0xb18344ef8baa750d3a903211956af26a995a3b8a1ea274bdb9cdb60eaef14da9",
            "0x0000000000000000000000000000000000000000000000000000000000000004"
          ],
          "data": "0x0000000000000000000000008a0d290b2ee35efde47810ca8ff057e109e4190b0000000000000000000000000000000000000000000000000000000000000080000000000000000000000000d8763cba276a3738e6de85b4b3bf5fded6d6ca73000000000000000000000000000000000000000000000000000aa87bee538000000000000000000000000000000000000000000000000000000000000000000c546865204f7665726c6f6f6b0000000000000000000000000000000000000000",
          "blockHash": "0x419c49a436bef372dfbbb61f6561701bb34fe588c1b4a765f804d589b731ad0a",
          "blockNumber": "0x20a33e3",
          "transactionHash": "0xdaeb3d5f66a7cd4da474f179bfbd733a00bd1cfb23bebd62aaed5a41602ae13e",
          "transactionIndex": "0xf",
          "logIndex": "0x31",
          "removed": false
        }
      ],
      "logsBloom": "0x00000000000000000000000000000000000000000000000000000000000000000000000000000000000000000000000000000000000000000000000000000000000000000000000000000000000000000000000000000000000000000000000008000000080000000000000000000000000000000000000000000000000040000000000000000000000000000000000000000000000000000000000000000000000000000000000000000000000000000000000000000000002000000000000000080000000000000400000000000000000000008000000000000000000000000000000000000000000000000000000000000080000000008000000000000000",
      "type": "0x0",
      "transactionHash": "0xdaeb3d5f66a7cd4da474f179bfbd733a00bd1cfb23bebd62aaed5a41602ae13e",
      "transactionIndex": "0xf",
      "blockHash": "0x419c49a436bef372dfbbb61f6561701bb34fe588c1b4a765f804d589b731ad0a",
      "blockNumber": "0x20a33e3",
      "gasUsed": "0x38fec",
      "effectiveGasPrice": "0x5d22cfc40",
      "from": "0x8a0d290b2ee35efde47810ca8ff057e109e4190b",
      "to": "0xe9980a142d5d3610a4a32693d4325b563dfe6404",
      "contractAddress": null,
      "l1BaseFeeScalar": "0x0",
      "l1BlobBaseFee": "0xed15d41e",
      "l1BlobBaseFeeScalar": "0x0",
      "l1Fee": "0x0",
      "l1GasPrice": "0x73a71485",
      "l1GasUsed": "0xb4c"
    }
  ],
  "libraries": [],
  "pending": [],
  "returns": {},
  "timestamp": 1746123835,
  "chain": 42220,
  "commit": "d22355c"
}