{
  "transactions": [
    {
      "hash": "0x9002a4ed114c9f3a60f230ef574fcd608b42366a36958b1353ad8de9e80fce0f",
      "transactionType": "CALL",
      "contractName": null,
      "contractAddress": "0x96cfa0e76bd15d99a1230ca3955be5e677b746a6",
      "function": "listProperty(string,address,uint256,string)",
      "arguments": [
        "Taj Mahal Hotel",
        "0xcebA9300f2b948710d2653dD7B07f33A8B32118C",
        "1000000",
        "ipfs://QmTajMahalHotelImage123"
      ],
      "transaction": {
        "from": "0x8a0d290b2ee35efde47810ca8ff057e109e4190b",
        "to": "0x96cfa0e76bd15d99a1230ca3955be5e677b746a6",
        "gas": "0x38033",
        "value": "0x0",
        "input": "0x91df597f0000000000000000000000000000000000000000000000000000000000000080000000000000000000000000ceba9300f2b948710d2653dd7b07f33a8b32118c00000000000000000000000000000000000000000000000000000000000f424000000000000000000000000000000000000000000000000000000000000000c0000000000000000000000000000000000000000000000000000000000000000f54616a204d6168616c20486f74656c0000000000000000000000000000000000000000000000000000000000000000000000000000000000000000000000001e697066733a2f2f516d54616a4d6168616c486f74656c496d6167653132330000",
        "nonce": "0x14",
        "chainId": "0xa4ec"
      },
      "additionalContracts": [],
      "isFixedGasLimit": false
    },
    {
      "hash": "0xf39a42893f2933a0a2e5bd5e1752e3b945cba51adaf2298c95d3a0fcd965ac5b",
      "transactionType": "CALL",
      "contractName": null,
      "contractAddress": "0x765de816845861e75a25fca122bb6898b8b1282a",
      "function": "approve(address,uint256)",
      "arguments": [
        "0x96CFA0E76Bd15d99A1230CA3955be5E677B746a6",
        "115792089237316195423570985008687907853269984665640564039457584007913129639935"
      ],
      "transaction": {
        "from": "0x8a0d290b2ee35efde47810ca8ff057e109e4190b",
        "to": "0x765de816845861e75a25fca122bb6898b8b1282a",
        "gas": "0x116e9",
        "value": "0x0",
        "input": "0x095ea7b300000000000000000000000096cfa0e76bd15d99a1230ca3955be5e677b746a6ffffffffffffffffffffffffffffffffffffffffffffffffffffffffffffffff",
        "nonce": "0x15",
        "chainId": "0xa4ec"
      },
      "additionalContracts": [],
      "isFixedGasLimit": false
    },
    {
      "hash": "0x76138ed289f1ac0f04695d85445c5a7b172fe1e64e150f336d79296be4597655",
      "transactionType": "CALL",
      "contractName": null,
      "contractAddress": "0x96cfa0e76bd15d99a1230ca3955be5e677b746a6",
      "function": "payRent(uint256,uint256,address)",
      "arguments": [
        "1",
        "1",
        "0x765DE816845861e75A25fCA122bb6898B8B1282a"
      ],
      "transaction": {
        "from": "0x8a0d290b2ee35efde47810ca8ff057e109e4190b",
        "to": "0x96cfa0e76bd15d99a1230ca3955be5e677b746a6",
        "gas": "0x66505",
        "value": "0x0",
        "input": "0x24399b9e00000000000000000000000000000000000000000000000000000000000000010000000000000000000000000000000000000000000000000000000000000001000000000000000000000000765de816845861e75a25fca122bb6898b8b1282a",
        "nonce": "0x16",
        "chainId": "0xa4ec"
      },
      "additionalContracts": [],
      "isFixedGasLimit": false
    }
  ],
  "receipts": [
    {
      "status": "0x1",
      "cumulativeGasUsed": "0x16e938",
      "logs": [
        {
          "address": "0x96cfa0e76bd15d99a1230ca3955be5e677b746a6",
          "topics": [
            "0xb18344ef8baa750d3a903211956af26a995a3b8a1ea274bdb9cdb60eaef14da9",
            "0x0000000000000000000000000000000000000000000000000000000000000001"
          ],
          "data": "0x0000000000000000000000008a0d290b2ee35efde47810ca8ff057e109e4190b0000000000000000000000000000000000000000000000000000000000000080000000000000000000000000ceba9300f2b948710d2653dd7b07f33a8b32118c00000000000000000000000000000000000000000000000000000000000f4240000000000000000000000000000000000000000000000000000000000000000f54616a204d6168616c20486f74656c0000000000000000000000000000000000",
          "blockHash": "0x8d9b4508418c461959a29df12bee90724d59986e014b91eb6ca0dc07ba6713f8",
          "blockNumber": "0x209f501",
          "transactionHash": "0x9002a4ed114c9f3a60f230ef574fcd608b42366a36958b1353ad8de9e80fce0f",
          "transactionIndex": "0xa",
          "logIndex": "0x2e",
          "removed": false
        }
      ],
      "logsBloom": "0x00000000000000000000000000000000000000000000000000000000000000000080000000000020000400000000000000000000000000000000000000040000000000000000000000000000000000000000000000040000000000000000000000000000080000000000000000000000000000000000000000000000000040000000000000000000000000000000000000000000000000000000000000000000000000000000000000000000000000000000000000000000000000000000000000000000000000000000000000000000000000000000000000000000000040000000000000000000000000000000000000000000000000008000000000000000",
      "type": "0x0",
      "transactionHash": "0x9002a4ed114c9f3a60f230ef574fcd608b42366a36958b1353ad8de9e80fce0f",
      "transactionIndex": "0xa",
      "blockHash": "0x8d9b4508418c461959a29df12bee90724d59986e014b91eb6ca0dc07ba6713f8",
      "blockNumber": "0x209f501",
      "gasUsed": "0x288d6",
      "effectiveGasPrice": "0x5d22cfc40",
      "from": "0x8a0d290b2ee35efde47810ca8ff057e109e4190b",
      "to": "0x96cfa0e76bd15d99a1230ca3955be5e677b746a6",
      "contractAddress": null,
      "l1BaseFeeScalar": "0x0",
      "l1BlobBaseFee": "0x384cf5f4e",
      "l1BlobBaseFeeScalar": "0x0",
      "l1Fee": "0x0",
      "l1GasPrice": "0x3ec53757",
      "l1GasUsed": "0x8f1"
    },
    {
      "status": "0x1",
      "cumulativeGasUsed": "0x1bbd7f",
      "logs": [
        {
          "address": "0x765de816845861e75a25fca122bb6898b8b1282a",
          "topics": [
            "0x8c5be1e5ebec7d5bd14f71427d1e84f3dd0314c0f7b2291e5b200ac8c7c3b925",
            "0x0000000000000000000000008a0d290b2ee35efde47810ca8ff057e109e4190b",
            "0x00000000000000000000000096cfa0e76bd15d99a1230ca3955be5e677b746a6"
          ],
          "data": "0xffffffffffffffffffffffffffffffffffffffffffffffffffffffffffffffff",
          "blockHash": "0x8d9b4508418c461959a29df12bee90724d59986e014b91eb6ca0dc07ba6713f8",
          "blockNumber": "0x209f501",
          "transactionHash": "0xf39a42893f2933a0a2e5bd5e1752e3b945cba51adaf2298c95d3a0fcd965ac5b",
          "transactionIndex": "0xe",
          "logIndex": "0x34",
          "removed": false
        }
      ],
      "logsBloom": "0x00000000000000000000000000000000000000000000000000000000000000000000080000000000040000002000000000000000000000000000000000200000000000000000000000000000000000000000000000000000000000000000000000000000000100000000000000000000000000000000800000000400000000000000000000000000000000002000000000000000000000000000000000000000020000000000000000000000000000000000000000000000000000000000000000000000000000000000000000000000000800000400000000000000000000000010000000000000000000000000000000000000000000000000000000000000",
      "type": "0x0",
      "transactionHash": "0xf39a42893f2933a0a2e5bd5e1752e3b945cba51adaf2298c95d3a0fcd965ac5b",
      "transactionIndex": "0xe",
      "blockHash": "0x8d9b4508418c461959a29df12bee90724d59986e014b91eb6ca0dc07ba6713f8",
      "blockNumber": "0x209f501",
      "gasUsed": "0xc9ee",
      "effectiveGasPrice": "0x5d22cfc40",
      "from": "0x8a0d290b2ee35efde47810ca8ff057e109e4190b",
      "to": "0x765de816845861e75a25fca122bb6898b8b1282a",
      "contractAddress": null,
      "l1BaseFeeScalar": "0x0",
      "l1BlobBaseFee": "0x384cf5f4e",
      "l1BlobBaseFeeScalar": "0x0",
      "l1Fee": "0x0",
      "l1GasPrice": "0x3ec53757",
      "l1GasUsed": "0x640"
    },
    {
      "status": "0x1",
      "cumulativeGasUsed": "0x205eac",
      "logs": [
        {
          "address": "0x765de816845861e75a25fca122bb6898b8b1282a",
          "topics": [
            "0xddf252ad1be2c89b69c2b068fc378daa952ba7f163c4a11628f55a4df523b3ef",
            "0x0000000000000000000000008a0d290b2ee35efde47810ca8ff057e109e4190b",
            "0x00000000000000000000000096cfa0e76bd15d99a1230ca3955be5e677b746a6"
          ],
          "data": "0x00000000000000000000000000000000000000000000000000000000000f4240",
          "blockHash": "0x8d9b4508418c461959a29df12bee90724d59986e014b91eb6ca0dc07ba6713f8",
          "blockNumber": "0x209f501",
          "transactionHash": "0x76138ed289f1ac0f04695d85445c5a7b172fe1e64e150f336d79296be4597655",
          "transactionIndex": "0xf",
          "logIndex": "0x35",
          "removed": false
        },
        {
          "address": "0x765de816845861e75a25fca122bb6898b8b1282a",
          "topics": [
            "0x8c5be1e5ebec7d5bd14f71427d1e84f3dd0314c0f7b2291e5b200ac8c7c3b925",
            "0x00000000000000000000000096cfa0e76bd15d99a1230ca3955be5e677b746a6",
            "0x000000000000000000000000777a8255ca72412f0d706dc03c9d1987306b4cad"
          ],
          "data": "0x00000000000000000000000000000000000000000000000000000000000f4240",
          "blockHash": "0x8d9b4508418c461959a29df12bee90724d59986e014b91eb6ca0dc07ba6713f8",
          "blockNumber": "0x209f501",
          "transactionHash": "0x76138ed289f1ac0f04695d85445c5a7b172fe1e64e150f336d79296be4597655",
          "transactionIndex": "0xf",
          "logIndex": "0x36",
          "removed": false
        },
        {
          "address": "0x765de816845861e75a25fca122bb6898b8b1282a",
          "topics": [
            "0x8c5be1e5ebec7d5bd14f71427d1e84f3dd0314c0f7b2291e5b200ac8c7c3b925",
            "0x00000000000000000000000096cfa0e76bd15d99a1230ca3955be5e677b746a6",
            "0x000000000000000000000000777a8255ca72412f0d706dc03c9d1987306b4cad"
          ],
          "data": "0x0000000000000000000000000000000000000000000000000000000000000000",
          "blockHash": "0x8d9b4508418c461959a29df12bee90724d59986e014b91eb6ca0dc07ba6713f8",
          "blockNumber": "0x209f501",
          "transactionHash": "0x76138ed289f1ac0f04695d85445c5a7b172fe1e64e150f336d79296be4597655",
          "transactionIndex": "0xf",
          "logIndex": "0x37",
          "removed": false
        },
        {
          "address": "0x765de816845861e75a25fca122bb6898b8b1282a",
          "topics": [
            "0xddf252ad1be2c89b69c2b068fc378daa952ba7f163c4a11628f55a4df523b3ef",
            "0x00000000000000000000000096cfa0e76bd15d99a1230ca3955be5e677b746a6",
            "0x000000000000000000000000777a8255ca72412f0d706dc03c9d1987306b4cad"
          ],
          "data": "0x00000000000000000000000000000000000000000000000000000000000f4240",
          "blockHash": "0x8d9b4508418c461959a29df12bee90724d59986e014b91eb6ca0dc07ba6713f8",
          "blockNumber": "0x209f501",
          "transactionHash": "0x76138ed289f1ac0f04695d85445c5a7b172fe1e64e150f336d79296be4597655",
          "transactionIndex": "0xf",
          "logIndex": "0x38",
          "removed": false
        },
        {
          "address": "0x765de816845861e75a25fca122bb6898b8b1282a",
          "topics": [
            "0xddf252ad1be2c89b69c2b068fc378daa952ba7f163c4a11628f55a4df523b3ef",
            "0x000000000000000000000000777a8255ca72412f0d706dc03c9d1987306b4cad",
            "0x0000000000000000000000000000000000000000000000000000000000000000"
          ],
          "data": "0x00000000000000000000000000000000000000000000000000000000000f4240",
          "blockHash": "0x8d9b4508418c461959a29df12bee90724d59986e014b91eb6ca0dc07ba6713f8",
          "blockNumber": "0x209f501",
          "transactionHash": "0x76138ed289f1ac0f04695d85445c5a7b172fe1e64e150f336d79296be4597655",
          "transactionIndex": "0xf",
          "logIndex": "0x39",
          "removed": false
        },
        {
          "address": "0xceba9300f2b948710d2653dd7b07f33a8b32118c",
          "topics": [
            "0xddf252ad1be2c89b69c2b068fc378daa952ba7f163c4a11628f55a4df523b3ef",
            "0x0000000000000000000000009380fa34fd9e4fd14c06305fd7b6199089ed4eb9",
            "0x00000000000000000000000096cfa0e76bd15d99a1230ca3955be5e677b746a6"
          ],
          "data": "0x0000000000000000000000000000000000000000000000000000000000000000",
          "blockHash": "0x8d9b4508418c461959a29df12bee90724d59986e014b91eb6ca0dc07ba6713f8",
          "blockNumber": "0x209f501",
          "transactionHash": "0x76138ed289f1ac0f04695d85445c5a7b172fe1e64e150f336d79296be4597655",
          "transactionIndex": "0xf",
          "logIndex": "0x3a",
          "removed": false
        },
        {
          "address": "0x9380fa34fd9e4fd14c06305fd7b6199089ed4eb9",
          "topics": [
            "0xc171b15fb47a5beb3e11b1951d4518544f699edd6acd893d8695c91703922b60",
            "0x000000000000000000000000777a8255ca72412f0d706dc03c9d1987306b4cad",
            "0x00000000000000000000000096cfa0e76bd15d99a1230ca3955be5e677b746a6"
          ],
          "data": "0x0000000000000000000000000000000000000000000000000000000000000000000000000000000000000000ceba9300f2b948710d2653dd7b07f33a8b32118c",
          "blockHash": "0x8d9b4508418c461959a29df12bee90724d59986e014b91eb6ca0dc07ba6713f8",
          "blockNumber": "0x209f501",
          "transactionHash": "0x76138ed289f1ac0f04695d85445c5a7b172fe1e64e150f336d79296be4597655",
          "transactionIndex": "0xf",
          "logIndex": "0x3b",
          "removed": false
        },
        {
          "address": "0x777a8255ca72412f0d706dc03c9d1987306b4cad",
          "topics": [
            "0xe7b046415cac9de47940c3087e06db13a0e058ccf53ac5f0edd49ebb4c2c3a6f",
            "0xacc988382b66ee5456086643dcfd9a5ca43dd8f428f6ef22503d8b8013bcffd7",
            "0x00000000000000000000000096cfa0e76bd15d99a1230ca3955be5e677b746a6",
            "0x000000000000000000000000765de816845861e75a25fca122bb6898b8b1282a"
          ],
          "data": "0x00000000000000000000000022d9db95e6ae61c104a7b6f6c78d7993b94ec901000000000000000000000000ceba9300f2b948710d2653dd7b07f33a8b32118c00000000000000000000000000000000000000000000000000000000000f42400000000000000000000000000000000000000000000000000000000000000000",
          "blockHash": "0x8d9b4508418c461959a29df12bee90724d59986e014b91eb6ca0dc07ba6713f8",
          "blockNumber": "0x209f501",
          "transactionHash": "0x76138ed289f1ac0f04695d85445c5a7b172fe1e64e150f336d79296be4597655",
          "transactionIndex": "0xf",
          "logIndex": "0x3c",
          "removed": false
        },
        {
          "address": "0xceba9300f2b948710d2653dd7b07f33a8b32118c",
          "topics": [
            "0xddf252ad1be2c89b69c2b068fc378daa952ba7f163c4a11628f55a4df523b3ef",
            "0x00000000000000000000000096cfa0e76bd15d99a1230ca3955be5e677b746a6",
            "0x0000000000000000000000008a0d290b2ee35efde47810ca8ff057e109e4190b"
          ],
          "data": "0x0000000000000000000000000000000000000000000000000000000000000000",
          "blockHash": "0x8d9b4508418c461959a29df12bee90724d59986e014b91eb6ca0dc07ba6713f8",
          "blockNumber": "0x209f501",
          "transactionHash": "0x76138ed289f1ac0f04695d85445c5a7b172fe1e64e150f336d79296be4597655",
          "transactionIndex": "0xf",
          "logIndex": "0x3d",
          "removed": false
        },
        {
          "address": "0x96cfa0e76bd15d99a1230ca3955be5e677b746a6",
          "topics": [
            "0x8369debc964748136513ed9e8988cfc4f2089cc7460071ef445ec215cedb1946",
            "0x0000000000000000000000000000000000000000000000000000000000000001"
          ],
          "data": "0x0000000000000000000000008a0d290b2ee35efde47810ca8ff057e109e4190b00000000000000000000000000000000000000000000000000000000000f4240000000000000000000000000765de816845861e75a25fca122bb6898b8b1282a",
          "blockHash": "0x8d9b4508418c461959a29df12bee90724d59986e014b91eb6ca0dc07ba6713f8",
          "blockNumber": "0x209f501",
          "transactionHash": "0x76138ed289f1ac0f04695d85445c5a7b172fe1e64e150f336d79296be4597655",
          "transactionIndex": "0xf",
          "logIndex": "0x3e",
          "removed": false
        }
      ],
      "logsBloom": "0x00800000000000000200100000000000000000008000000000000000000000000080080000000020040400002000000000000000000000000000000000240000000000002000000000000048000000010000800000040000000000000000000000008080c20100000000000000000c00000800000000800000000410002000000008000000200000001000003000000000000000000000000800000000000000020000000000000100000000000000000010000000000000000040000004000000000002000000000000020000000000002800000400000000000000000060000010000000000000000c40000000000000000000000000100000000000000000",
      "type": "0x0",
      "transactionHash": "0x76138ed289f1ac0f04695d85445c5a7b172fe1e64e150f336d79296be4597655",
      "transactionIndex": "0xf",
      "blockHash": "0x8d9b4508418c461959a29df12bee90724d59986e014b91eb6ca0dc07ba6713f8",
      "blockNumber": "0x209f501",
      "gasUsed": "0x4a12d",
      "effectiveGasPrice": "0x5d22cfc40",
      "from": "0x8a0d290b2ee35efde47810ca8ff057e109e4190b",
      "to": "0x96cfa0e76bd15d99a1230ca3955be5e677b746a6",
      "contractAddress": null,
      "l1BaseFeeScalar": "0x0",
      "l1BlobBaseFee": "0x384cf5f4e",
      "l1BlobBaseFeeScalar": "0x0",
      "l1Fee": "0x0",
      "l1GasPrice": "0x3ec53757",
      "l1GasUsed": "0x640"
    }
  ],
  "libraries": [],
  "pending": [],
  "returns": {},
  "timestamp": 1746107735,
  "chain": 42220,
  "commit": "eee9e0b"
}