{
  "transactions": [
    {
      "hash": "0xd1f7858743ded175f15fa8ae78840e27181b42af21b7a1855465454dc63bc80a",
      "transactionType": "CALL",
      "contractName": null,
      "contractAddress": "0xa97d01cd202979e489bba7569acaaa84d4cf5c82",
      "function": "createEvent(string,string,address,uint256,string)",
      "arguments": [
        "Brazilamazontreckhotel",
        "ipfs://bafkreihv536dl4wjsrekyo3baclqyls75kozgc3jposl5x5yr3zyem5guq",
        "0xe8537a3d056DA446677B9E9d6c5dB704EaAb4787",
        "5000000000000000",
        "ipfs://bafkreiaijjzijufrqbsxbgtrssvtacjzkclrzsmbysd5zxd6qqdb4rzcye"
      ],
      "transaction": {
        "from": "0x8a0d290b2ee35efde47810ca8ff057e109e4190b",
        "to": "0xa97d01cd202979e489bba7569acaaa84d4cf5c82",
        "gas": "0x73b7e",
        "value": "0x0",
        "input": "0x1445235e00000000000000000000000000000000000000000000000000000000000000a000000000000000000000000000000000000000000000000000000000000000e0000000000000000000000000e8537a3d056da446677b9e9d6c5db704eaab47870000000000000000000000000000000000000000000000000011c37937e08000000000000000000000000000000000000000000000000000000000000000016000000000000000000000000000000000000000000000000000000000000000164272617a696c616d617a6f6e747265636b686f74656c000000000000000000000000000000000000000000000000000000000000000000000000000000000042697066733a2f2f6261666b7265696876353336646c34776a7372656b796f336261636c71796c7337356b6f7a6763336a706f736c3578357972337a79656d356775710000000000000000000000000000000000000000000000000000000000000000000000000000000000000000000000000000000000000000000000000042697066733a2f2f6261666b72656961696a6a7a696a75667271627378626774727373767461636a7a6b636c727a736d62797364357a7864367171646234727a637965000000000000000000000000000000000000000000000000000000000000",
        "nonce": "0x42",
        "chainId": "0xa4ec"
      },
      "additionalContracts": [],
      "isFixedGasLimit": false
    },
    {
      "hash": "0x090216918ef495a3e8ddd87a68bd8dd958c53c1b3cedebc8bb62ce1a6f8e7503",
      "transactionType": "CALL",
      "contractName": null,
      "contractAddress": "0x765de816845861e75a25fca122bb6898b8b1282a",
      "function": "approve(address,uint256)",
      "arguments": [
        "0xa97d01cD202979e489bbA7569ACaAA84d4Cf5c82",
        "115792089237316195423570985008687907853269984665640564039457584007913129639935"
      ],
      "transaction": {
        "from": "0x2d62332066e2735debeaf71afe343236c9ee7a1e",
        "to": "0x765de816845861e75a25fca122bb6898b8b1282a",
        "gas": "0x116e9",
        "value": "0x0",
        "input": "0x095ea7b3000000000000000000000000a97d01cd202979e489bba7569acaaa84d4cf5c82ffffffffffffffffffffffffffffffffffffffffffffffffffffffffffffffff",
        "nonce": "0x2",
        "chainId": "0xa4ec"
      },
      "additionalContracts": [],
      "isFixedGasLimit": false
    },
    {
      "hash": "0x516fb3ce9b430880332c79da8b042bc2a05f4d5bcd39e92d74acaff902930db8",
      "transactionType": "CALL",
      "contractName": null,
      "contractAddress": "0xa97d01cd202979e489bba7569acaaa84d4cf5c82",
      "function": "buyTicket(uint256,uint256,address)",
      "arguments": [
        "1",
        "1",
        "0x765DE816845861e75A25fCA122bb6898B8B1282a"
      ],
      "transaction": {
        "from": "0x2d62332066e2735debeaf71afe343236c9ee7a1e",
        "to": "0xa97d01cd202979e489bba7569acaaa84d4cf5c82",
        "gas": "0x1237f2",
        "value": "0x0",
        "input": "0x008e686500000000000000000000000000000000000000000000000000000000000000010000000000000000000000000000000000000000000000000000000000000001000000000000000000000000765de816845861e75a25fca122bb6898b8b1282a",
        "nonce": "0x3",
        "chainId": "0xa4ec"
      },
      "additionalContracts": [],
      "isFixedGasLimit": false
    }
  ],
  "receipts": [
    {
      "status": "0x1",
      "cumulativeGasUsed": "0x16bc7f",
      "logs": [
        {
          "address": "0xa97d01cd202979e489bba7569acaaa84d4cf5c82",
          "topics": [
            "0xad389ee79ceb9d0e3a1739d75d42c8727ca5946b701beaa8ef2801b04d7d7a57",
            "0x0000000000000000000000000000000000000000000000000000000000000001"
          ],
          "data": "0x00000000000000000000000000000000000000000000000000000000000000600000000000000000000000008a0d290b2ee35efde47810ca8ff057e109e4190b0000000000000000000000000000000000000000000000000011c37937e0800000000000000000000000000000000000000000000000000000000000000000164272617a696c616d617a6f6e747265636b686f74656c00000000000000000000",
          "blockHash": "0x4faba75dab04a05eae893dd8207e1cc653575e21357941af9758eef88593e9af",
          "blockNumber": "0x20e6327",
          "transactionHash": "0xd1f7858743ded175f15fa8ae78840e27181b42af21b7a1855465454dc63bc80a",
          "transactionIndex": "0x8",
          "logIndex": "0x1a",
          "removed": false
        }
      ],
      "logsBloom": "0x00000000000000000000000000000000000000000000000000000000000000000000000000000000000000004000000100000000000000000000000000040000000000000000000000000000000000000000000000040000000000000000000000000000000000000000100000000000000000000000000000100000000000000000000000000000000000000000000000000000000000000000000000000000000000040000000000000000000000000000000000000000000000000000000000000000000000000000000000000000000000004000000000000000000040000000000000000000000000000000000000000000000000000000000000000000",
      "type": "0x0",
      "transactionHash": "0xd1f7858743ded175f15fa8ae78840e27181b42af21b7a1855465454dc63bc80a",
      "transactionIndex": "0x8",
      "blockHash": "0x4faba75dab04a05eae893dd8207e1cc653575e21357941af9758eef88593e9af",
      "blockNumber": "0x20e6327",
      "gasUsed": "0x4f1fb",
      "effectiveGasPrice": "0x5d22cfc40",
      "from": "0x8a0d290b2ee35efde47810ca8ff057e109e4190b",
      "to": "0xa97d01cd202979e489bba7569acaaa84d4cf5c82",
      "contractAddress": null,
      "l1BaseFeeScalar": "0x0",
      "l1BlobBaseFee": "0x28e58b",
      "l1BlobBaseFeeScalar": "0x0",
      "l1Fee": "0x0",
      "l1GasPrice": "0x16bcd3f0",
      "l1GasUsed": "0xfa3"
    },
    {
      "status": "0x1",
      "cumulativeGasUsed": "0x11d445",
      "logs": [
        {
          "address": "0x765de816845861e75a25fca122bb6898b8b1282a",
          "topics": [
            "0x8c5be1e5ebec7d5bd14f71427d1e84f3dd0314c0f7b2291e5b200ac8c7c3b925",
            "0x0000000000000000000000002d62332066e2735debeaf71afe343236c9ee7a1e",
            "0x000000000000000000000000a97d01cd202979e489bba7569acaaa84d4cf5c82"
          ],
          "data": "0xffffffffffffffffffffffffffffffffffffffffffffffffffffffffffffffff",
          "blockHash": "0x3e9866acd738d28f8f35f80aa07675a5bed1f14b696560449b3c9badc06911a2",
          "blockNumber": "0x20e6329",
          "transactionHash": "0x090216918ef495a3e8ddd87a68bd8dd958c53c1b3cedebc8bb62ce1a6f8e7503",
          "transactionIndex": "0xb",
          "logIndex": "0x17",
          "removed": false
        }
      ],
      "logsBloom": "0x00000800000000000000000000000000000000000000000000000000000000000000080000000000000000002000000000000000000000000000000000200000000000000000000000100000000000000000000000000000000000000000000000000000000000000000000000000000000000000000000000000000000000000000000000000000000000000000000000000000000000000000000000000000020000000000400000000000000000000000000000200000000000000000000000000000000000000000042000000000000800000000000000000000000000000010000000000000000000000000000000000000000000000000000000000000",
      "type": "0x0",
      "transactionHash": "0x090216918ef495a3e8ddd87a68bd8dd958c53c1b3cedebc8bb62ce1a6f8e7503",
      "transactionIndex": "0xb",
      "blockHash": "0x3e9866acd738d28f8f35f80aa07675a5bed1f14b696560449b3c9badc06911a2",
      "blockNumber": "0x20e6329",
      "gasUsed": "0xc9ee",
      "effectiveGasPrice": "0x5d22cfc40",
      "from": "0x2d62332066e2735debeaf71afe343236c9ee7a1e",
      "to": "0x765de816845861e75a25fca122bb6898b8b1282a",
      "contractAddress": null,
      "l1BaseFeeScalar": "0x0",
      "l1BlobBaseFee": "0x2fd9dc",
      "l1BlobBaseFeeScalar": "0x0",
      "l1Fee": "0x0",
      "l1GasPrice": "0x15162f26",
      "l1GasUsed": "0x640"
    },
    {
      "status": "0x1",
      "cumulativeGasUsed": "0x292b0b",
      "logs": [
        {
          "address": "0x765de816845861e75a25fca122bb6898b8b1282a",
          "topics": [
            "0xddf252ad1be2c89b69c2b068fc378daa952ba7f163c4a11628f55a4df523b3ef",
            "0x0000000000000000000000002d62332066e2735debeaf71afe343236c9ee7a1e",
            "0x000000000000000000000000a97d01cd202979e489bba7569acaaa84d4cf5c82"
          ],
          "data": "0x00000000000000000000000000000000000000000000000000654465e0172ab7",
          "blockHash": "0x59705f5f2ca7c1241f4b63fe13777a2dea884780527b99d8a3edf751104640b1",
          "blockNumber": "0x20e632e",
          "transactionHash": "0x516fb3ce9b430880332c79da8b042bc2a05f4d5bcd39e92d74acaff902930db8",
          "transactionIndex": "0xa",
          "logIndex": "0x20",
          "removed": false
        },
        {
          "address": "0x765de816845861e75a25fca122bb6898b8b1282a",
          "topics": [
            "0x8c5be1e5ebec7d5bd14f71427d1e84f3dd0314c0f7b2291e5b200ac8c7c3b925",
            "0x000000000000000000000000a97d01cd202979e489bba7569acaaa84d4cf5c82",
            "0x000000000000000000000000be729350f8cdfc19db6866e8579841188ee57f67"
          ],
          "data": "0x00000000000000000000000000000000000000000000000000654465e0172ab7",
          "blockHash": "0x59705f5f2ca7c1241f4b63fe13777a2dea884780527b99d8a3edf751104640b1",
          "blockNumber": "0x20e632e",
          "transactionHash": "0x516fb3ce9b430880332c79da8b042bc2a05f4d5bcd39e92d74acaff902930db8",
          "transactionIndex": "0xa",
          "logIndex": "0x21",
          "removed": false
        },
        {
          "address": "0x765de816845861e75a25fca122bb6898b8b1282a",
          "topics": [
            "0x8c5be1e5ebec7d5bd14f71427d1e84f3dd0314c0f7b2291e5b200ac8c7c3b925",
            "0x000000000000000000000000a97d01cd202979e489bba7569acaaa84d4cf5c82",
            "0x000000000000000000000000be729350f8cdfc19db6866e8579841188ee57f67"
          ],
          "data": "0x0000000000000000000000000000000000000000000000000000000000000000",
          "blockHash": "0x59705f5f2ca7c1241f4b63fe13777a2dea884780527b99d8a3edf751104640b1",
          "blockNumber": "0x20e632e",
          "transactionHash": "0x516fb3ce9b430880332c79da8b042bc2a05f4d5bcd39e92d74acaff902930db8",
          "transactionIndex": "0xa",
          "logIndex": "0x22",
          "removed": false
        },
        {
          "address": "0x765de816845861e75a25fca122bb6898b8b1282a",
          "topics": [
            "0xddf252ad1be2c89b69c2b068fc378daa952ba7f163c4a11628f55a4df523b3ef",
            "0x000000000000000000000000a97d01cd202979e489bba7569acaaa84d4cf5c82",
            "0x000000000000000000000000be729350f8cdfc19db6866e8579841188ee57f67"
          ],
          "data": "0x00000000000000000000000000000000000000000000000000654465e0172ab7",
          "blockHash": "0x59705f5f2ca7c1241f4b63fe13777a2dea884780527b99d8a3edf751104640b1",
          "blockNumber": "0x20e632e",
          "transactionHash": "0x516fb3ce9b430880332c79da8b042bc2a05f4d5bcd39e92d74acaff902930db8",
          "transactionIndex": "0xa",
          "logIndex": "0x23",
          "removed": false
        },
        {
          "address": "0x765de816845861e75a25fca122bb6898b8b1282a",
          "topics": [
            "0x8c5be1e5ebec7d5bd14f71427d1e84f3dd0314c0f7b2291e5b200ac8c7c3b925",
            "0x000000000000000000000000be729350f8cdfc19db6866e8579841188ee57f67",
            "0x000000000000000000000000777a8255ca72412f0d706dc03c9d1987306b4cad"
          ],
          "data": "0x00000000000000000000000000000000000000000000000000654465e0172ab7",
          "blockHash": "0x59705f5f2ca7c1241f4b63fe13777a2dea884780527b99d8a3edf751104640b1",
          "blockNumber": "0x20e632e",
          "transactionHash": "0x516fb3ce9b430880332c79da8b042bc2a05f4d5bcd39e92d74acaff902930db8",
          "transactionIndex": "0xa",
          "logIndex": "0x24",
          "removed": false
        },
        {
          "address": "0x765de816845861e75a25fca122bb6898b8b1282a",
          "topics": [
            "0x8c5be1e5ebec7d5bd14f71427d1e84f3dd0314c0f7b2291e5b200ac8c7c3b925",
            "0x000000000000000000000000be729350f8cdfc19db6866e8579841188ee57f67",
            "0x000000000000000000000000777a8255ca72412f0d706dc03c9d1987306b4cad"
          ],
          "data": "0x0000000000000000000000000000000000000000000000000000000000000000",
          "blockHash": "0x59705f5f2ca7c1241f4b63fe13777a2dea884780527b99d8a3edf751104640b1",
          "blockNumber": "0x20e632e",
          "transactionHash": "0x516fb3ce9b430880332c79da8b042bc2a05f4d5bcd39e92d74acaff902930db8",
          "transactionIndex": "0xa",
          "logIndex": "0x25",
          "removed": false
        },
        {
          "address": "0x765de816845861e75a25fca122bb6898b8b1282a",
          "topics": [
            "0xddf252ad1be2c89b69c2b068fc378daa952ba7f163c4a11628f55a4df523b3ef",
            "0x000000000000000000000000be729350f8cdfc19db6866e8579841188ee57f67",
            "0x000000000000000000000000777a8255ca72412f0d706dc03c9d1987306b4cad"
          ],
          "data": "0x00000000000000000000000000000000000000000000000000654465e0172ab7",
          "blockHash": "0x59705f5f2ca7c1241f4b63fe13777a2dea884780527b99d8a3edf751104640b1",
          "blockNumber": "0x20e632e",
          "transactionHash": "0x516fb3ce9b430880332c79da8b042bc2a05f4d5bcd39e92d74acaff902930db8",
          "transactionIndex": "0xa",
          "logIndex": "0x26",
          "removed": false
        },
        {
          "address": "0x765de816845861e75a25fca122bb6898b8b1282a",
          "topics": [
            "0xddf252ad1be2c89b69c2b068fc378daa952ba7f163c4a11628f55a4df523b3ef",
            "0x000000000000000000000000777a8255ca72412f0d706dc03c9d1987306b4cad",
            "0x0000000000000000000000000000000000000000000000000000000000000000"
          ],
          "data": "0x00000000000000000000000000000000000000000000000000654465e0172ab7",
          "blockHash": "0x59705f5f2ca7c1241f4b63fe13777a2dea884780527b99d8a3edf751104640b1",
          "blockNumber": "0x20e632e",
          "transactionHash": "0x516fb3ce9b430880332c79da8b042bc2a05f4d5bcd39e92d74acaff902930db8",
          "transactionIndex": "0xa",
          "logIndex": "0x27",
          "removed": false
        },
        {
          "address": "0xceba9300f2b948710d2653dd7b07f33a8b32118c",
          "topics": [
            "0xddf252ad1be2c89b69c2b068fc378daa952ba7f163c4a11628f55a4df523b3ef",
            "0x0000000000000000000000009380fa34fd9e4fd14c06305fd7b6199089ed4eb9",
            "0x000000000000000000000000be729350f8cdfc19db6866e8579841188ee57f67"
          ],
          "data": "0x0000000000000000000000000000000000000000000000000000000000006f58",
          "blockHash": "0x59705f5f2ca7c1241f4b63fe13777a2dea884780527b99d8a3edf751104640b1",
          "blockNumber": "0x20e632e",
          "transactionHash": "0x516fb3ce9b430880332c79da8b042bc2a05f4d5bcd39e92d74acaff902930db8",
          "transactionIndex": "0xa",
          "logIndex": "0x28",
          "removed": false
        },
        {
          "address": "0x9380fa34fd9e4fd14c06305fd7b6199089ed4eb9",
          "topics": [
            "0xc171b15fb47a5beb3e11b1951d4518544f699edd6acd893d8695c91703922b60",
            "0x000000000000000000000000777a8255ca72412f0d706dc03c9d1987306b4cad",
            "0x000000000000000000000000be729350f8cdfc19db6866e8579841188ee57f67"
          ],
          "data": "0x0000000000000000000000000000000000000000000000000000000000006f58000000000000000000000000ceba9300f2b948710d2653dd7b07f33a8b32118c",
          "blockHash": "0x59705f5f2ca7c1241f4b63fe13777a2dea884780527b99d8a3edf751104640b1",
          "blockNumber": "0x20e632e",
          "transactionHash": "0x516fb3ce9b430880332c79da8b042bc2a05f4d5bcd39e92d74acaff902930db8",
          "transactionIndex": "0xa",
          "logIndex": "0x29",
          "removed": false
        },
        {
          "address": "0x777a8255ca72412f0d706dc03c9d1987306b4cad",
          "topics": [
            "0xe7b046415cac9de47940c3087e06db13a0e058ccf53ac5f0edd49ebb4c2c3a6f",
            "0xacc988382b66ee5456086643dcfd9a5ca43dd8f428f6ef22503d8b8013bcffd7",
            "0x000000000000000000000000be729350f8cdfc19db6866e8579841188ee57f67",
            "0x000000000000000000000000765de816845861e75a25fca122bb6898b8b1282a"
          ],
          "data": "0x00000000000000000000000022d9db95e6ae61c104a7b6f6c78d7993b94ec901000000000000000000000000ceba9300f2b948710d2653dd7b07f33a8b32118c00000000000000000000000000000000000000000000000000654465e0172ab70000000000000000000000000000000000000000000000000000000000006f58",
          "blockHash": "0x59705f5f2ca7c1241f4b63fe13777a2dea884780527b99d8a3edf751104640b1",
          "blockNumber": "0x20e632e",
          "transactionHash": "0x516fb3ce9b430880332c79da8b042bc2a05f4d5bcd39e92d74acaff902930db8",
          "transactionIndex": "0xa",
          "logIndex": "0x2a",
          "removed": false
        },
        {
          "address": "0xceba9300f2b948710d2653dd7b07f33a8b32118c",
          "topics": [
            "0x8c5be1e5ebec7d5bd14f71427d1e84f3dd0314c0f7b2291e5b200ac8c7c3b925",
            "0x000000000000000000000000be729350f8cdfc19db6866e8579841188ee57f67",
            "0x000000000000000000000000777a8255ca72412f0d706dc03c9d1987306b4cad"
          ],
          "data": "0x0000000000000000000000000000000000000000000000000000000000006f58",
          "blockHash": "0x59705f5f2ca7c1241f4b63fe13777a2dea884780527b99d8a3edf751104640b1",
          "blockNumber": "0x20e632e",
          "transactionHash": "0x516fb3ce9b430880332c79da8b042bc2a05f4d5bcd39e92d74acaff902930db8",
          "transactionIndex": "0xa",
          "logIndex": "0x2b",
          "removed": false
        },
        {
          "address": "0x22d9db95e6ae61c104a7b6f6c78d7993b94ec901",
          "topics": [
            "0x949f5db193cbfa01f2d443b1c656bfede15497de0d86838cea089bd60c438342",
            "0xe8693b17c0f002f6a2fe839525557cef10dfeacef9e16c9bbdcb01c57933ce58"
          ],
          "data": "0x000000000000000000000000000000000000000000017d2a320dd745550000000000000000000000000000000000000000000000000042f01d4965a39f9599ba",
          "blockHash": "0x59705f5f2ca7c1241f4b63fe13777a2dea884780527b99d8a3edf751104640b1",
          "blockNumber": "0x20e632e",
          "transactionHash": "0x516fb3ce9b430880332c79da8b042bc2a05f4d5bcd39e92d74acaff902930db8",
          "transactionIndex": "0xa",
          "logIndex": "0x2c",
          "removed": false
        },
        {
          "address": "0xceba9300f2b948710d2653dd7b07f33a8b32118c",
          "topics": [
            "0xddf252ad1be2c89b69c2b068fc378daa952ba7f163c4a11628f55a4df523b3ef",
            "0x000000000000000000000000be729350f8cdfc19db6866e8579841188ee57f67",
            "0x0000000000000000000000009380fa34fd9e4fd14c06305fd7b6199089ed4eb9"
          ],
          "data": "0x0000000000000000000000000000000000000000000000000000000000006f58",
          "blockHash": "0x59705f5f2ca7c1241f4b63fe13777a2dea884780527b99d8a3edf751104640b1",
          "blockNumber": "0x20e632e",
          "transactionHash": "0x516fb3ce9b430880332c79da8b042bc2a05f4d5bcd39e92d74acaff902930db8",
          "transactionIndex": "0xa",
          "logIndex": "0x2d",
          "removed": false
        },
        {
          "address": "0xe8537a3d056da446677b9e9d6c5db704eaab4787",
          "topics": [
            "0xddf252ad1be2c89b69c2b068fc378daa952ba7f163c4a11628f55a4df523b3ef",
            "0x0000000000000000000000000000000000000000000000000000000000000000",
            "0x000000000000000000000000be729350f8cdfc19db6866e8579841188ee57f67"
          ],
          "data": "0x000000000000000000000000000000000000000000000000023f335c5c46c503",
          "blockHash": "0x59705f5f2ca7c1241f4b63fe13777a2dea884780527b99d8a3edf751104640b1",
          "blockNumber": "0x20e632e",
          "transactionHash": "0x516fb3ce9b430880332c79da8b042bc2a05f4d5bcd39e92d74acaff902930db8",
          "transactionIndex": "0xa",
          "logIndex": "0x2e",
          "removed": false
        },
        {
          "address": "0x777a8255ca72412f0d706dc03c9d1987306b4cad",
          "topics": [
            "0xe7b046415cac9de47940c3087e06db13a0e058ccf53ac5f0edd49ebb4c2c3a6f",
            "0xe8693b17c0f002f6a2fe839525557cef10dfeacef9e16c9bbdcb01c57933ce58",
            "0x000000000000000000000000be729350f8cdfc19db6866e8579841188ee57f67",
            "0x000000000000000000000000ceba9300f2b948710d2653dd7b07f33a8b32118c"
          ],
          "data": "0x00000000000000000000000022d9db95e6ae61c104a7b6f6c78d7993b94ec901000000000000000000000000e8537a3d056da446677b9e9d6c5db704eaab47870000000000000000000000000000000000000000000000000000000000006f58000000000000000000000000000000000000000000000000023f335c5c46c503",
          "blockHash": "0x59705f5f2ca7c1241f4b63fe13777a2dea884780527b99d8a3edf751104640b1",
          "blockNumber": "0x20e632e",
          "transactionHash": "0x516fb3ce9b430880332c79da8b042bc2a05f4d5bcd39e92d74acaff902930db8",
          "transactionIndex": "0xa",
          "logIndex": "0x2f",
          "removed": false
        },
        {
          "address": "0xe8537a3d056da446677b9e9d6c5db704eaab4787",
          "topics": [
            "0xddf252ad1be2c89b69c2b068fc378daa952ba7f163c4a11628f55a4df523b3ef",
            "0x000000000000000000000000be729350f8cdfc19db6866e8579841188ee57f67",
            "0x000000000000000000000000a97d01cd202979e489bba7569acaaa84d4cf5c82"
          ],
          "data": "0x000000000000000000000000000000000000000000000000023f335c5c46c503",
          "blockHash": "0x59705f5f2ca7c1241f4b63fe13777a2dea884780527b99d8a3edf751104640b1",
          "blockNumber": "0x20e632e",
          "transactionHash": "0x516fb3ce9b430880332c79da8b042bc2a05f4d5bcd39e92d74acaff902930db8",
          "transactionIndex": "0xa",
          "logIndex": "0x30",
          "removed": false
        },
        {
          "address": "0xe8537a3d056da446677b9e9d6c5db704eaab4787",
          "topics": [
            "0xddf252ad1be2c89b69c2b068fc378daa952ba7f163c4a11628f55a4df523b3ef",
            "0x000000000000000000000000a97d01cd202979e489bba7569acaaa84d4cf5c82",
            "0x0000000000000000000000008a0d290b2ee35efde47810ca8ff057e109e4190b"
          ],
          "data": "0x000000000000000000000000000000000000000000000000023f335c5c46c503",
          "blockHash": "0x59705f5f2ca7c1241f4b63fe13777a2dea884780527b99d8a3edf751104640b1",
          "blockNumber": "0x20e632e",
          "transactionHash": "0x516fb3ce9b430880332c79da8b042bc2a05f4d5bcd39e92d74acaff902930db8",
          "transactionIndex": "0xa",
          "logIndex": "0x31",
          "removed": false
        },
        {
          "address": "0x3a6c8de036f71e4fe07c5b1f7b6ae70211109dd6",
          "topics": [
            "0xddf252ad1be2c89b69c2b068fc378daa952ba7f163c4a11628f55a4df523b3ef",
            "0x0000000000000000000000000000000000000000000000000000000000000000",
            "0x0000000000000000000000002d62332066e2735debeaf71afe343236c9ee7a1e",
            "0x0000000000000000000000000000000000000000000000000000000000000001"
          ],
          "data": "0x",
          "blockHash": "0x59705f5f2ca7c1241f4b63fe13777a2dea884780527b99d8a3edf751104640b1",
          "blockNumber": "0x20e632e",
          "transactionHash": "0x516fb3ce9b430880332c79da8b042bc2a05f4d5bcd39e92d74acaff902930db8",
          "transactionIndex": "0xa",
          "logIndex": "0x32",
          "removed": false
        },
        {
          "address": "0xa97d01cd202979e489bba7569acaaa84d4cf5c82",
          "topics": [
            "0xa13c4ee6468e254f8780c5bbcd68c49b8ca76558848e8c48f9922ef7389cfb6b",
            "0x0000000000000000000000000000000000000000000000000000000000000001"
          ],
          "data": "0x0000000000000000000000002d62332066e2735debeaf71afe343236c9ee7a1e0000000000000000000000000000000000000000000000000000000000000001000000000000000000000000765de816845861e75a25fca122bb6898b8b1282a00000000000000000000000000000000000000000000000000654465e0172ab7",
          "blockHash": "0x59705f5f2ca7c1241f4b63fe13777a2dea884780527b99d8a3edf751104640b1",
          "blockNumber": "0x20e632e",
          "transactionHash": "0x516fb3ce9b430880332c79da8b042bc2a05f4d5bcd39e92d74acaff902930db8",
          "transactionIndex": "0xa",
          "logIndex": "0x33",
          "removed": false
        }
      ],
      "logsBloom": "0x00801800000000000200100000000000000000008000000000000000000000000000080000000000440080002000000100000000000000000000800000240000000000002000000000100048000000010000800000040000000000000000000000008080020100000000000020000c00000800000000000000100014002000000008000008200010401000001000000000000000000000000800000000000000020001000000400100000000000000000000000000200000800044000004880002080002000000000000062000000000002800044400000004000000000060000010000080084010000c40000010000000000000000000100000000000400000",
      "type": "0x0",
      "transactionHash": "0x516fb3ce9b430880332c79da8b042bc2a05f4d5bcd39e92d74acaff902930db8",
      "transactionIndex": "0xa",
      "blockHash": "0x59705f5f2ca7c1241f4b63fe13777a2dea884780527b99d8a3edf751104640b1",
      "blockNumber": "0x20e632e",
      "gasUsed": "0xd309e",
      "effectiveGasPrice": "0x5d22cfc40",
      "from": "0x2d62332066e2735debeaf71afe343236c9ee7a1e",
      "to": "0xa97d01cd202979e489bba7569acaaa84d4cf5c82",
      "contractAddress": null,
      "l1BaseFeeScalar": "0x0",
      "l1BlobBaseFee": "0x2a88c3",
      "l1BlobBaseFeeScalar": "0x0",
      "l1Fee": "0x0",
      "l1GasPrice": "0x153a105c",
      "l1GasUsed": "0x640"
    }
  ],
  "libraries": [],
  "pending": [],
  "returns": {},
  "timestamp": 1746398084,
  "chain": 42220,
  "commit": "d22355c"
}