{
  "transactions": [
    {
      "hash": "0xf89baaa1e368c86ee1b446e993f40472bce71a936b8975bf53c3c0450dea70fb",
      "transactionType": "CALL",
      "contractName": null,
      "contractAddress": "0xf78c5ea359734be41bd50635a36d3655d50600e2",
      "function": "createEvent(string,string,address,uint256,string)",
      "arguments": [
        "Brazilamazontreckhotel",
        "ipfs://bafkreihv536dl4wjsrekyo3baclqyls75kozgc3jposl5x5yr3zyem5guq",
        "0xe8537a3d056DA446677B9E9d6c5dB704EaAb4787",
        "5000000000000000",
        "ipfs://bafkreiaijjzijufrqbsxbgtrssvtacjzkclrzsmbysd5zxd6qqdb4rzcye"
      ],
      "transaction": {
        "from": "0x8a0d290b2ee35efde47810ca8ff057e109e4190b",
        "to": "0xf78c5ea359734be41bd50635a36d3655d50600e2",
        "gas": "0x73b7e",
        "value": "0x0",
        "input": "0x1445235e00000000000000000000000000000000000000000000000000000000000000a000000000000000000000000000000000000000000000000000000000000000e0000000000000000000000000e8537a3d056da446677b9e9d6c5db704eaab47870000000000000000000000000000000000000000000000000011c37937e08000000000000000000000000000000000000000000000000000000000000000016000000000000000000000000000000000000000000000000000000000000000164272617a696c616d617a6f6e747265636b686f74656c000000000000000000000000000000000000000000000000000000000000000000000000000000000042697066733a2f2f6261666b7265696876353336646c34776a7372656b796f336261636c71796c7337356b6f7a6763336a706f736c3578357972337a79656d356775710000000000000000000000000000000000000000000000000000000000000000000000000000000000000000000000000000000000000000000000000042697066733a2f2f6261666b72656961696a6a7a696a75667271627378626774727373767461636a7a6b636c727a736d62797364357a7864367171646234727a637965000000000000000000000000000000000000000000000000000000000000",
        "nonce": "0x3f",
        "chainId": "0xa4ec"
      },
      "additionalContracts": [],
      "isFixedGasLimit": false
    },
    {
      "hash": "0xabd2842dc54b0160898835028609acbfa0481e735a0e5f3edfa5d01effe193e0",
      "transactionType": "CALL",
      "contractName": null,
      "contractAddress": "0x765de816845861e75a25fca122bb6898b8b1282a",
      "function": "approve(address,uint256)",
      "arguments": [
        "0xF78c5eA359734BE41bd50635a36D3655d50600e2",
        "115792089237316195423570985008687907853269984665640564039457584007913129639935"
      ],
      "transaction": {
        "from": "0x2d62332066e2735debeaf71afe343236c9ee7a1e",
        "to": "0x765de816845861e75a25fca122bb6898b8b1282a",
        "gas": "0x12740",
        "value": "0x0",
        "input": "0x095ea7b3000000000000000000000000f78c5ea359734be41bd50635a36d3655d50600e2ffffffffffffffffffffffffffffffffffffffffffffffffffffffffffffffff",
        "nonce": "0x0",
        "chainId": "0xa4ec"
      },
      "additionalContracts": [],
      "isFixedGasLimit": false
    },
    {
      "hash": "0xd801965f03ad0c8112727c6a2c8aadf22f96607ad6fe693b99da59a0510bd4a5",
      "transactionType": "CALL",
      "contractName": null,
      "contractAddress": "0xf78c5ea359734be41bd50635a36d3655d50600e2",
      "function": "buyTicket(uint256,uint256,address)",
      "arguments": [
        "2",
        "1",
        "0x765DE816845861e75A25fCA122bb6898B8B1282a"
      ],
      "transaction": {
        "from": "0x2d62332066e2735debeaf71afe343236c9ee7a1e",
        "to": "0xf78c5ea359734be41bd50635a36d3655d50600e2",
        "gas": "0x11d772",
        "value": "0x0",
        "input": "0x008e686500000000000000000000000000000000000000000000000000000000000000020000000000000000000000000000000000000000000000000000000000000001000000000000000000000000765de816845861e75a25fca122bb6898b8b1282a",
        "nonce": "0x1",
        "chainId": "0xa4ec"
      },
      "additionalContracts": [],
      "isFixedGasLimit": false
    }
  ],
  "receipts": [
    {
      "status": "0x1",
      "cumulativeGasUsed": "0x19ad28",
      "logs": [
        {
          "address": "0xf78c5ea359734be41bd50635a36d3655d50600e2",
          "topics": [
            "0xad389ee79ceb9d0e3a1739d75d42c8727ca5946b701beaa8ef2801b04d7d7a57",
            "0x0000000000000000000000000000000000000000000000000000000000000002"
          ],
          "data": "0x00000000000000000000000000000000000000000000000000000000000000600000000000000000000000008a0d290b2ee35efde47810ca8ff057e109e4190b0000000000000000000000000000000000000000000000000011c37937e0800000000000000000000000000000000000000000000000000000000000000000164272617a696c616d617a6f6e747265636b686f74656c00000000000000000000",
          "blockHash": "0x2112612e5ef35cf00a354f067fa3ad2591cbf9556d0cbf4de29de0fe09070635",
          "blockNumber": "0x20e43fe",
          "transactionHash": "0xf89baaa1e368c86ee1b446e993f40472bce71a936b8975bf53c3c0450dea70fb",
          "transactionIndex": "0x9",
          "logIndex": "0x17",
          "removed": false
        }
      ],
      "logsBloom": "0x04000000000000000000000000000000000000000000000000000000000000000000000000000000000000004000200000000000000000000000000000000000000000000000000000000000000000000000000000000000000000000000000000000000000000000000100000000000000000000000000000000000000000000000000000000000000000000000000000000000000000000000000000000000000008040000000000000100000000000000000000000000000000000000000000000000000000000000000000000000000000000000000000000000000000000000000000000000000000000000000000000000028000000000000000000000",
      "type": "0x0",
      "transactionHash": "0xf89baaa1e368c86ee1b446e993f40472bce71a936b8975bf53c3c0450dea70fb",
      "transactionIndex": "0x9",
      "blockHash": "0x2112612e5ef35cf00a354f067fa3ad2591cbf9556d0cbf4de29de0fe09070635",
      "blockNumber": "0x20e43fe",
      "gasUsed": "0x4f1fb",
      "effectiveGasPrice": "0x5d22cfc40",
      "from": "0x8a0d290b2ee35efde47810ca8ff057e109e4190b",
      "to": "0xf78c5ea359734be41bd50635a36d3655d50600e2",
      "contractAddress": null,
      "l1BaseFeeScalar": "0x0",
      "l1BlobBaseFee": "0xb88c528",
      "l1BlobBaseFeeScalar": "0x0",
      "l1Fee": "0x0",
      "l1GasPrice": "0x16b3416e",
      "l1GasUsed": "0xfa3"
    },
    {
      "status": "0x1",
      "cumulativeGasUsed": "0xa6d08",
      "logs": [
        {
          "address": "0x765de816845861e75a25fca122bb6898b8b1282a",
          "topics": [
            "0x8c5be1e5ebec7d5bd14f71427d1e84f3dd0314c0f7b2291e5b200ac8c7c3b925",
            "0x0000000000000000000000002d62332066e2735debeaf71afe343236c9ee7a1e",
            "0x000000000000000000000000f78c5ea359734be41bd50635a36d3655d50600e2"
          ],
          "data": "0xffffffffffffffffffffffffffffffffffffffffffffffffffffffffffffffff",
          "blockHash": "0x973fced59a8067a46f7d2373b46658a709441a6dc6a10e70f801825d4d803bb9",
          "blockNumber": "0x20e4401",
          "transactionHash": "0xabd2842dc54b0160898835028609acbfa0481e735a0e5f3edfa5d01effe193e0",
          "transactionIndex": "0x8",
          "logIndex": "0x14",
          "removed": false
        }
      ],
      "logsBloom": "0x00000000000010000000000000000000000000000000000000000000000000000000080000000008000000002000000000000000000000000000000000200000000000000000000000000000000000000000000000000000000000000000000000000000000000000000000000000000000000000000000000000000000000000000000000000000000000000000000000000000000000000000000000000000020000000000400000000000000000000000000000200000000000000000000000000000000000000000040000000000000800000000000000000000000000000010000000000000000000000000000000000000000000000001000000000000",
      "type": "0x0",
      "transactionHash": "0xabd2842dc54b0160898835028609acbfa0481e735a0e5f3edfa5d01effe193e0",
      "transactionIndex": "0x8",
      "blockHash": "0x973fced59a8067a46f7d2373b46658a709441a6dc6a10e70f801825d4d803bb9",
      "blockNumber": "0x20e4401",
      "gasUsed": "0xc9e2",
      "effectiveGasPrice": "0x5d22cfc40",
      "from": "0x2d62332066e2735debeaf71afe343236c9ee7a1e",
      "to": "0x765de816845861e75a25fca122bb6898b8b1282a",
      "contractAddress": null,
      "l1BaseFeeScalar": "0x0",
      "l1BlobBaseFee": "0xb88c528",
      "l1BlobBaseFeeScalar": "0x0",
      "l1Fee": "0x0",
      "l1GasPrice": "0x16b3416e",
      "l1GasUsed": "0x640"
    },
    {
      "status": "0x1",
      "cumulativeGasUsed": "0x3f7573",
      "logs": [
        {
          "address": "0x765de816845861e75a25fca122bb6898b8b1282a",
          "topics": [
            "0xddf252ad1be2c89b69c2b068fc378daa952ba7f163c4a11628f55a4df523b3ef",
            "0x0000000000000000000000002d62332066e2735debeaf71afe343236c9ee7a1e",
            "0x000000000000000000000000f78c5ea359734be41bd50635a36d3655d50600e2"
          ],
          "data": "0x0000000000000000000000000000000000000000000000000011c37937e08000",
          "blockHash": "0x0603d4cff4aa6e6462a197b634c50c9cc213b2c996174357577c405f7a50e7e4",
          "blockNumber": "0x20e4406",
          "transactionHash": "0xd801965f03ad0c8112727c6a2c8aadf22f96607ad6fe693b99da59a0510bd4a5",
          "transactionIndex": "0x11",
          "logIndex": "0x40",
          "removed": false
        },
        {
          "address": "0x765de816845861e75a25fca122bb6898b8b1282a",
          "topics": [
            "0x8c5be1e5ebec7d5bd14f71427d1e84f3dd0314c0f7b2291e5b200ac8c7c3b925",
            "0x000000000000000000000000f78c5ea359734be41bd50635a36d3655d50600e2",
            "0x000000000000000000000000be729350f8cdfc19db6866e8579841188ee57f67"
          ],
          "data": "0x0000000000000000000000000000000000000000000000000011c37937e08000",
          "blockHash": "0x0603d4cff4aa6e6462a197b634c50c9cc213b2c996174357577c405f7a50e7e4",
          "blockNumber": "0x20e4406",
          "transactionHash": "0xd801965f03ad0c8112727c6a2c8aadf22f96607ad6fe693b99da59a0510bd4a5",
          "transactionIndex": "0x11",
          "logIndex": "0x41",
          "removed": false
        },
        {
          "address": "0x765de816845861e75a25fca122bb6898b8b1282a",
          "topics": [
            "0x8c5be1e5ebec7d5bd14f71427d1e84f3dd0314c0f7b2291e5b200ac8c7c3b925",
            "0x000000000000000000000000f78c5ea359734be41bd50635a36d3655d50600e2",
            "0x000000000000000000000000be729350f8cdfc19db6866e8579841188ee57f67"
          ],
          "data": "0x0000000000000000000000000000000000000000000000000000000000000000",
          "blockHash": "0x0603d4cff4aa6e6462a197b634c50c9cc213b2c996174357577c405f7a50e7e4",
          "blockNumber": "0x20e4406",
          "transactionHash": "0xd801965f03ad0c8112727c6a2c8aadf22f96607ad6fe693b99da59a0510bd4a5",
          "transactionIndex": "0x11",
          "logIndex": "0x42",
          "removed": false
        },
        {
          "address": "0x765de816845861e75a25fca122bb6898b8b1282a",
          "topics": [
            "0xddf252ad1be2c89b69c2b068fc378daa952ba7f163c4a11628f55a4df523b3ef",
            "0x000000000000000000000000f78c5ea359734be41bd50635a36d3655d50600e2",
            "0x000000000000000000000000be729350f8cdfc19db6866e8579841188ee57f67"
          ],
          "data": "0x0000000000000000000000000000000000000000000000000011c37937e08000",
          "blockHash": "0x0603d4cff4aa6e6462a197b634c50c9cc213b2c996174357577c405f7a50e7e4",
          "blockNumber": "0x20e4406",
          "transactionHash": "0xd801965f03ad0c8112727c6a2c8aadf22f96607ad6fe693b99da59a0510bd4a5",
          "transactionIndex": "0x11",
          "logIndex": "0x43",
          "removed": false
        },
        {
          "address": "0x765de816845861e75a25fca122bb6898b8b1282a",
          "topics": [
            "0x8c5be1e5ebec7d5bd14f71427d1e84f3dd0314c0f7b2291e5b200ac8c7c3b925",
            "0x000000000000000000000000be729350f8cdfc19db6866e8579841188ee57f67",
            "0x000000000000000000000000777a8255ca72412f0d706dc03c9d1987306b4cad"
          ],
          "data": "0x0000000000000000000000000000000000000000000000000011c37937e08000",
          "blockHash": "0x0603d4cff4aa6e6462a197b634c50c9cc213b2c996174357577c405f7a50e7e4",
          "blockNumber": "0x20e4406",
          "transactionHash": "0xd801965f03ad0c8112727c6a2c8aadf22f96607ad6fe693b99da59a0510bd4a5",
          "transactionIndex": "0x11",
          "logIndex": "0x44",
          "removed": false
        },
        {
          "address": "0x765de816845861e75a25fca122bb6898b8b1282a",
          "topics": [
            "0x8c5be1e5ebec7d5bd14f71427d1e84f3dd0314c0f7b2291e5b200ac8c7c3b925",
            "0x000000000000000000000000be729350f8cdfc19db6866e8579841188ee57f67",
            "0x000000000000000000000000777a8255ca72412f0d706dc03c9d1987306b4cad"
          ],
          "data": "0x0000000000000000000000000000000000000000000000000000000000000000",
          "blockHash": "0x0603d4cff4aa6e6462a197b634c50c9cc213b2c996174357577c405f7a50e7e4",
          "blockNumber": "0x20e4406",
          "transactionHash": "0xd801965f03ad0c8112727c6a2c8aadf22f96607ad6fe693b99da59a0510bd4a5",
          "transactionIndex": "0x11",
          "logIndex": "0x45",
          "removed": false
        },
        {
          "address": "0x765de816845861e75a25fca122bb6898b8b1282a",
          "topics": [
            "0xddf252ad1be2c89b69c2b068fc378daa952ba7f163c4a11628f55a4df523b3ef",
            "0x000000000000000000000000be729350f8cdfc19db6866e8579841188ee57f67",
            "0x000000000000000000000000777a8255ca72412f0d706dc03c9d1987306b4cad"
          ],
          "data": "0x0000000000000000000000000000000000000000000000000011c37937e08000",
          "blockHash": "0x0603d4cff4aa6e6462a197b634c50c9cc213b2c996174357577c405f7a50e7e4",
          "blockNumber": "0x20e4406",
          "transactionHash": "0xd801965f03ad0c8112727c6a2c8aadf22f96607ad6fe693b99da59a0510bd4a5",
          "transactionIndex": "0x11",
          "logIndex": "0x46",
          "removed": false
        },
        {
          "address": "0x765de816845861e75a25fca122bb6898b8b1282a",
          "topics": [
            "0xddf252ad1be2c89b69c2b068fc378daa952ba7f163c4a11628f55a4df523b3ef",
            "0x000000000000000000000000777a8255ca72412f0d706dc03c9d1987306b4cad",
            "0x0000000000000000000000000000000000000000000000000000000000000000"
          ],
          "data": "0x0000000000000000000000000000000000000000000000000011c37937e08000",
          "blockHash": "0x0603d4cff4aa6e6462a197b634c50c9cc213b2c996174357577c405f7a50e7e4",
          "blockNumber": "0x20e4406",
          "transactionHash": "0xd801965f03ad0c8112727c6a2c8aadf22f96607ad6fe693b99da59a0510bd4a5",
          "transactionIndex": "0x11",
          "logIndex": "0x47",
          "removed": false
        },
        {
          "address": "0xceba9300f2b948710d2653dd7b07f33a8b32118c",
          "topics": [
            "0xddf252ad1be2c89b69c2b068fc378daa952ba7f163c4a11628f55a4df523b3ef",
            "0x0000000000000000000000009380fa34fd9e4fd14c06305fd7b6199089ed4eb9",
            "0x000000000000000000000000be729350f8cdfc19db6866e8579841188ee57f67"
          ],
          "data": "0x0000000000000000000000000000000000000000000000000000000000001388",
          "blockHash": "0x0603d4cff4aa6e6462a197b634c50c9cc213b2c996174357577c405f7a50e7e4",
          "blockNumber": "0x20e4406",
          "transactionHash": "0xd801965f03ad0c8112727c6a2c8aadf22f96607ad6fe693b99da59a0510bd4a5",
          "transactionIndex": "0x11",
          "logIndex": "0x48",
          "removed": false
        },
        {
          "address": "0x9380fa34fd9e4fd14c06305fd7b6199089ed4eb9",
          "topics": [
            "0xc171b15fb47a5beb3e11b1951d4518544f699edd6acd893d8695c91703922b60",
            "0x000000000000000000000000777a8255ca72412f0d706dc03c9d1987306b4cad",
            "0x000000000000000000000000be729350f8cdfc19db6866e8579841188ee57f67"
          ],
          "data": "0x0000000000000000000000000000000000000000000000000000000000001388000000000000000000000000ceba9300f2b948710d2653dd7b07f33a8b32118c",
          "blockHash": "0x0603d4cff4aa6e6462a197b634c50c9cc213b2c996174357577c405f7a50e7e4",
          "blockNumber": "0x20e4406",
          "transactionHash": "0xd801965f03ad0c8112727c6a2c8aadf22f96607ad6fe693b99da59a0510bd4a5",
          "transactionIndex": "0x11",
          "logIndex": "0x49",
          "removed": false
        },
        {
          "address": "0x777a8255ca72412f0d706dc03c9d1987306b4cad",
          "topics": [
            "0xe7b046415cac9de47940c3087e06db13a0e058ccf53ac5f0edd49ebb4c2c3a6f",
            "0xacc988382b66ee5456086643dcfd9a5ca43dd8f428f6ef22503d8b8013bcffd7",
            "0x000000000000000000000000be729350f8cdfc19db6866e8579841188ee57f67",
            "0x000000000000000000000000765de816845861e75a25fca122bb6898b8b1282a"
          ],
          "data": "0x00000000000000000000000022d9db95e6ae61c104a7b6f6c78d7993b94ec901000000000000000000000000ceba9300f2b948710d2653dd7b07f33a8b32118c0000000000000000000000000000000000000000000000000011c37937e080000000000000000000000000000000000000000000000000000000000000001388",
          "blockHash": "0x0603d4cff4aa6e6462a197b634c50c9cc213b2c996174357577c405f7a50e7e4",
          "blockNumber": "0x20e4406",
          "transactionHash": "0xd801965f03ad0c8112727c6a2c8aadf22f96607ad6fe693b99da59a0510bd4a5",
          "transactionIndex": "0x11",
          "logIndex": "0x4a",
          "removed": false
        },
        {
          "address": "0xceba9300f2b948710d2653dd7b07f33a8b32118c",
          "topics": [
            "0x8c5be1e5ebec7d5bd14f71427d1e84f3dd0314c0f7b2291e5b200ac8c7c3b925",
            "0x000000000000000000000000be729350f8cdfc19db6866e8579841188ee57f67",
            "0x000000000000000000000000777a8255ca72412f0d706dc03c9d1987306b4cad"
          ],
          "data": "0x0000000000000000000000000000000000000000000000000000000000001388",
          "blockHash": "0x0603d4cff4aa6e6462a197b634c50c9cc213b2c996174357577c405f7a50e7e4",
          "blockNumber": "0x20e4406",
          "transactionHash": "0xd801965f03ad0c8112727c6a2c8aadf22f96607ad6fe693b99da59a0510bd4a5",
          "transactionIndex": "0x11",
          "logIndex": "0x4b",
          "removed": false
        },
        {
          "address": "0x22d9db95e6ae61c104a7b6f6c78d7993b94ec901",
          "topics": [
            "0x949f5db193cbfa01f2d443b1c656bfede15497de0d86838cea089bd60c438342",
            "0xe8693b17c0f002f6a2fe839525557cef10dfeacef9e16c9bbdcb01c57933ce58"
          ],
          "data": "0x000000000000000000000000000000000000000000017d2a320dd745550000000000000000000000000000000000000000000000000042f2d5bbd5c7240f286f",
          "blockHash": "0x0603d4cff4aa6e6462a197b634c50c9cc213b2c996174357577c405f7a50e7e4",
          "blockNumber": "0x20e4406",
          "transactionHash": "0xd801965f03ad0c8112727c6a2c8aadf22f96607ad6fe693b99da59a0510bd4a5",
          "transactionIndex": "0x11",
          "logIndex": "0x4c",
          "removed": false
        },
        {
          "address": "0xceba9300f2b948710d2653dd7b07f33a8b32118c",
          "topics": [
            "0xddf252ad1be2c89b69c2b068fc378daa952ba7f163c4a11628f55a4df523b3ef",
            "0x000000000000000000000000be729350f8cdfc19db6866e8579841188ee57f67",
            "0x0000000000000000000000009380fa34fd9e4fd14c06305fd7b6199089ed4eb9"
          ],
          "data": "0x0000000000000000000000000000000000000000000000000000000000001388",
          "blockHash": "0x0603d4cff4aa6e6462a197b634c50c9cc213b2c996174357577c405f7a50e7e4",
          "blockNumber": "0x20e4406",
          "transactionHash": "0xd801965f03ad0c8112727c6a2c8aadf22f96607ad6fe693b99da59a0510bd4a5",
          "transactionIndex": "0x11",
          "logIndex": "0x4d",
          "removed": false
        },
        {
          "address": "0xe8537a3d056da446677b9e9d6c5db704eaab4787",
          "topics": [
            "0xddf252ad1be2c89b69c2b068fc378daa952ba7f163c4a11628f55a4df523b3ef",
            "0x0000000000000000000000000000000000000000000000000000000000000000",
            "0x000000000000000000000000be729350f8cdfc19db6866e8579841188ee57f67"
          ],
          "data": "0x0000000000000000000000000000000000000000000000000064e1d8c4a0f352",
          "blockHash": "0x0603d4cff4aa6e6462a197b634c50c9cc213b2c996174357577c405f7a50e7e4",
          "blockNumber": "0x20e4406",
          "transactionHash": "0xd801965f03ad0c8112727c6a2c8aadf22f96607ad6fe693b99da59a0510bd4a5",
          "transactionIndex": "0x11",
          "logIndex": "0x4e",
          "removed": false
        },
        {
          "address": "0x777a8255ca72412f0d706dc03c9d1987306b4cad",
          "topics": [
            "0xe7b046415cac9de47940c3087e06db13a0e058ccf53ac5f0edd49ebb4c2c3a6f",
            "0xe8693b17c0f002f6a2fe839525557cef10dfeacef9e16c9bbdcb01c57933ce58",
            "0x000000000000000000000000be729350f8cdfc19db6866e8579841188ee57f67",
            "0x000000000000000000000000ceba9300f2b948710d2653dd7b07f33a8b32118c"
          ],
          "data": "0x00000000000000000000000022d9db95e6ae61c104a7b6f6c78d7993b94ec901000000000000000000000000e8537a3d056da446677b9e9d6c5db704eaab478700000000000000000000000000000000000000000000000000000000000013880000000000000000000000000000000000000000000000000064e1d8c4a0f352",
          "blockHash": "0x0603d4cff4aa6e6462a197b634c50c9cc213b2c996174357577c405f7a50e7e4",
          "blockNumber": "0x20e4406",
          "transactionHash": "0xd801965f03ad0c8112727c6a2c8aadf22f96607ad6fe693b99da59a0510bd4a5",
          "transactionIndex": "0x11",
          "logIndex": "0x4f",
          "removed": false
        },
        {
          "address": "0xe8537a3d056da446677b9e9d6c5db704eaab4787",
          "topics": [
            "0xddf252ad1be2c89b69c2b068fc378daa952ba7f163c4a11628f55a4df523b3ef",
            "0x000000000000000000000000be729350f8cdfc19db6866e8579841188ee57f67",
            "0x000000000000000000000000f78c5ea359734be41bd50635a36d3655d50600e2"
          ],
          "data": "0x0000000000000000000000000000000000000000000000000064e1d8c4a0f352",
          "blockHash": "0x0603d4cff4aa6e6462a197b634c50c9cc213b2c996174357577c405f7a50e7e4",
          "blockNumber": "0x20e4406",
          "transactionHash": "0xd801965f03ad0c8112727c6a2c8aadf22f96607ad6fe693b99da59a0510bd4a5",
          "transactionIndex": "0x11",
          "logIndex": "0x50",
          "removed": false
        },
        {
          "address": "0xe8537a3d056da446677b9e9d6c5db704eaab4787",
          "topics": [
            "0xddf252ad1be2c89b69c2b068fc378daa952ba7f163c4a11628f55a4df523b3ef",
            "0x000000000000000000000000f78c5ea359734be41bd50635a36d3655d50600e2",
            "0x0000000000000000000000008a0d290b2ee35efde47810ca8ff057e109e4190b"
          ],
          "data": "0x0000000000000000000000000000000000000000000000000064e1d8c4a0f352",
          "blockHash": "0x0603d4cff4aa6e6462a197b634c50c9cc213b2c996174357577c405f7a50e7e4",
          "blockNumber": "0x20e4406",
          "transactionHash": "0xd801965f03ad0c8112727c6a2c8aadf22f96607ad6fe693b99da59a0510bd4a5",
          "transactionIndex": "0x11",
          "logIndex": "0x51",
          "removed": false
        },
        {
          "address": "0x5076ac406b8d65951204a3fc36ed4d81ebfea3c4",
          "topics": [
            "0xddf252ad1be2c89b69c2b068fc378daa952ba7f163c4a11628f55a4df523b3ef",
            "0x0000000000000000000000000000000000000000000000000000000000000000",
            "0x0000000000000000000000002d62332066e2735debeaf71afe343236c9ee7a1e",
            "0x0000000000000000000000000000000000000000000000000000000000000003"
          ],
          "data": "0x",
          "blockHash": "0x0603d4cff4aa6e6462a197b634c50c9cc213b2c996174357577c405f7a50e7e4",
          "blockNumber": "0x20e4406",
          "transactionHash": "0xd801965f03ad0c8112727c6a2c8aadf22f96607ad6fe693b99da59a0510bd4a5",
          "transactionIndex": "0x11",
          "logIndex": "0x52",
          "removed": false
        },
        {
          "address": "0xf78c5ea359734be41bd50635a36d3655d50600e2",
          "topics": [
            "0xbf31e73e9419da4a56fe1ca5fde1fe85191f5280d387ea1f10c794c77305bcec",
            "0x0000000000000000000000000000000000000000000000000000000000000002"
          ],
          "data": "0x0000000000000000000000002d62332066e2735debeaf71afe343236c9ee7a1e0000000000000000000000000000000000000000000000000000000000000001000000000000000000000000765de816845861e75a25fca122bb6898b8b1282a",
          "blockHash": "0x0603d4cff4aa6e6462a197b634c50c9cc213b2c996174357577c405f7a50e7e4",
          "blockNumber": "0x20e4406",
          "transactionHash": "0xd801965f03ad0c8112727c6a2c8aadf22f96607ad6fe693b99da59a0510bd4a5",
          "transactionIndex": "0x11",
          "logIndex": "0x53",
          "removed": false
        }
      ],
      "logsBloom": "0x04801000000010000200100000000000000000008000000000000000000000000000080000000008040080002000200000000000020000000000000000200000000000002008000000000048000000010000800000400000000000000004000000008080020100000000000020000c00000800000000000000000010002000000408000000200010401000001000000000000000800000000800000400000000020009000000400100000100000000000000000000a00000000044000004c80002080002000000000000060000000000002800040400000004000000000020000010000080004010000c40000010000000000000028000100001000000400000",
      "type": "0x0",
      "transactionHash": "0xd801965f03ad0c8112727c6a2c8aadf22f96607ad6fe693b99da59a0510bd4a5",
      "transactionIndex": "0x11",
      "blockHash": "0x0603d4cff4aa6e6462a197b634c50c9cc213b2c996174357577c405f7a50e7e4",
      "blockNumber": "0x20e4406",
      "gasUsed": "0xc8999",
      "effectiveGasPrice": "0x5d22cfc40",
      "from": "0x2d62332066e2735debeaf71afe343236c9ee7a1e",
      "to": "0xf78c5ea359734be41bd50635a36d3655d50600e2",
      "contractAddress": null,
      "l1BaseFeeScalar": "0x0",
      "l1BlobBaseFee": "0xb88c528",
      "l1BlobBaseFeeScalar": "0x0",
      "l1Fee": "0x0",
      "l1GasPrice": "0x16b3416e",
      "l1GasUsed": "0x640"
    }
  ],
  "libraries": [],
  "pending": [],
  "returns": {},
  "timestamp": 1746390110,
  "chain": 42220,
  "commit": "d22355c"
}