{
  "transactions": [
    {
      "hash": "0x6ff9e20fb94f027c4293af81ff5d744ca0986eacbce97302f4d24675f61383c0",
      "transactionType": "CALL",
      "contractName": null,
      "contractAddress": "0x765de816845861e75a25fca122bb6898b8b1282a",
      "function": "approve(address,uint256)",
      "arguments": [
        "0x49af158c16C06fD9EdeFbAd8B17728e21C0eCBaB",
        "115792089237316195423570985008687907853269984665640564039457584007913129639935"
      ],
      "transaction": {
        "from": "0x8a0d290b2ee35efde47810ca8ff057e109e4190b",
        "to": "0x765de816845861e75a25fca122bb6898b8b1282a",
        "gas": "0x116e9",
        "value": "0x0",
        "input": "0x095ea7b300000000000000000000000049af158c16c06fd9edefbad8b17728e21c0ecbabffffffffffffffffffffffffffffffffffffffffffffffffffffffffffffffff",
        "nonce": "0xb",
        "chainId": "0xa4ec"
      },
      "additionalContracts": [],
      "isFixedGasLimit": false
    },
    {
      "hash": "0x6ba988269f3ed5020f30e4af97a6c7014162dfab80cec95b4fb1654bcb721ec6",
      "transactionType": "CALL",
      "contractName": null,
      "contractAddress": "0x49af158c16c06fd9edefbad8b17728e21c0ecbab",
      "function": "swapCUSDForCEUR(uint256,uint256)",
      "arguments": [
        "10000000000000000",
        "0"
      ],
      "transaction": {
        "from": "0x8a0d290b2ee35efde47810ca8ff057e109e4190b",
        "to": "0x49af158c16c06fd9edefbad8b17728e21c0ecbab",
        "gas": "0xcfa08",
        "value": "0x0",
        "input": "0x0b7dcbde000000000000000000000000000000000000000000000000002386f26fc100000000000000000000000000000000000000000000000000000000000000000000",
        "nonce": "0xc",
        "chainId": "0xa4ec"
      },
      "additionalContracts": [],
      "isFixedGasLimit": false
    }
  ],
  "receipts": [
    {
      "status": "0x1",
      "cumulativeGasUsed": "0x112944",
      "logs": [
        {
          "address": "0x765de816845861e75a25fca122bb6898b8b1282a",
          "topics": [
            "0x8c5be1e5ebec7d5bd14f71427d1e84f3dd0314c0f7b2291e5b200ac8c7c3b925",
            "0x0000000000000000000000008a0d290b2ee35efde47810ca8ff057e109e4190b",
            "0x00000000000000000000000049af158c16c06fd9edefbad8b17728e21c0ecbab"
          ],
          "data": "0xffffffffffffffffffffffffffffffffffffffffffffffffffffffffffffffff",
          "blockHash": "0xa4fff755c407bdcfd929a218640c9ffd9cf4d12f54cbc51a6566bd22ebfc47e0",
          "blockNumber": "0x205aa9f",
          "transactionHash": "0x6ff9e20fb94f027c4293af81ff5d744ca0986eacbce97302f4d24675f61383c0",
          "transactionIndex": "0xe",
          "logIndex": "0x22",
          "removed": false
        }
      ],
      "logsBloom": "0x00000000000000000000000020000000000000000000000000000000000000004000080000000000040000002000000000000000000000000000000000200000000000000000001000000000000000000000000000000000000000000000000000000000000100000000000000000000000000000000000000000000000000000000000000000000000000000000000000000000000000000000000000000000020000000000000000000000000000000000000000000000000000000000000000000000000000000000000000000000000800000400000000000000000000000010000000000000000000000000000000000000000000000000000000000000",
      "type": "0x0",
      "transactionHash": "0x6ff9e20fb94f027c4293af81ff5d744ca0986eacbce97302f4d24675f61383c0",
      "transactionIndex": "0xe",
      "blockHash": "0xa4fff755c407bdcfd929a218640c9ffd9cf4d12f54cbc51a6566bd22ebfc47e0",
      "blockNumber": "0x205aa9f",
      "gasUsed": "0xc9ee",
      "effectiveGasPrice": "0x5d22cfc40",
      "from": "0x8a0d290b2ee35efde47810ca8ff057e109e4190b",
      "to": "0x765de816845861e75a25fca122bb6898b8b1282a",
      "contractAddress": null,
      "l1BaseFeeScalar": "0x0",
      "l1BlobBaseFee": "0xd2be11b5",
      "l1BlobBaseFeeScalar": "0x0",
      "l1Fee": "0x0",
      "l1GasPrice": "0x16a28b2e",
      "l1GasUsed": "0x640"
    },
    {
      "status": "0x1",
      "cumulativeGasUsed": "0x1a8e5c",
      "logs": [
        {
          "address": "0x765de816845861e75a25fca122bb6898b8b1282a",
          "topics": [
            "0xddf252ad1be2c89b69c2b068fc378daa952ba7f163c4a11628f55a4df523b3ef",
            "0x0000000000000000000000008a0d290b2ee35efde47810ca8ff057e109e4190b",
            "0x00000000000000000000000049af158c16c06fd9edefbad8b17728e21c0ecbab"
          ],
          "data": "0x000000000000000000000000000000000000000000000000002386f26fc10000",
          "blockHash": "0xa4fff755c407bdcfd929a218640c9ffd9cf4d12f54cbc51a6566bd22ebfc47e0",
          "blockNumber": "0x205aa9f",
          "transactionHash": "0x6ba988269f3ed5020f30e4af97a6c7014162dfab80cec95b4fb1654bcb721ec6",
          "transactionIndex": "0xf",
          "logIndex": "0x23",
          "removed": false
        },
        {
          "address": "0x765de816845861e75a25fca122bb6898b8b1282a",
          "topics": [
            "0x8c5be1e5ebec7d5bd14f71427d1e84f3dd0314c0f7b2291e5b200ac8c7c3b925",
            "0x00000000000000000000000049af158c16c06fd9edefbad8b17728e21c0ecbab",
            "0x000000000000000000000000be729350f8cdfc19db6866e8579841188ee57f67"
          ],
          "data": "0x000000000000000000000000000000000000000000000000002386f26fc10000",
          "blockHash": "0xa4fff755c407bdcfd929a218640c9ffd9cf4d12f54cbc51a6566bd22ebfc47e0",
          "blockNumber": "0x205aa9f",
          "transactionHash": "0x6ba988269f3ed5020f30e4af97a6c7014162dfab80cec95b4fb1654bcb721ec6",
          "transactionIndex": "0xf",
          "logIndex": "0x24",
          "removed": false
        },
        {
          "address": "0x765de816845861e75a25fca122bb6898b8b1282a",
          "topics": [
            "0x8c5be1e5ebec7d5bd14f71427d1e84f3dd0314c0f7b2291e5b200ac8c7c3b925",
            "0x00000000000000000000000049af158c16c06fd9edefbad8b17728e21c0ecbab",
            "0x000000000000000000000000be729350f8cdfc19db6866e8579841188ee57f67"
          ],
          "data": "0x0000000000000000000000000000000000000000000000000000000000000000",
          "blockHash": "0xa4fff755c407bdcfd929a218640c9ffd9cf4d12f54cbc51a6566bd22ebfc47e0",
          "blockNumber": "0x205aa9f",
          "transactionHash": "0x6ba988269f3ed5020f30e4af97a6c7014162dfab80cec95b4fb1654bcb721ec6",
          "transactionIndex": "0xf",
          "logIndex": "0x25",
          "removed": false
        },
        {
          "address": "0x765de816845861e75a25fca122bb6898b8b1282a",
          "topics": [
            "0xddf252ad1be2c89b69c2b068fc378daa952ba7f163c4a11628f55a4df523b3ef",
            "0x00000000000000000000000049af158c16c06fd9edefbad8b17728e21c0ecbab",
            "0x000000000000000000000000be729350f8cdfc19db6866e8579841188ee57f67"
          ],
          "data": "0x000000000000000000000000000000000000000000000000002386f26fc10000",
          "blockHash": "0xa4fff755c407bdcfd929a218640c9ffd9cf4d12f54cbc51a6566bd22ebfc47e0",
          "blockNumber": "0x205aa9f",
          "transactionHash": "0x6ba988269f3ed5020f30e4af97a6c7014162dfab80cec95b4fb1654bcb721ec6",
          "transactionIndex": "0xf",
          "logIndex": "0x26",
          "removed": false
        },
        {
          "address": "0x765de816845861e75a25fca122bb6898b8b1282a",
          "topics": [
            "0x8c5be1e5ebec7d5bd14f71427d1e84f3dd0314c0f7b2291e5b200ac8c7c3b925",
            "0x000000000000000000000000be729350f8cdfc19db6866e8579841188ee57f67",
            "0x000000000000000000000000777a8255ca72412f0d706dc03c9d1987306b4cad"
          ],
          "data": "0x000000000000000000000000000000000000000000000000002386f26fc10000",
          "blockHash": "0xa4fff755c407bdcfd929a218640c9ffd9cf4d12f54cbc51a6566bd22ebfc47e0",
          "blockNumber": "0x205aa9f",
          "transactionHash": "0x6ba988269f3ed5020f30e4af97a6c7014162dfab80cec95b4fb1654bcb721ec6",
          "transactionIndex": "0xf",
          "logIndex": "0x27",
          "removed": false
        },
        {
          "address": "0x765de816845861e75a25fca122bb6898b8b1282a",
          "topics": [
            "0x8c5be1e5ebec7d5bd14f71427d1e84f3dd0314c0f7b2291e5b200ac8c7c3b925",
            "0x000000000000000000000000be729350f8cdfc19db6866e8579841188ee57f67",
            "0x000000000000000000000000777a8255ca72412f0d706dc03c9d1987306b4cad"
          ],
          "data": "0x0000000000000000000000000000000000000000000000000000000000000000",
          "blockHash": "0xa4fff755c407bdcfd929a218640c9ffd9cf4d12f54cbc51a6566bd22ebfc47e0",
          "blockNumber": "0x205aa9f",
          "transactionHash": "0x6ba988269f3ed5020f30e4af97a6c7014162dfab80cec95b4fb1654bcb721ec6",
          "transactionIndex": "0xf",
          "logIndex": "0x28",
          "removed": false
        },
        {
          "address": "0x765de816845861e75a25fca122bb6898b8b1282a",
          "topics": [
            "0xddf252ad1be2c89b69c2b068fc378daa952ba7f163c4a11628f55a4df523b3ef",
            "0x000000000000000000000000be729350f8cdfc19db6866e8579841188ee57f67",
            "0x000000000000000000000000777a8255ca72412f0d706dc03c9d1987306b4cad"
          ],
          "data": "0x000000000000000000000000000000000000000000000000002386f26fc10000",
          "blockHash": "0xa4fff755c407bdcfd929a218640c9ffd9cf4d12f54cbc51a6566bd22ebfc47e0",
          "blockNumber": "0x205aa9f",
          "transactionHash": "0x6ba988269f3ed5020f30e4af97a6c7014162dfab80cec95b4fb1654bcb721ec6",
          "transactionIndex": "0xf",
          "logIndex": "0x29",
          "removed": false
        },
        {
          "address": "0x765de816845861e75a25fca122bb6898b8b1282a",
          "topics": [
            "0xddf252ad1be2c89b69c2b068fc378daa952ba7f163c4a11628f55a4df523b3ef",
            "0x000000000000000000000000777a8255ca72412f0d706dc03c9d1987306b4cad",
            "0x0000000000000000000000000000000000000000000000000000000000000000"
          ],
          "data": "0x000000000000000000000000000000000000000000000000002386f26fc10000",
          "blockHash": "0xa4fff755c407bdcfd929a218640c9ffd9cf4d12f54cbc51a6566bd22ebfc47e0",
          "blockNumber": "0x205aa9f",
          "transactionHash": "0x6ba988269f3ed5020f30e4af97a6c7014162dfab80cec95b4fb1654bcb721ec6",
          "transactionIndex": "0xf",
          "logIndex": "0x2a",
          "removed": false
        },
        {
          "address": "0xceba9300f2b948710d2653dd7b07f33a8b32118c",
          "topics": [
            "0xddf252ad1be2c89b69c2b068fc378daa952ba7f163c4a11628f55a4df523b3ef",
            "0x0000000000000000000000009380fa34fd9e4fd14c06305fd7b6199089ed4eb9",
            "0x000000000000000000000000be729350f8cdfc19db6866e8579841188ee57f67"
          ],
          "data": "0x0000000000000000000000000000000000000000000000000000000000002710",
          "blockHash": "0xa4fff755c407bdcfd929a218640c9ffd9cf4d12f54cbc51a6566bd22ebfc47e0",
          "blockNumber": "0x205aa9f",
          "transactionHash": "0x6ba988269f3ed5020f30e4af97a6c7014162dfab80cec95b4fb1654bcb721ec6",
          "transactionIndex": "0xf",
          "logIndex": "0x2b",
          "removed": false
        },
        {
          "address": "0x9380fa34fd9e4fd14c06305fd7b6199089ed4eb9",
          "topics": [
            "0xc171b15fb47a5beb3e11b1951d4518544f699edd6acd893d8695c91703922b60",
            "0x000000000000000000000000777a8255ca72412f0d706dc03c9d1987306b4cad",
            "0x000000000000000000000000be729350f8cdfc19db6866e8579841188ee57f67"
          ],
          "data": "0x0000000000000000000000000000000000000000000000000000000000002710000000000000000000000000ceba9300f2b948710d2653dd7b07f33a8b32118c",
          "blockHash": "0xa4fff755c407bdcfd929a218640c9ffd9cf4d12f54cbc51a6566bd22ebfc47e0",
          "blockNumber": "0x205aa9f",
          "transactionHash": "0x6ba988269f3ed5020f30e4af97a6c7014162dfab80cec95b4fb1654bcb721ec6",
          "transactionIndex": "0xf",
          "logIndex": "0x2c",
          "removed": false
        },
        {
          "address": "0x777a8255ca72412f0d706dc03c9d1987306b4cad",
          "topics": [
            "0xe7b046415cac9de47940c3087e06db13a0e058ccf53ac5f0edd49ebb4c2c3a6f",
            "0xacc988382b66ee5456086643dcfd9a5ca43dd8f428f6ef22503d8b8013bcffd7",
            "0x000000000000000000000000be729350f8cdfc19db6866e8579841188ee57f67",
            "0x000000000000000000000000765de816845861e75a25fca122bb6898b8b1282a"
          ],
          "data": "0x00000000000000000000000022d9db95e6ae61c104a7b6f6c78d7993b94ec901000000000000000000000000ceba9300f2b948710d2653dd7b07f33a8b32118c000000000000000000000000000000000000000000000000002386f26fc100000000000000000000000000000000000000000000000000000000000000002710",
          "blockHash": "0xa4fff755c407bdcfd929a218640c9ffd9cf4d12f54cbc51a6566bd22ebfc47e0",
          "blockNumber": "0x205aa9f",
          "transactionHash": "0x6ba988269f3ed5020f30e4af97a6c7014162dfab80cec95b4fb1654bcb721ec6",
          "transactionIndex": "0xf",
          "logIndex": "0x2d",
          "removed": false
        },
        {
          "address": "0xceba9300f2b948710d2653dd7b07f33a8b32118c",
          "topics": [
            "0x8c5be1e5ebec7d5bd14f71427d1e84f3dd0314c0f7b2291e5b200ac8c7c3b925",
            "0x000000000000000000000000be729350f8cdfc19db6866e8579841188ee57f67",
            "0x000000000000000000000000777a8255ca72412f0d706dc03c9d1987306b4cad"
          ],
          "data": "0x0000000000000000000000000000000000000000000000000000000000002710",
          "blockHash": "0xa4fff755c407bdcfd929a218640c9ffd9cf4d12f54cbc51a6566bd22ebfc47e0",
          "blockNumber": "0x205aa9f",
          "transactionHash": "0x6ba988269f3ed5020f30e4af97a6c7014162dfab80cec95b4fb1654bcb721ec6",
          "transactionIndex": "0xf",
          "logIndex": "0x2e",
          "removed": false
        },
        {
          "address": "0x22d9db95e6ae61c104a7b6f6c78d7993b94ec901",
          "topics": [
            "0x949f5db193cbfa01f2d443b1c656bfede15497de0d86838cea089bd60c438342",
            "0x99be8b8341ba00914600cda701568ab27eea9aca7a32fa48c26e07b86841020c"
          ],
          "data": "0x000000000000000000000000000000000000000000017d2a320dd7455500000000000000000000000000000000000000000000000001b0db73e58fae9300bf13",
          "blockHash": "0xa4fff755c407bdcfd929a218640c9ffd9cf4d12f54cbc51a6566bd22ebfc47e0",
          "blockNumber": "0x205aa9f",
          "transactionHash": "0x6ba988269f3ed5020f30e4af97a6c7014162dfab80cec95b4fb1654bcb721ec6",
          "transactionIndex": "0xf",
          "logIndex": "0x2f",
          "removed": false
        },
        {
          "address": "0xceba9300f2b948710d2653dd7b07f33a8b32118c",
          "topics": [
            "0xddf252ad1be2c89b69c2b068fc378daa952ba7f163c4a11628f55a4df523b3ef",
            "0x000000000000000000000000be729350f8cdfc19db6866e8579841188ee57f67",
            "0x0000000000000000000000009380fa34fd9e4fd14c06305fd7b6199089ed4eb9"
          ],
          "data": "0x0000000000000000000000000000000000000000000000000000000000002710",
          "blockHash": "0xa4fff755c407bdcfd929a218640c9ffd9cf4d12f54cbc51a6566bd22ebfc47e0",
          "blockNumber": "0x205aa9f",
          "transactionHash": "0x6ba988269f3ed5020f30e4af97a6c7014162dfab80cec95b4fb1654bcb721ec6",
          "transactionIndex": "0xf",
          "logIndex": "0x30",
          "removed": false
        },
        {
          "address": "0xd8763cba276a3738e6de85b4b3bf5fded6d6ca73",
          "topics": [
            "0xddf252ad1be2c89b69c2b068fc378daa952ba7f163c4a11628f55a4df523b3ef",
            "0x0000000000000000000000000000000000000000000000000000000000000000",
            "0x000000000000000000000000be729350f8cdfc19db6866e8579841188ee57f67"
          ],
          "data": "0x000000000000000000000000000000000000000000000000001f34cb36d5e613",
          "blockHash": "0xa4fff755c407bdcfd929a218640c9ffd9cf4d12f54cbc51a6566bd22ebfc47e0",
          "blockNumber": "0x205aa9f",
          "transactionHash": "0x6ba988269f3ed5020f30e4af97a6c7014162dfab80cec95b4fb1654bcb721ec6",
          "transactionIndex": "0xf",
          "logIndex": "0x31",
          "removed": false
        },
        {
          "address": "0x777a8255ca72412f0d706dc03c9d1987306b4cad",
          "topics": [
            "0xe7b046415cac9de47940c3087e06db13a0e058ccf53ac5f0edd49ebb4c2c3a6f",
            "0x99be8b8341ba00914600cda701568ab27eea9aca7a32fa48c26e07b86841020c",
            "0x000000000000000000000000be729350f8cdfc19db6866e8579841188ee57f67",
            "0x000000000000000000000000ceba9300f2b948710d2653dd7b07f33a8b32118c"
          ],
          "data": "0x00000000000000000000000022d9db95e6ae61c104a7b6f6c78d7993b94ec901000000000000000000000000d8763cba276a3738e6de85b4b3bf5fded6d6ca730000000000000000000000000000000000000000000000000000000000002710000000000000000000000000000000000000000000000000001f34cb36d5e613",
          "blockHash": "0xa4fff755c407bdcfd929a218640c9ffd9cf4d12f54cbc51a6566bd22ebfc47e0",
          "blockNumber": "0x205aa9f",
          "transactionHash": "0x6ba988269f3ed5020f30e4af97a6c7014162dfab80cec95b4fb1654bcb721ec6",
          "transactionIndex": "0xf",
          "logIndex": "0x32",
          "removed": false
        },
        {
          "address": "0xd8763cba276a3738e6de85b4b3bf5fded6d6ca73",
          "topics": [
            "0xddf252ad1be2c89b69c2b068fc378daa952ba7f163c4a11628f55a4df523b3ef",
            "0x000000000000000000000000be729350f8cdfc19db6866e8579841188ee57f67",
            "0x00000000000000000000000049af158c16c06fd9edefbad8b17728e21c0ecbab"
          ],
          "data": "0x000000000000000000000000000000000000000000000000001f34cb36d5e613",
          "blockHash": "0xa4fff755c407bdcfd929a218640c9ffd9cf4d12f54cbc51a6566bd22ebfc47e0",
          "blockNumber": "0x205aa9f",
          "transactionHash": "0x6ba988269f3ed5020f30e4af97a6c7014162dfab80cec95b4fb1654bcb721ec6",
          "transactionIndex": "0xf",
          "logIndex": "0x33",
          "removed": false
        },
        {
          "address": "0xd8763cba276a3738e6de85b4b3bf5fded6d6ca73",
          "topics": [
            "0xddf252ad1be2c89b69c2b068fc378daa952ba7f163c4a11628f55a4df523b3ef",
            "0x00000000000000000000000049af158c16c06fd9edefbad8b17728e21c0ecbab",
            "0x0000000000000000000000008a0d290b2ee35efde47810ca8ff057e109e4190b"
          ],
          "data": "0x000000000000000000000000000000000000000000000000001f34cb36d5e613",
          "blockHash": "0xa4fff755c407bdcfd929a218640c9ffd9cf4d12f54cbc51a6566bd22ebfc47e0",
          "blockNumber": "0x205aa9f",
          "transactionHash": "0x6ba988269f3ed5020f30e4af97a6c7014162dfab80cec95b4fb1654bcb721ec6",
          "transactionIndex": "0xf",
          "logIndex": "0x34",
          "removed": false
        }
      ],
      "logsBloom": "0x00801000000000000200100020000000000000008000000000000000000000004000080000000000040020002000000000000000000000000000000000200010020000002000001000000048000000010000800000000000000000000000000000008080020100000000000000000c00000800000000000000000010002000000008000000200010401000001000000000000000000000000800000000004000020001000000000100000000000000000000000000000000000040000024880002000002000000000000020000000000002800040400000004000000000020000010000080004010000c40000800000000000000000000100000000000000000",
      "type": "0x0",
      "transactionHash": "0x6ba988269f3ed5020f30e4af97a6c7014162dfab80cec95b4fb1654bcb721ec6",
      "transactionIndex": "0xf",
      "blockHash": "0xa4fff755c407bdcfd929a218640c9ffd9cf4d12f54cbc51a6566bd22ebfc47e0",
      "blockNumber": "0x205aa9f",
      "gasUsed": "0x96518",
      "effectiveGasPrice": "0x5d22cfc40",
      "from": "0x8a0d290b2ee35efde47810ca8ff057e109e4190b",
      "to": "0x49af158c16c06fd9edefbad8b17728e21c0ecbab",
      "contractAddress": null,
      "l1BaseFeeScalar": "0x0",
      "l1BlobBaseFee": "0xd2be11b5",
      "l1BlobBaseFeeScalar": "0x0",
      "l1Fee": "0x0",
      "l1GasPrice": "0x16a28b2e",
      "l1GasUsed": "0x640"
    }
  ],
  "libraries": [],
  "pending": [],
  "returns": {},
  "timestamp": 1745826551,
  "chain": 42220,
  "commit": "eee9e0b"
}