{
  "transactions": [
    {
      "hash": "0x3a3525397017b10b2adb1cdc9af04f15e73e92b8d78c8af136aa4a18454b06e5",
      "transactionType": "CALL",
      "contractName": null,
      "contractAddress": "0x96cfa0e76bd15d99a1230ca3955be5e677b746a6",
      "function": "listProperty(string,address,uint256,string)",
      "arguments": [
        "Taj Mahal Hotel",
        "0xD8763CBa276a3738E6DE85b4b3bF5FDed6D6cA73",
        "30000000000000000",
        "ipfs://QmTajMahalHotelImage123"
      ],
      "transaction": {
        "from": "0x8a0d290b2ee35efde47810ca8ff057e109e4190b",
        "to": "0x96cfa0e76bd15d99a1230ca3955be5e677b746a6",
        "gas": "0x3b520",
        "value": "0x0",
        "input": "0x91df597f0000000000000000000000000000000000000000000000000000000000000080000000000000000000000000d8763cba276a3738e6de85b4b3bf5fded6d6ca73000000000000000000000000000000000000000000000000006a94d74f43000000000000000000000000000000000000000000000000000000000000000000c0000000000000000000000000000000000000000000000000000000000000000f54616a204d6168616c20486f74656c0000000000000000000000000000000000000000000000000000000000000000000000000000000000000000000000001e697066733a2f2f516d54616a4d6168616c486f74656c496d6167653132330000",
        "nonce": "0x26",
        "chainId": "0xa4ec"
      },
      "additionalContracts": [],
      "isFixedGasLimit": false
    },
    {
      "hash": "0xd260128ec08a82fc60546eae02aed34cceb965d32d37ed63f9d5d14a8a7d0036",
      "transactionType": "CALL",
      "contractName": null,
      "contractAddress": "0x96cfa0e76bd15d99a1230ca3955be5e677b746a6",
      "function": "payRent(uint256,uint256,address)",
      "arguments": [
        "7",
        "1",
        "0x765DE816845861e75A25fCA122bb6898B8B1282a"
      ],
      "transaction": {
        "from": "0x8a0d290b2ee35efde47810ca8ff057e109e4190b",
        "to": "0x96cfa0e76bd15d99a1230ca3955be5e677b746a6",
        "gas": "0xd28d7",
        "value": "0x0",
        "input": "0x24399b9e00000000000000000000000000000000000000000000000000000000000000070000000000000000000000000000000000000000000000000000000000000001000000000000000000000000765de816845861e75a25fca122bb6898b8b1282a",
        "nonce": "0x27",
        "chainId": "0xa4ec"
      },
      "additionalContracts": [],
      "isFixedGasLimit": false
    }
  ],
  "receipts": [
    {
      "status": "0x1",
      "cumulativeGasUsed": "0x1b3067",
      "logs": [
        {
          "address": "0x96cfa0e76bd15d99a1230ca3955be5e677b746a6",
          "topics": [
            "0xb18344ef8baa750d3a903211956af26a995a3b8a1ea274bdb9cdb60eaef14da9",
            "0x0000000000000000000000000000000000000000000000000000000000000007"
          ],
          "data": "0x0000000000000000000000008a0d290b2ee35efde47810ca8ff057e109e4190b0000000000000000000000000000000000000000000000000000000000000080000000000000000000000000d8763cba276a3738e6de85b4b3bf5fded6d6ca73000000000000000000000000000000000000000000000000006a94d74f430000000000000000000000000000000000000000000000000000000000000000000f54616a204d6168616c20486f74656c0000000000000000000000000000000000",
          "blockHash": "0x7b0e174298cdacba4232424090556efd4406d017db8ae175aad677e021477e30",
          "blockNumber": "0x20a100b",
          "transactionHash": "0x3a3525397017b10b2adb1cdc9af04f15e73e92b8d78c8af136aa4a18454b06e5",
          "transactionIndex": "0xd",
          "logIndex": "0x22",
          "removed": false
        }
      ],
      "logsBloom": "0x00000000000000000000000000000000000000000000000000000000000000000080000000000020000400000000000000001000000000000000000000000000000020000000000000000000000000000000000000000000000000000000000000000000080000000000000000000000000000000000000000000000000040000000000000000000000000000000000000000000000000000000000000000000000000000000000000000000000000000000000000000000000000000000000000000000000000000000000000000000000000000000000000000100000000000000000000000000000000000000000000000000000000008000000000000000",
      "type": "0x0",
      "transactionHash": "0x3a3525397017b10b2adb1cdc9af04f15e73e92b8d78c8af136aa4a18454b06e5",
      "transactionIndex": "0xd",
      "blockHash": "0x7b0e174298cdacba4232424090556efd4406d017db8ae175aad677e021477e30",
      "blockNumber": "0x20a100b",
      "gasUsed": "0x288fa",
      "effectiveGasPrice": "0x5d22cfc40",
      "from": "0x8a0d290b2ee35efde47810ca8ff057e109e4190b",
      "to": "0x96cfa0e76bd15d99a1230ca3955be5e677b746a6",
      "contractAddress": null,
      "l1BaseFeeScalar": "0x0",
      "l1BlobBaseFee": "0xc5c2c3b19",
      "l1BlobBaseFeeScalar": "0x0",
      "l1Fee": "0x0",
      "l1GasPrice": "0x793ab425",
      "l1GasUsed": "0x90c"
    },
    {
      "status": "0x1",
      "cumulativeGasUsed": "0x24b763",
      "logs": [
        {
          "address": "0x765de816845861e75a25fca122bb6898b8b1282a",
          "topics": [
            "0xddf252ad1be2c89b69c2b068fc378daa952ba7f163c4a11628f55a4df523b3ef",
            "0x0000000000000000000000008a0d290b2ee35efde47810ca8ff057e109e4190b",
            "0x00000000000000000000000096cfa0e76bd15d99a1230ca3955be5e677b746a6"
          ],
          "data": "0x000000000000000000000000000000000000000000000000006a94d74f430000",
          "blockHash": "0x7b0e174298cdacba4232424090556efd4406d017db8ae175aad677e021477e30",
          "blockNumber": "0x20a100b",
          "transactionHash": "0xd260128ec08a82fc60546eae02aed34cceb965d32d37ed63f9d5d14a8a7d0036",
          "transactionIndex": "0xe",
          "logIndex": "0x23",
          "removed": false
        },
        {
          "address": "0x765de816845861e75a25fca122bb6898b8b1282a",
          "topics": [
            "0x8c5be1e5ebec7d5bd14f71427d1e84f3dd0314c0f7b2291e5b200ac8c7c3b925",
            "0x00000000000000000000000096cfa0e76bd15d99a1230ca3955be5e677b746a6",
            "0x000000000000000000000000be729350f8cdfc19db6866e8579841188ee57f67"
          ],
          "data": "0x000000000000000000000000000000000000000000000000006a94d74f430000",
          "blockHash": "0x7b0e174298cdacba4232424090556efd4406d017db8ae175aad677e021477e30",
          "blockNumber": "0x20a100b",
          "transactionHash": "0xd260128ec08a82fc60546eae02aed34cceb965d32d37ed63f9d5d14a8a7d0036",
          "transactionIndex": "0xe",
          "logIndex": "0x24",
          "removed": false
        },
        {
          "address": "0x765de816845861e75a25fca122bb6898b8b1282a",
          "topics": [
            "0x8c5be1e5ebec7d5bd14f71427d1e84f3dd0314c0f7b2291e5b200ac8c7c3b925",
            "0x00000000000000000000000096cfa0e76bd15d99a1230ca3955be5e677b746a6",
            "0x000000000000000000000000be729350f8cdfc19db6866e8579841188ee57f67"
          ],
          "data": "0x0000000000000000000000000000000000000000000000000000000000000000",
          "blockHash": "0x7b0e174298cdacba4232424090556efd4406d017db8ae175aad677e021477e30",
          "blockNumber": "0x20a100b",
          "transactionHash": "0xd260128ec08a82fc60546eae02aed34cceb965d32d37ed63f9d5d14a8a7d0036",
          "transactionIndex": "0xe",
          "logIndex": "0x25",
          "removed": false
        },
        {
          "address": "0x765de816845861e75a25fca122bb6898b8b1282a",
          "topics": [
            "0xddf252ad1be2c89b69c2b068fc378daa952ba7f163c4a11628f55a4df523b3ef",
            "0x00000000000000000000000096cfa0e76bd15d99a1230ca3955be5e677b746a6",
            "0x000000000000000000000000be729350f8cdfc19db6866e8579841188ee57f67"
          ],
          "data": "0x000000000000000000000000000000000000000000000000006a94d74f430000",
          "blockHash": "0x7b0e174298cdacba4232424090556efd4406d017db8ae175aad677e021477e30",
          "blockNumber": "0x20a100b",
          "transactionHash": "0xd260128ec08a82fc60546eae02aed34cceb965d32d37ed63f9d5d14a8a7d0036",
          "transactionIndex": "0xe",
          "logIndex": "0x26",
          "removed": false
        },
        {
          "address": "0x765de816845861e75a25fca122bb6898b8b1282a",
          "topics": [
            "0x8c5be1e5ebec7d5bd14f71427d1e84f3dd0314c0f7b2291e5b200ac8c7c3b925",
            "0x000000000000000000000000be729350f8cdfc19db6866e8579841188ee57f67",
            "0x000000000000000000000000777a8255ca72412f0d706dc03c9d1987306b4cad"
          ],
          "data": "0x000000000000000000000000000000000000000000000000006a94d74f430000",
          "blockHash": "0x7b0e174298cdacba4232424090556efd4406d017db8ae175aad677e021477e30",
          "blockNumber": "0x20a100b",
          "transactionHash": "0xd260128ec08a82fc60546eae02aed34cceb965d32d37ed63f9d5d14a8a7d0036",
          "transactionIndex": "0xe",
          "logIndex": "0x27",
          "removed": false
        },
        {
          "address": "0x22d9db95e6ae61c104a7b6f6c78d7993b94ec901",
          "topics": [
            "0x949f5db193cbfa01f2d443b1c656bfede15497de0d86838cea089bd60c438342",
            "0xacc988382b66ee5456086643dcfd9a5ca43dd8f428f6ef22503d8b8013bcffd7"
          ],
          "data": "0x00000000000000000000000000000000000000000009ed194db19b238c00000000000000000000000000000000000000000000000009ed2063b1ba11401eb982",
          "blockHash": "0x7b0e174298cdacba4232424090556efd4406d017db8ae175aad677e021477e30",
          "blockNumber": "0x20a100b",
          "transactionHash": "0xd260128ec08a82fc60546eae02aed34cceb965d32d37ed63f9d5d14a8a7d0036",
          "transactionIndex": "0xe",
          "logIndex": "0x28",
          "removed": false
        },
        {
          "address": "0x765de816845861e75a25fca122bb6898b8b1282a",
          "topics": [
            "0x8c5be1e5ebec7d5bd14f71427d1e84f3dd0314c0f7b2291e5b200ac8c7c3b925",
            "0x000000000000000000000000be729350f8cdfc19db6866e8579841188ee57f67",
            "0x000000000000000000000000777a8255ca72412f0d706dc03c9d1987306b4cad"
          ],
          "data": "0x0000000000000000000000000000000000000000000000000000000000000000",
          "blockHash": "0x7b0e174298cdacba4232424090556efd4406d017db8ae175aad677e021477e30",
          "blockNumber": "0x20a100b",
          "transactionHash": "0xd260128ec08a82fc60546eae02aed34cceb965d32d37ed63f9d5d14a8a7d0036",
          "transactionIndex": "0xe",
          "logIndex": "0x29",
          "removed": false
        },
        {
          "address": "0x765de816845861e75a25fca122bb6898b8b1282a",
          "topics": [
            "0xddf252ad1be2c89b69c2b068fc378daa952ba7f163c4a11628f55a4df523b3ef",
            "0x000000000000000000000000be729350f8cdfc19db6866e8579841188ee57f67",
            "0x000000000000000000000000777a8255ca72412f0d706dc03c9d1987306b4cad"
          ],
          "data": "0x000000000000000000000000000000000000000000000000006a94d74f430000",
          "blockHash": "0x7b0e174298cdacba4232424090556efd4406d017db8ae175aad677e021477e30",
          "blockNumber": "0x20a100b",
          "transactionHash": "0xd260128ec08a82fc60546eae02aed34cceb965d32d37ed63f9d5d14a8a7d0036",
          "transactionIndex": "0xe",
          "logIndex": "0x2a",
          "removed": false
        },
        {
          "address": "0x765de816845861e75a25fca122bb6898b8b1282a",
          "topics": [
            "0xddf252ad1be2c89b69c2b068fc378daa952ba7f163c4a11628f55a4df523b3ef",
            "0x000000000000000000000000777a8255ca72412f0d706dc03c9d1987306b4cad",
            "0x0000000000000000000000000000000000000000000000000000000000000000"
          ],
          "data": "0x000000000000000000000000000000000000000000000000006a94d74f430000",
          "blockHash": "0x7b0e174298cdacba4232424090556efd4406d017db8ae175aad677e021477e30",
          "blockNumber": "0x20a100b",
          "transactionHash": "0xd260128ec08a82fc60546eae02aed34cceb965d32d37ed63f9d5d14a8a7d0036",
          "transactionIndex": "0xe",
          "logIndex": "0x2b",
          "removed": false
        },
        {
          "address": "0xceba9300f2b948710d2653dd7b07f33a8b32118c",
          "topics": [
            "0xddf252ad1be2c89b69c2b068fc378daa952ba7f163c4a11628f55a4df523b3ef",
            "0x0000000000000000000000009380fa34fd9e4fd14c06305fd7b6199089ed4eb9",
            "0x000000000000000000000000be729350f8cdfc19db6866e8579841188ee57f67"
          ],
          "data": "0x0000000000000000000000000000000000000000000000000000000000007530",
          "blockHash": "0x7b0e174298cdacba4232424090556efd4406d017db8ae175aad677e021477e30",
          "blockNumber": "0x20a100b",
          "transactionHash": "0xd260128ec08a82fc60546eae02aed34cceb965d32d37ed63f9d5d14a8a7d0036",
          "transactionIndex": "0xe",
          "logIndex": "0x2c",
          "removed": false
        },
        {
          "address": "0x9380fa34fd9e4fd14c06305fd7b6199089ed4eb9",
          "topics": [
            "0xc171b15fb47a5beb3e11b1951d4518544f699edd6acd893d8695c91703922b60",
            "0x000000000000000000000000777a8255ca72412f0d706dc03c9d1987306b4cad",
            "0x000000000000000000000000be729350f8cdfc19db6866e8579841188ee57f67"
          ],
          "data": "0x0000000000000000000000000000000000000000000000000000000000007530000000000000000000000000ceba9300f2b948710d2653dd7b07f33a8b32118c",
          "blockHash": "0x7b0e174298cdacba4232424090556efd4406d017db8ae175aad677e021477e30",
          "blockNumber": "0x20a100b",
          "transactionHash": "0xd260128ec08a82fc60546eae02aed34cceb965d32d37ed63f9d5d14a8a7d0036",
          "transactionIndex": "0xe",
          "logIndex": "0x2d",
          "removed": false
        },
        {
          "address": "0x777a8255ca72412f0d706dc03c9d1987306b4cad",
          "topics": [
            "0xe7b046415cac9de47940c3087e06db13a0e058ccf53ac5f0edd49ebb4c2c3a6f",
            "0xacc988382b66ee5456086643dcfd9a5ca43dd8f428f6ef22503d8b8013bcffd7",
            "0x000000000000000000000000be729350f8cdfc19db6866e8579841188ee57f67",
            "0x000000000000000000000000765de816845861e75a25fca122bb6898b8b1282a"
          ],
          "data": "0x00000000000000000000000022d9db95e6ae61c104a7b6f6c78d7993b94ec901000000000000000000000000ceba9300f2b948710d2653dd7b07f33a8b32118c000000000000000000000000000000000000000000000000006a94d74f4300000000000000000000000000000000000000000000000000000000000000007530",
          "blockHash": "0x7b0e174298cdacba4232424090556efd4406d017db8ae175aad677e021477e30",
          "blockNumber": "0x20a100b",
          "transactionHash": "0xd260128ec08a82fc60546eae02aed34cceb965d32d37ed63f9d5d14a8a7d0036",
          "transactionIndex": "0xe",
          "logIndex": "0x2e",
          "removed": false
        },
        {
          "address": "0xceba9300f2b948710d2653dd7b07f33a8b32118c",
          "topics": [
            "0x8c5be1e5ebec7d5bd14f71427d1e84f3dd0314c0f7b2291e5b200ac8c7c3b925",
            "0x000000000000000000000000be729350f8cdfc19db6866e8579841188ee57f67",
            "0x000000000000000000000000777a8255ca72412f0d706dc03c9d1987306b4cad"
          ],
          "data": "0x0000000000000000000000000000000000000000000000000000000000007530",
          "blockHash": "0x7b0e174298cdacba4232424090556efd4406d017db8ae175aad677e021477e30",
          "blockNumber": "0x20a100b",
          "transactionHash": "0xd260128ec08a82fc60546eae02aed34cceb965d32d37ed63f9d5d14a8a7d0036",
          "transactionIndex": "0xe",
          "logIndex": "0x2f",
          "removed": false
        },
        {
          "address": "0xceba9300f2b948710d2653dd7b07f33a8b32118c",
          "topics": [
            "0xddf252ad1be2c89b69c2b068fc378daa952ba7f163c4a11628f55a4df523b3ef",
            "0x000000000000000000000000be729350f8cdfc19db6866e8579841188ee57f67",
            "0x0000000000000000000000009380fa34fd9e4fd14c06305fd7b6199089ed4eb9"
          ],
          "data": "0x0000000000000000000000000000000000000000000000000000000000007530",
          "blockHash": "0x7b0e174298cdacba4232424090556efd4406d017db8ae175aad677e021477e30",
          "blockNumber": "0x20a100b",
          "transactionHash": "0xd260128ec08a82fc60546eae02aed34cceb965d32d37ed63f9d5d14a8a7d0036",
          "transactionIndex": "0xe",
          "logIndex": "0x30",
          "removed": false
        },
        {
          "address": "0xd8763cba276a3738e6de85b4b3bf5fded6d6ca73",
          "topics": [
            "0xddf252ad1be2c89b69c2b068fc378daa952ba7f163c4a11628f55a4df523b3ef",
            "0x0000000000000000000000000000000000000000000000000000000000000000",
            "0x000000000000000000000000be729350f8cdfc19db6866e8579841188ee57f67"
          ],
          "data": "0x000000000000000000000000000000000000000000000000005e55e217a0eb06",
          "blockHash": "0x7b0e174298cdacba4232424090556efd4406d017db8ae175aad677e021477e30",
          "blockNumber": "0x20a100b",
          "transactionHash": "0xd260128ec08a82fc60546eae02aed34cceb965d32d37ed63f9d5d14a8a7d0036",
          "transactionIndex": "0xe",
          "logIndex": "0x31",
          "removed": false
        },
        {
          "address": "0x777a8255ca72412f0d706dc03c9d1987306b4cad",
          "topics": [
            "0xe7b046415cac9de47940c3087e06db13a0e058ccf53ac5f0edd49ebb4c2c3a6f",
            "0x99be8b8341ba00914600cda701568ab27eea9aca7a32fa48c26e07b86841020c",
            "0x000000000000000000000000be729350f8cdfc19db6866e8579841188ee57f67",
            "0x000000000000000000000000ceba9300f2b948710d2653dd7b07f33a8b32118c"
          ],
          "data": "0x00000000000000000000000022d9db95e6ae61c104a7b6f6c78d7993b94ec901000000000000000000000000d8763cba276a3738e6de85b4b3bf5fded6d6ca730000000000000000000000000000000000000000000000000000000000007530000000000000000000000000000000000000000000000000005e55e217a0eb06",
          "blockHash": "0x7b0e174298cdacba4232424090556efd4406d017db8ae175aad677e021477e30",
          "blockNumber": "0x20a100b",
          "transactionHash": "0xd260128ec08a82fc60546eae02aed34cceb965d32d37ed63f9d5d14a8a7d0036",
          "transactionIndex": "0xe",
          "logIndex": "0x32",
          "removed": false
        },
        {
          "address": "0xd8763cba276a3738e6de85b4b3bf5fded6d6ca73",
          "topics": [
            "0xddf252ad1be2c89b69c2b068fc378daa952ba7f163c4a11628f55a4df523b3ef",
            "0x000000000000000000000000be729350f8cdfc19db6866e8579841188ee57f67",
            "0x00000000000000000000000096cfa0e76bd15d99a1230ca3955be5e677b746a6"
          ],
          "data": "0x000000000000000000000000000000000000000000000000005e55e217a0eb06",
          "blockHash": "0x7b0e174298cdacba4232424090556efd4406d017db8ae175aad677e021477e30",
          "blockNumber": "0x20a100b",
          "transactionHash": "0xd260128ec08a82fc60546eae02aed34cceb965d32d37ed63f9d5d14a8a7d0036",
          "transactionIndex": "0xe",
          "logIndex": "0x33",
          "removed": false
        },
        {
          "address": "0xd8763cba276a3738e6de85b4b3bf5fded6d6ca73",
          "topics": [
            "0xddf252ad1be2c89b69c2b068fc378daa952ba7f163c4a11628f55a4df523b3ef",
            "0x00000000000000000000000096cfa0e76bd15d99a1230ca3955be5e677b746a6",
            "0x0000000000000000000000008a0d290b2ee35efde47810ca8ff057e109e4190b"
          ],
          "data": "0x000000000000000000000000000000000000000000000000005e55e217a0eb06",
          "blockHash": "0x7b0e174298cdacba4232424090556efd4406d017db8ae175aad677e021477e30",
          "blockNumber": "0x20a100b",
          "transactionHash": "0xd260128ec08a82fc60546eae02aed34cceb965d32d37ed63f9d5d14a8a7d0036",
          "transactionIndex": "0xe",
          "logIndex": "0x34",
          "removed": false
        },
        {
          "address": "0x96cfa0e76bd15d99a1230ca3955be5e677b746a6",
          "topics": [
            "0x8369debc964748136513ed9e8988cfc4f2089cc7460071ef445ec215cedb1946",
            "0x0000000000000000000000000000000000000000000000000000000000000007"
          ],
          "data": "0x0000000000000000000000008a0d290b2ee35efde47810ca8ff057e109e4190b000000000000000000000000000000000000000000000000006a94d74f430000000000000000000000000000765de816845861e75a25fca122bb6898b8b1282a",
          "blockHash": "0x7b0e174298cdacba4232424090556efd4406d017db8ae175aad677e021477e30",
          "blockNumber": "0x20a100b",
          "transactionHash": "0xd260128ec08a82fc60546eae02aed34cceb965d32d37ed63f9d5d14a8a7d0036",
          "transactionIndex": "0xe",
          "logIndex": "0x35",
          "removed": false
        }
      ],
      "logsBloom": "0x00801000000000000200100000000000000000008000000000000000000000000080080000000020040420002000000000001000000000000000000000200010020020002000000000000048000000010000800000000000000000000000000000008080c20100000000000000000c00000800000000800000000410002000000008000000200010401000003000000000000000000000000800000000004000020001000000000100000000000000000010000000000000000040000024880002000002000000000000020000000000002800040400000004000100000020000010000080004010000c40000800000000000000000000100000000000000000",
      "type": "0x0",
      "transactionHash": "0xd260128ec08a82fc60546eae02aed34cceb965d32d37ed63f9d5d14a8a7d0036",
      "transactionIndex": "0xe",
      "blockHash": "0x7b0e174298cdacba4232424090556efd4406d017db8ae175aad677e021477e30",
      "blockNumber": "0x20a100b",
      "gasUsed": "0x986fc",
      "effectiveGasPrice": "0x5d22cfc40",
      "from": "0x8a0d290b2ee35efde47810ca8ff057e109e4190b",
      "to": "0x96cfa0e76bd15d99a1230ca3955be5e677b746a6",
      "contractAddress": null,
      "l1BaseFeeScalar": "0x0",
      "l1BlobBaseFee": "0xc5c2c3b19",
      "l1BlobBaseFeeScalar": "0x0",
      "l1Fee": "0x0",
      "l1GasPrice": "0x793ab425",
      "l1GasUsed": "0x640"
    }
  ],
  "libraries": [],
  "pending": [],
  "returns": {},
  "timestamp": 1746114657,
  "chain": 42220,
  "commit": "eee9e0b"
}